:10000000010000000D900D90E4CB02000100000003
:1000100000102000F8337F9C00000000000000006A
:1000200000000000000000000000000000000000D0
:100030000000000000000000000000000D900D9086
:10004000A55A0000002020080000008000000000E9
:1000500000000000000000000000000000000000A0
:100060000000000000000000000000000000000090
:100070000000000000000000000000000000000080
:100080000000000000000000000000000000000070
:10100000F0AF01004DD5200801D5200801D52008FA
:1010100001D5200801D5200801D5200800000000D6
:10102000000000000000000000000000819E200879
:1010300001D5200800000000D19E2008AF852008BF
:1010400001D5200801D5200801D5200801D52008A8
:1010500001D5200801D5200801D5200801D5200898
:1010600001D5200801D52008C906000039FE200856
:101070008DDD2008F552210801D5200801D5200872
:1010800001D5200801D520084D462108F146210848
:1010900001D52008E5452108C926210801D52008E9
:1010A00001D5200801D5200801D5200801D5200848
:1010B000153E2108353E2108F0AF010001D520087A
:1010C0004DD520082106000001D5200801D52008B3
:1010D00001D5200801D5200871DD200881DD200818
:1010E0007DD4200801D52008DD5221083BFE8F6900
:1010F00001D5200801D52008D1DA200801D5200823
:1011000001D5200801D52008B5452108CD45210885
:10111000F54421080D452108254521083D452108B4
:10112000554521086D452108854521089D45210823
:1011300001D52008E952210801D5200801D5200851
:1011400001D5200801D5200801D5200801D52008A7
:1011500001D5200801D5200801D5200801D5200897
:1011600001D5200801D52008E56021080000000015
:10117000000000000000000000000000000000006F
:101180000348044B834202D0034B03B11847704716
:10119000881D0000881D0000000000000548064B67
:1011A0001B1AD90F01EBA301491002D0034B03B165
:1011B00018477047881D0000881D000000000000CF
:1011C00010B5064C237843B9FFF7DAFF044B13B18F
:1011D0000448AFF300800123237010BD881D000078
:1011E0000000000008B7220808B5054B1BB10549EF
:1011F0000548AFF30080BDE80840FFF7CFBF00BF50
:10120000000000008C1D000008B7220830B585B032
:1012100008F06EF9424C2060032000F09BFB98B16F
:10122000404800F0B7FB00F0C3FB3F4800F0B2FBC2
:101230003E4800F0AFFB00F0EBFB3D4800F0AAFB9E
:1012400021683C4800F0A6FB00213B4A3B48ADF832
:101250000C10CDE9011118F0E7FC044680B1384DBF
:101260002B684FF0FF31186906F070FB35482146B6
:1012700020F050FE2B68186906F08DFB05B030BDDC
:10128000314820F0AFFE01A818F07AFE014618B3ED
:101290002E4820F03FFE00221146012006F0B5FB4B
:1012A0002B4B1860E0B9012000F054FB0028E5D07A
:1012B0001C4800F06FFB00F07BFB264800F06AFB47
:1012C000254800F067FB00F0A3FB194800F062FB23
:1012D000224800F05FFBD1E701A80AF095FFDAE7AA
:1012E00000221146012006F090FB1D4B18600028DB
:1012F0003AD1012000F02EFB0028BFD0094800F0B1
:1013000049FB00F055FB134800F044FB124800F085
:1013100041FB00F07DFB064800F03CFB1148D8E79C
:10132000100000002B982208405E22084C5E220824
:10133000555E22083A5F2208C5B421084C62220893
:10134000507501005A5F22088E5F2208B55F22089F
:10135000A81D0000E55F2208F15F2208FB5F22085C
:10136000A41D00001D602208AE4AAF48002106F00F
:1013700079F9B0B9012000F0EDFA90B1AB4800F076
:1013800009FB00F015FBAA4800F004FBA94800F097
:1013900001FB00F03DFBA84800F0FCFAA74800F074
:1013A000F9FA00F05FFDA64AA648002106F05AF9B6
:1013B000B0B9012000F0CEFA90B19C4800F0EAFAF2
:1013C00000F0F6FA9A4800F0E5FA9A4800F0E2FADE
:1013D00000F01EFB984800F0DDFA9B4800F0DAFAB6
:1013E000032000F0B7FA90B1904800F0D3FA00F073
:1013F000DFFA964800F0CEFA954800F0CBFA00F0FC
:1014000007FB8D4800F0C6FA924800F0C3FA0320AB
:1014100000F0A0FA90B1854800F0BCFA00F0C8FADC
:101420008A4800F0B7FA8A4800F0B4FA00F0F0FAFF
:10143000814800F0AFFA884800F0ACFA032000F0D1
:1014400089FA90B1794800F0A5FA00F0B1FA7F4826
:1014500000F0A0FA7E4800F09DFA00F0D9FA764834
:1014600000F098FA7D4800F095FA032000F072FA37
:10147000B8B16E4800F08EFA00F09AFA734800F0A6
:1014800089FA734800F086FA00F0C2FA6A4800F060
:1014900081FA00F021F9724B724A0146724800F05D
:1014A00079FA032000F056FA90B1604800F072FA21
:1014B00000F07EFA654800F06DFA654800F06AFABF
:1014C00000F0A6FA5C4800F065FA684800F062FA9D
:1014D000002004F013FA012004F010FA022004F0B6
:1014E0000DFA02F051F908F011F802F01BFE00F0BD
:1014F00005F903F06FFC04F0E1FB01F0FDFD01F0E4
:1015000089FB0221002002F049F90221012002F0AA
:1015100045F90AF0E1F8032000F01CFA90B14348C5
:1015200000F038FA00F044FA484800F033FA48482E
:1015300000F030FA00F06CFA3F4800F02BFA4C480B
:1015400000F028FA40F6B83006F00FF909F06EF80E
:10155000044600284CD1032000F0FCF990B1334838
:1015600000F018FA00F024FA384800F013FA38486E
:1015700000F010FA00F04CFA2F4800F00BFA3D484A
:1015800000F008FA09F0ECF80446B8B9032000F0BE
:10159000E1F990B1254800F0FDF900F009FA2B4877
:1015A00000F0F8F92A4800F0F5F900F031FA224885
:1015B00000F0F0F9304800F0EDF9FEE7012000F00E
:1015C000C9F90028F9D0194800F0E4F900F0F0F961
:1015D000174800F0DFF9174800F0DCF900F018FABE
:1015E000154800F0D7F92146244800F0D3F9E4E784
:1015F000012000F0AFF90028DFD00C4800F0CAF954
:1016000000F0D6F90A4800F0C5F90A4800F0C2F91E
:1016100000F0FEF9084800F0BDF92146184800F036
:10162000B9F9CAE704622208ED3020082B98220895
:10163000E55F2208F15F2208555E22083E6022081D
:10164000E0612208B5BF20085B602208405E2208E6
:101650004C5E22083E9C22087960220882602208A3
:10166000A7602208B0602208BC602208946E22089D
:10167000D8602208166122083D61220866612208AE
:1016800088612208024A0348002105F0EBBF00BF31
:10169000286222080D22200803281AD8DFE800F06B
:1016A00002080E140B4B1A788A4212D01970704738
:1016B000084B5A788A420CD059707047054B9A787B
:1016C0008A4206D099707047024BDA788A4218BF76
:1016D000D97070471400000013B5064C0123022294
:1016E000CDE900320A21044A204620F083FC20463E
:1016F00002B010BDAD1D00008862220810B535484B
:101700008AB010F0B9FC0A236422CDE90432222108
:101710001623CDE9023105230221CDE9003119223A
:10172000082307A811F094FA0446B8B1012000F08C
:1017300011F998B1284800F02DF900F039F927483F
:1017400000F028F9264800F025F900F061F9254855
:1017500000F020F92448214600F01CF907A811F0F8
:101760003BFA0446B8B1012000F0F4F898B11A48E9
:1017700000F010F900F01CF9184800F00BF91848B7
:1017800000F008F900F044F9164800F003F9174892
:10179000214600F0FFF8012006F031FE144B1860DE
:1017A000B0B9012000F0D6F890B10B4800F0F2F883
:1017B00000F0FEF8094800F0EDF8094800F0EAF8FA
:1017C00000F026F9074800F0E5F80A4800F0E2F8D2
:1017D0000AB010BD1C8204242B982208E55F220861
:1017E000F15F2208555E220896622208E66222080E
:1017F000B81D00002F63220830B51A4D0446286832
:1018000085B068B34FF0FF3106F076FF01A920469E
:1018100011F03EFA01A811F0DFF90446B8B1012039
:1018200000F098F898B1104800F0B4F800F0C0F853
:101830000E4800F0AFF80E4800F0ACF800F0E8F801
:101840000C4800F0A7F80C48214600F0A3F80B4B19
:10185000286801221A7000231A46194606F0DFFC98
:1018600005B030BDB81D00002B982208E55F2208A6
:10187000F15F2208555E2208E6622208B71D0000CB
:101880001FB501A811F0C0F90446B8B1012000F05D
:1018900061F898B10D4800F07DF800F089F80C4827
:1018A00000F078F80B4800F075F800F0B1F80A483D
:1018B00000F070F80948214600F06CF8694601A86C
:1018C00011F052FA009804B010BD00BF2B98220806
:1018D000E55F2208F15F2208555E2208596322085D
:1018E00008B5FFF7CDFF4FF47A71A0FB010108BDE9
:1018F00040BA80B2704740BA80B27047034608BA17
:1019000019BA7047FFF7FABF30B501444FF6FF73BD
:101910004AF20104814202D158BA80B230BD10F8B7
:10192000012B5340082203F001055B080DB1634011
:101930009BB2013A92B2002AF5D1EBE708B505F067
:1019400039FBFFF79FFE05F08BFB00B908BD05F0E2
:1019500030FBF8E70B4B1B78024683B10A4B1B7830
:10196000834234BF00200120084B1B7833B1084B61
:101970001B78134113F0010F08BF002070470120AE
:10198000F2E700BF1A00000019000000BC1D0000B3
:10199000180000000FB407B504A951F8040B019119
:1019A00020F0ECFB03B05DF804EB04B070470000DE
:1019B00073B505F0A5FC0E46054605F0BBFC4FF4DB
:1019C0007A740246A5FB040104FB061100231FF0F4
:1019D000EDF93C21B0FBF4F304FB1304B3FBF1F687
:1019E000009401FB16334EF66022B0FBF2F2B2FB1C
:1019F000F1F501FB15220449B0FBF1F10348FFF7B3
:101A0000C9FF02B070BD00BF80EE3600A26322089D
:101A10007047704770477047704708B50AF0A2FFDB
:101A20000FF046FD13F06AFB0AF0D6FABDE8084055
:101A30000AF012BF704705F0EDBD08B500F00AF8D6
:101A400000F01AF8BDE8084000F01CB87047704775
:101A50007047000008B5054812F0AEFB044812F0CC
:101A6000ABFBBDE80840034812F0A6BB2D00000008
:101A7000240000001B00000001480BF0ADB900BFBE
:101A8000C563220808B504480BF095FABDE8084084
:101A900002480BF090BA00BFCD632208CA63220847
:101AA000034901220B68824023EA02030B6070475E
:101AB000801E0000044A0123116883400B43136019
:101AC000024B186806F024B8801E0000A41D000018
:101AD00010B40A4B01461A4611F8014B02F8014BAB
:101AE000D0F80140C3F80140898891805DF8044B2B
:101AF000828B1A810120FFF7DDBF00BF741E00003A
:101B0000064B00F10C0250F8041B43F8041B9042F2
:101B1000F9D102881A801820FFF7CCBFBD1D000044
:101B20001920FFF7C7BF0000044B02681A608288C3
:101B30009A8082799A710220FFF7BCBF6D1E000067
:101B400010B501460446074815F06DF8064A2368AB
:101B5000136063685360A3689360BDE8104017206A
:101B6000FFF7A8BFE01D0000CC1D000008B5064926
:101B700003680B60436805484B6015F054F8BDE8F6
:101B800008401620FFF796BFD81D0000E01D00009A
:101B9000044B02681A6042685A6002891A81012067
:101BA000FFF788BF741E00002DE9F043904B1A78B0
:101BB0000B899A42A3B00C4646D1CB7A323B062B16
:101BC00000F2F680DFE813F033000700D200950042
:101BD000A900BD00E200874D2B684FF0FF31186966
:101BE00005F0B4FE844820F0FDF92B68186905F073
:101BF000D2FE0320FFF7AEFE90B18048FFF7CAFE89
:101C0000FFF7D6FE7E48FFF7C5FE7E48FFF7C2FE0F
:101C1000FFF7FEFE7C48FFF7BDFE7C48FFF7BAFEEB
:101C20007B4B00221A70042009F084F90CE0322268
:101C30000021784820F0A4FB764804F10E0120F042
:101C4000B2FC0D20FFF736FF734B22891B889A42A6
:101C50004CD10320FFF77EFE90B16848FFF79AFE53
:101C6000FFF7A6FE6648FFF795FE6648FFF792FE6F
:101C7000FFF7CEFE6448FFF78DFE6848FFF78AFE47
:101C80000320FFF767FE40B1A37A04F10A06002B98
:101C900040F0A7806248FFF77DFEA57A04F10B01B2
:101CA0002A460DF1050020F0DBFC5E488DF804505B
:101CB000006800230A2201A906F0B1FAB0B9012098
:101CC000FFF748FE90B14D48FFF764FEFFF770FE46
:101CD0005548FFF75FFE5548FFF75CFEFFF798FE9B
:101CE0004948FFF757FE5248FFF754FE23B0BDE8BE
:101CF000F0838B7B4F4A3F4D303B13702B684FF086
:101D0000FF31186905F022FE4B4820F06BF92B6873
:101D1000186905F040FE0E2094E7364D47480E3115
:101D200020F041FC2B684FF0FF31186905F00EFEE2
:101D3000434820F057F92B68186905F02CFE052060
:101D400072E72C4D2B684FF0FF31186905F0FEFD4E
:101D50003C4820F047F92B68186905F01CFE3A4B07
:101D60001B780BB110206DE711206BE7214D2B681C
:101D70004FF0FF31186905F0E9FD344820F032F9E1
:101D80002B68186905F007FE0B204DE7194D13204D
:101D9000FFF790FE2B684FF0FF31186905F0D6FD74
:101DA0002B4820F01FF92B68186905F0F4FD4BE76C
:101DB000104D2B684FF0FF31186905F0C7FD25481D
:101DC000EFE74846FFF7E6FD4046FFF7E3FD16F86C
:101DD000011F3846FFF7DEFDA37A01359D42F0D39F
:101DE00058E7DFF878801C4FDFF874900025EBE7A8
:101DF000B030000050750100D06322082B982208F3
:101E0000405E22084C5E2208555E2208E6632208E6
:101E10003C0100003B1E00002820000091642208C5
:101E20003E9C2208A8300000E55F2208F15F2208EE
:101E3000A1642208F81D0000FE632208F91D0000BD
:101E40001364220825642208806401004364220888
:101E5000656422087964220863652208409C220890
:101E6000867522082DE9F041AAB01B220021864B7D
:101E7000229323A820F084FA844BDFF838820024D0
:101E80001C6001F051FA00F071FC814B814A8249DB
:101E90000594CDE90343814B0293814B2046CDE964
:101EA0000043234614F000F87E48214614F016F84B
:101EB0007D4B0894CDE906437C4B2246CDE9024395
:101EC0002146234620461DADCDE90B44CDE909440A
:101ED000CDE90444CDE90044CDE91144CDE90F44F6
:101EE000CDE90D4414F004F87149159413222846E5
:101EF000CDE91944CDE91B44ADF8584020F066FA0D
:101F00006C498DF88740284620F084FA15AE374694
:101F1000002800F09280062C40F083800320FFF719
:101F200019FD08B36448FFF735FDFFF741FD63482D
:101F3000FFF730FD6248FFF72DFDFFF769FD6148AF
:101F4000FFF728FD9DF8593002939DF85830019312
:101F50009DF8573000939DF855209DF856309DF818
:101F600054105948FFF716FD9DF8593004939DF819
:101F7000583003939DF8573002939DF856300193E3
:101F80009DF855300093514A9DF85430102119A8FE
:101F900020F030F80320FFF7DDFC98B14648FFF74A
:101FA000F9FCFFF705FD4548FFF7F4FC4448FFF74F
:101FB000F1FCFFF72DFD4348FFF7ECFC444819A95D
:101FC000FFF7E8FC19A814F02BFD384614F018FDB3
:101FD00011238DF88B3009238DF88C300DF18D0491
:101FE00019AB1A4603CAAA4220606160134604F185
:101FF0000804F6D1374C152122A813F095FA13F0F6
:1020000065FA23684FF0FF31186905F09FFC3248EC
:102010001FF0E8FF2368186905F0BDFC2AB0BDE891
:10202000F081102200211FF0B1F9414606F8010BA2
:102030000020013420F0EEF96AE7062C3FF46EAF81
:102040000120FFF787FC90B11B48FFF7A3FCFFF7C7
:10205000AFFC2248FFF79EFC2148FFF79BFCFFF7EF
:10206000D7FC1848FFF796FC1E48FFF793FC1E4A62
:1020700010689288179017ABADF8602093E80300C2
:102080001590ADF8581049E702010600801E0000C7
:10209000412B2008292B2008912B2008D12A200829
:1020A000212B2008012B20086D2B2008A92B2008AC
:1020B000D3642208E56422082B982208405E220897
:1020C0004C5E2208555E2208176522084C652208DE
:1020D00068652208507501007E652208E55F2208C8
:1020E000F15F2208E7642208EF6622082DE9F04735
:1020F000002496B03E22214606A8059420F040F91F
:10210000B64BB74E1D8828461FF016F8306080B9D0
:10211000B44C23684FF0FF31186905F017FCB24842
:102120001FF060FF2368186905F035FC16B0BDE8A4
:10213000F0872A46214620F023F9AC4FDFF8EC82E5
:102140003C6814F00104FBD1234601220133202B0B
:1021500006D1D8F800004FF0FF3105F0A7FCEFE7FB
:10216000396802FA03F00842F0D0013B182BE7D897
:1021700001A252F823F000BFDD312008853220088B
:1021800031342008413120084131200841312008F4
:1021900041312008413120084131200841312008D7
:1021A0004131200841312008BB332008C3332008C7
:1021B00073332008313320085F3320088F33200821
:1021C000DD322008A5332008D134200857352008F7
:1021D0005B3520085F352008A93520080120FFF76E
:1021E0005FFC8348E82113F020FA044670B17D4D6E
:1021F0002B684FF0FF31186905F0A8FB7D48214698
:102200001FF088FE2B68186905F0C5FB4FF4C873F2
:102210001822009376480023114613F0A1F90446D2
:1022200070B1704D2B684FF0FF31186905F08EFBCF
:10223000714821461FF06EFE2B68186905F0ABFB54
:10224000012000F013FC0320FFF784FB00283FF47B
:1022500077AF6A48FFF79EFBFFF7AAFB6848FFF7D6
:1022600099FB6848FFF796FBFFF7D2FB6648FFF73C
:1022700091FB5F49654814F0D6FC01466448FFF7BE
:1022800089FB5DE7574D0220FFF70AFC2B684FF0F2
:10229000FF31186905F05AFB5E495C4814F0C3FC35
:1022A00001465D481FF036FE2B68186905F073FB88
:1022B00013F00CF904460028FAD12B684FF0FF31D7
:1022C000186905F043FB55481FF08CFE2B68186910
:1022D00005F061FB204600F0C9FB31E70024132024
:1022E000CDE90244ADF81040FFF7DAFB4222214667
:1022F00005A820F045F802A817F042FE00287FF458
:102300001FAF40F60823ADF8143002AB03CB1B8897
:10231000ADF81E30424BCDF81600CDF81A101888D3
:1023200005AA422113F064F902A809F06DFF07E73E
:102330001020FFF7B5FB402200210DF1160020F020
:102340001FF8384B1B788DF8153007238DF81430A3
:10235000334B05AA1888422113F04AF9F0E6112000
:10236000FFF79EFB412200210DF1150020F008F837
:10237000EBE70F20FFF794FB402200210DF1160040
:102380001FF0FEFF4FF48273ADF81430E0E7122027
:10239000FFF786FB412200210DF115001FF0F0FF31
:1023A0000223D3E71420FFF77BFB412200210DF12C
:1023B00015001FF0E5FF0123C8E70D20FFF770FBB4
:1023C000BEE60E20FFF76CFB174B1B78002B7FF44B
:1023D000B7AE052008F0AEFDB2E600BF3E0100003A
:1023E000F41D0000507501009C652208801E00004D
:1023F000751E0000C6652208EF6522082B9822088A
:10240000405E22084C5E2208555E2208E01D000056
:10241000216622086D1E00003F66220867662208BA
:10242000AE30000080640100F81D0000A41D000013
:102430000320FFF735FB412200210DF115001FF0AD
:102440009FFF03238DF814303368DFF880911B68F9
:102450008DF81530554B05AA1888422113F0C8F89D
:10246000D6F800A0DAF80030E5B2AB4204F101047E
:102470000ED84F4C23684FF0FF31186905F066FA0B
:102480004C481FF0AFFD2368186905F084FA57E641
:102490004222002105A81FF073FF2E235D430AEBA3
:1024A00005030C355B7A8DF814300AEB05012C23FB
:1024B0000DF116008DF8153020F075F8B9F8000010
:1024C00005AA422113F094F80A2005F04EF9C7E757
:1024D000394B002515209C680295ADF80C50FFF78C
:1024E000DFFA29463F220DF117001FF049FF4FF494
:1024F0008173ADF8143002A92C2301208DF8163019
:1025000017F0FEFCF8B12C238DF81D30C4F307231F
:102510008DF81F30C4F307438DF81E408DF820302E
:10252000C4F30764214B8DF82140214C188805AA7B
:10253000422113F05DF823684FF0FF31186905F070
:1025400005FA1E489DE70298BDF80C30CDF817003B
:10255000ADF81B30D7E7162030E717202EE71820FC
:10256000FFF79EFA164B9B799B067FF5E9AD154860
:102570004FF4A472FB2113F00BF8044600283FF43B
:10258000DFAD0B4D2B684FF0FF31186905F0DEF918
:1025900021460D481FF0BEFC2B68186905F0FBF9B9
:1025A0001820FFF787FACBE5192007E7AE300000C7
:1025B000507501007E662208EC630100A2662208C5
:1025C000BD1D0000751E0000BA662208AC30000078
:1025D000013870B50D46144604281BD8DFE800F01A
:1025E0000312141618000C4E002130681FF0C8FEAC
:1025F00030682246294620F033F80320BDE87040B9
:10260000FFF758BA1520F9E71420F7E70F20F5E790
:102610001220F3E770BD00BFF41D000003681BBA71
:102620004B6083885BBA0B81C3885BBA4B81437A6A
:102630000B73037A4B73C37A8B73837ACB73C37B2D
:102640000B74837B4B74437B8B74037BCB7470471D
:102650002DE9F041C4B00C469DF828810746164686
:1026600000214FF4887268461D461FF089FE022340
:1026700042F60302B8F1100FADF8044000978DF850
:102680000830ADF80C208DF81C3009AC13D11423A0
:1026900029460DF12200ADF81E308DF8206014F0AF
:1026A0003DFA4BAB0FCB84E80F00684612F09BFF5E
:1026B00044B0BDE8F081042329460DF12200ADF8B5
:1026C0001E308DF8206014F029FABDF82C11204638
:1026D00014F024FAE9E782B02DE9F041C4B00E46C7
:1026E0004AA981E80C0007464FF488720021684629
:1026F0009DF83C814AAD1FF043FE9DF84431ADF892
:1027000006300FCD02AC0FC42B6850992360E6222F
:1027100008A8ADF81E200097ADF804608DF81C8065
:102720001FF09EFF684612F05EFF18F0100F18D0E1
:102730004FF48872002168461FF022FE42F6021212
:1027400002230136ADF80C2068460A220097ADF846
:1027500004608DF808308DF81C20ADF81E3012F0A2
:1027600042FF44B0BDE8F04102B070472DE9F043AC
:10277000C5B006AD002306936B60A84B0AAA03F10F
:102780001006904618685968144603C40833B342CB
:102790002246F7D1A249A34C4046FFF73FFF102342
:1027A0000B7001950B6900930FC912F004FF069B93
:1027B00023600320BDF81C30A380FFF7CBF898B14D
:1027C0009948FFF7E7F8FFF7F3F89848FFF7E2F8C2
:1027D0009748FFF7DFF8FFF71BF99648FFF7DAF89D
:1027E000A1889548FFF7D6F80021E2220BA80A91AC
:1027F0001FF0C6FD914B2E4603F11007186859686B
:10280000324603C20833BB421646F7D1DFF8549272
:1028100010234946284689F80030FFF7FFFEA188BB
:102820004F4601F1020E01F1010C0FCF6E460FC6AB
:102830003B6833601FFA8CF11FFA8EF32068082280
:10284000FFF706FF0023A688CDE90483082303933E
:102850004B4493E807008DE80700023699E80C0026
:102860002068B1B2FFF737FFA388754E023303200B
:102870003380FFF76FF898B16B48FFF78BF8FFF7DD
:1028800097F86A48FFF786F86948FFF783F8FFF77B
:10289000BFF86848FFF77EF831886A48FFF77AF892
:1028A0000021E2220BA80A911FF06AFD664B2E461A
:1028B00003F1100718685968324603C20833BB4257
:1028C0001646F7D1DFF8A09110234946284689F82B
:1028D0000030FFF7A3FEA1884F4601F1040E01F17D
:1028E000030C0FCF6E460FC63B6833601FFA8CF1A6
:1028F0001FFA8EF320680222FFF7AAFE8023A68823
:10290000CDE904830223039309F1080393E8070048
:102910008DE80700043699E80C002068B1B2FFF793
:10292000DAFEA388494E043303203380FFF712F800
:1029300098B13D48FFF72EF8FFF73AF83B48FFF70C
:1029400029F83B48FFF726F8FFF762F83948FFF708
:1029500021F831883E48FFF71DF80021E2220BA83C
:102960000A911FF00DFD3B4B2E4603F1100718682E
:102970005968324603C20833BB421646F7D1364F78
:102980004FF010092846394687F80090FFF746FEB9
:10299000A1883E4601F1060E01F1050C0FCE6D46F1
:1029A0000FC533682B601FFA8CF11FFA8EF3206875
:1029B0004A46FFF74DFE0023A588CDF80C90CDE9DF
:1029C000048307F1080393E807008DE80700063544
:1029D00097E80C002068A9B2FFF77DFEA3881F4D81
:1029E000063303202B80FEF7B5FF98B10E48FEF7A3
:1029F000D1FFFEF7DDFF0D48FEF7CCFF0C48FEF7D8
:102A0000C9FFFFF705F80B48FEF7C4FF29881448F3
:102A1000FEF7C0FF45B0BDE8F08300BFDB672208CA
:102A200010200000CC1F00002B982208405E2208D6
:102A30004C5E2208555E2208F56622085E67220871
:102A4000282000001B6722086F672208262000004C
:102A50003067220880672208D41F0000242000006D
:102A600045672208E81F0000FC1F0000144B10B54A
:102A70000446187020B90221BDE8104000F08EBE57
:102A8000012802D101460020F6E70120FEF762FF8F
:102A900098B10C48FEF77EFFFEF78AFF0A48FEF762
:102AA00079FF0A48FEF776FFFEF7B2FF0848FEF707
:102AB00071FF08482146FEF76DFF00210846DBE75D
:102AC000C81F00002B982208E55F2208F15F22084A
:102AD000555E22089167220838B5084D284613F044
:102AE000C3FF2C7844B1064B2246691C18461FF0E0
:102AF000B7FD0022025538BD0248FCE7841F0000E4
:102B0000B81F0000B06722082DE9F843324B1B784C
:102B1000012B06460C4643D10320FEF71BFF90B164
:102B20002E48FEF737FFFEF743FF2D48FEF732FF32
:102B30002C48FEF72FFFFEF76BFF2B48FEF72AFF0E
:102B40002A48FEF727FF0320FEF704FF08BB284BA7
:102B50002246314618461FF083FD264BE1B280F82D
:102B6000FF1002461888BDE8F84312F041BD15B1C8
:102B70003846FEF70FFF4046FEF70CFF715D4846F2
:102B8000FEF708FF0135AC42F1D81B48FEF702FF03
:102B9000DDE71A4FDFF87480DFF874900025F2E764
:102BA0000120FEF7D7FEA0B10C48FEF7F3FEFEF7BA
:102BB000FFFE1348FEF7EEFE1248FEF7EBFEFEF7AF
:102BC00027FF0948FEF7E6FEBDE8F8430E48FEF78A
:102BD000E1BEBDE8F88300BFC81F00002B982208A3
:102BE000405E22084C5E2208555E2208B867220823
:102BF000841E0000262000003E9C220886752208C4
:102C0000E55F2208F15F2208C8672208409C22087D
:102C10006365220808B500F037FC002008BD0000FD
:102C20002DE9F04FDFF8B0B15F4C604EA3B0DBF898
:102C300000000A2201A905F0C0FC0128F7D19DF887
:102C40000530012B17D0FEF785FEA0B12046FEF718
:102C5000A1FEFEF7ADFE3046FEF79CFE5448FEF79F
:102C600099FEFEF7D5FE5348FEF794FE9DF8051039
:102C70005148FEF78FFE9DF806509DF80430AB4298
:102C800019D00120FEF766FEA8B12046FEF782FEAD
:102C9000FEF78EFE3046FEF77DFE4548FEF77AFED3
:102CA000FEF7B6FE4348FEF775FE9DF80410434854
:102CB0002A46FEF76FFE9DF8041001F188036B446D
:102CC000023989B20DF1050033F8857CFEF71CFE50
:102CD0008742054618D00120FEF73CFEA0B12046F1
:102CE000FEF758FEFEF764FE3046FEF753FE30480E
:102CF000FEF750FEFEF78CFE2E48FEF74BFE3048E6
:102D00002A463946FEF746FE2E4D002795F80090DC
:102D10009DF808304B4541D1D5F80480B8F1000F3B
:102D20003CD095F808A09DF80430534519D00120F7
:102D3000FEF710FEA8B12046FEF72CFEFEF738FE87
:102D40003046FEF727FE1A48FEF724FEFEF760FE27
:102D50001848FEF71FFE9DF804101B485246FEF768
:102D600019FE0420FEF7F6FD98B12046FEF712FE8C
:102D7000FEF71EFE1548FEF70DFE1548FEF70AFE8B
:102D8000FEF746FE0B48FEF705FE12484946FEF7E1
:102D900001FE9DF804100DF10500C0470137112F09
:102DA00005F10C05B2D142E72B982208E55F220815
:102DB000F15F2208555E2208EB6722083868220876
:102DC00006682208A46922082D6822086A68220879
:102DD0007668220880682208A830000008B541798A
:102DE000007900F02BFC002008BD000007B5094A5F
:102DF000112306216846CDE90023FEF785FD082151
:102E0000ADF806006846FFF77FFE002003B05DF8CE
:102E100004FB00BF0208F20B07B5094A1123062183
:102E20006846CDE90023FEF76FFD0821ADF80600E6
:102E30006846FFF769FE002003B05DF804FB00BFA1
:102E40000208F20A07B5094A112306216846CDE9AE
:102E50000023FEF759FD0821ADF806006846FFF78C
:102E600053FE002003B05DF804FB00BF0208F20D22
:102E700007B5094A112306216846CDE90023FEF76C
:102E800043FD0821ADF806006846FFF73DFE00202F
:102E900003B05DF804FB00BF0208F20C13B504791F
:102EA0000420FEF757FD98B11448FEF773FDFEF7B6
:102EB0007FFD1348FEF76EFD1248FEF76BFDFEF72F
:102EC000A7FD1148FEF766FD10482146FEF762FD9A
:102ED0000F4B00930024112305216846ADF8043000
:102EE0008DF80640FEF710FD0721ADF80500684695
:102EF000FFF70AFE204602B010BD00BF2B98220843
:102F00006A68220876682208555E22089F682208AF
:102F10000207F21A13B504460420FEF71BFD98B110
:102F20001248FEF737FDFEF743FD1148FEF732FD6C
:102F30001048FEF72FFDFEF76BFD0F48FEF72AFD48
:102F400021790E48FEF726FD0D4A11230621684619
:102F5000CDE90023FEF7D8FC0821ADF8060068464D
:102F6000FFF7D2FD002002B010BD00BF2B98220851
:102F70006A68220876682208555E2208B06822082E
:102F80000208F20400B58DB02B2200210DF10500DE
:102F90001FF0F6F930238DF80130F2238DF802305E
:102FA00011238DF8043001238DF808308DF8093095
:102FB0008DF80D30154B02228DF800208DF803207E
:102FC0008DF80A2003F10C010DF10E0253F8040BE9
:102FD00042F8040B8B42F9D11B781370FFF77CFD8C
:102FE000D0F80330CDF81B30D0F80730CDF81F30C3
:102FF0002E216846FEF788FC3021ADF82E00684689
:10300000FFF782FD00200DB05DF804FBC5682208C3
:1030100010B5104A86B0002411236846CDE902237A
:1030200004948DF8144013F024FD0098BDF804308A
:10303000CDF80D000B2102A8ADF81130FEF764FCAD
:103040000D21ADF8130002A8FFF75EFD204606B083
:1030500010BD00BF020DF20108B500F07FFA00209C
:1030600008BD000010B5124A86B000241123CDE936
:1030700002230494ADF814408DF81640FEF730FC9E
:10308000FEF73CFCCDE900016B4603CBCDF80D000B
:10309000CDF8111018460D21FEF736FC0F21ADF8C2
:1030A000150002A8FFF730FD204606B010BD00BF96
:1030B000020FF20507B5034640689968FEF722FC47
:1030C0004FF47A7200231DF071FEFEF795FB094A5A
:1030D000112306216846CDE90023FEF715FC0821DF
:1030E000ADF806006846FFF70FFD002003B05DF85D
:1030F00004FB00BF0208F20630B5414B1A7885B0D8
:10310000002A7BD10125812105201D7005F029F8B9
:103110003C4C2060D0B92846FEF71CFC00286DD03E
:103120003948FEF737FCFEF743FC3848FEF732FC1F
:103130003748FEF72FFCFEF76BFC3648FEF72AFCFB
:10314000354805B0BDE83040FEF724BC0320FEF74B
:1031500001FC90B12C48FEF71DFCFEF729FC2F481E
:10316000FEF718FC2E48FEF715FCFEF751FC294827
:10317000FEF710FC2B48FEF70DFC2B4B02932B4B5C
:1031800001931B2300932A492A4800234FF48062AD
:1031900021F02AFEE0B90120FEF7DCFB90B11A48CD
:1031A000FEF7F8FBFEF704FC1848FEF7F3FB18489F
:1031B000FEF7F0FBFEF72CFC1648FEF7EBFB1E4873
:1031C000FEF7E8FB206805B0BDE8304005F010BC14
:1031D0000320FEF7BFFB88B10B48FEF7DBFBFEF7D1
:1031E000E7FB0E48FEF7D6FB0D48FEF7D3FBFEF7D4
:1031F0000FFC0848FEF7CEFB1048A2E705B030BD33
:10320000A4300000A83000002B982208E55F2208B7
:10321000F15F2208555E2208D3682208405E22082A
:103220004C5E2208FB6822082C200000A42000002D
:1032300027692208213C2008426922087069220877
:1032400082B02DE9F041C4B00E464AA981E80C00D5
:1032500007464FF48872002168464AAD9DF83C81CC
:103260001FF08EF80FCD02AC0FC42B68509923606D
:10327000422208A8ADF81E200097ADF804608DF832
:103280001C801FF0EDF9684612F0ADF918F0100F30
:1032900018D04FF48872002168461FF071F842F68A
:1032A000021202230136ADF80C2068460A2200976C
:1032B000ADF804608DF808308DF81C20ADF81E3094
:1032C00012F091F944B0BDE8F04102B07047F0B59A
:1032D000C5B007460E46154600214FF48872684671
:1032E0001C461FF04DF8022342F603028DF8083009
:1032F0008DF81C30214606230DF12200ADF80C207C
:10330000ADF81E300097ADF804608DF8205013F032
:1033100005FCBDF8281109A813F000FC684612F05E
:1033200062F945B0F0BD00002DE9F0419EB008AC57
:1033300000271422002120461FF022F839463E22A1
:103340000EA8CDE906770D971FF01AF802238DF825
:10335000203006AD4AF6BB230195ADF82430009726
:1033600094E80F0012F027F9BDF81C10069841F6FA
:10337000A1228B1C0131ADF8242000929BB20822BF
:1033800089B2FFF7A4FFBDF81C602F4B02361E70F8
:103390000DF134080823CDF8108003930AAD95E8A9
:1033A00007008DE80700069894E80C00B1B2FFF71B
:1033B00047FFBDF81C10069841F6B1320B1D0331D2
:1033C000ADF8242000929BB20A2289B2FFF77FFF5A
:1033D000BDF81C601D4B0436B6B21E800A23CDF822
:1033E0001080039395E807008DE80700069894E89D
:1033F0000C003146FFF724FFBDF81C10069841F67B
:10340000C1428B1D0531ADF8242000929BB21222DF
:1034100089B2FFF75CFFBDF81C600D4B0636B6B2F3
:103420001E801223CDF81080039395E807008DE8E5
:103430000700069894E80C003146FFF701FF384674
:103440001EB0BDE8F08100BFB0300000AE3000001B
:10345000AC30000007B5002301930A4B01A918689E
:1034600005F04BF8019B4BB14FF0E0234FF0805239
:10347000C3F8042DBFF34F8FBFF36F8F03B05DF818
:1034800004FB00BF3071000030B5032285B000217D
:10349000012004F066FE244C206070B1234B0093A1
:1034A00000232348234D1A464FF47A7105F076FC29
:1034B000286030B9206805F09BFA4FF0FF3005B066
:1034C00030BD1D4B02931D4B01931A2300931C49E1
:1034D0001C4800234FF4805221F086FC08BB0120D9
:1034E000FEF738FA90B11848FEF754FAFEF760FA82
:1034F0001648FEF74FFA1648FEF74CFAFEF788FA20
:103500001448FEF747FA1448FEF744FA206805F01D
:103510006FFA0023009328681A46052105F06CFC19
:10352000CBE70020CBE700BF3071000055442008F6
:10353000706A220834710000B43000002C310000A1
:10354000806A2208DD4520082B982208E55F2208C2
:10355000F15F2208555E22088F6A220810B51D4AC5
:1035600088B01123CDE901231B4B0024CDE903438F
:1035700040F2811045F20263CDE90534ADF81C40FC
:10358000FEF7B6F9ADF816000120FEF7B1F9ADF877
:10359000180042F23000FEF7ABF9ADF81A00FFF761
:1035A0009BFAD0F80630CDF80930D0F80A30CDF8C3
:1035B0000D301821062301A88DF81130FEF7A4F96B
:1035C0001A21ADF81C0001A8FFF79EFA204608B0AA
:1035D00010BD00BF021AF2160000010183B5DFF82A
:1035E0005480DFF85490124ED8F800004FF0FF31AD
:1035F00005F082F801280446F6D1FFF7AFFFD9F8AD
:103600000020002AF0D000254FF47A712B464A435F
:1036100030680095042105F0EFFB376821F0F0FBDE
:10362000009502462B462146384605F0E5FBDBE7D0
:1036300034710000307100002C710000F02907B5D2
:10364000034604D8012815D0022803D078B14FF0E2
:10365000FF3009E00D4A002313600D481A46006848
:10366000194604F0DCFD002003B05DF804FB074AB6
:103670001160F2E7054A07480023136000931A46D9
:103680000321006805F0B8FBEDE700BF2C710000D6
:10369000307100003471000070B5244E3368002B87
:1036A00033D0013B3360002B2FD1214C214D2378A7
:1036B000618815F83320914206D305EBC3035B788C
:1036C000DB0926D0002363801B4B6288187823789F
:1036D00005EBC3035B6803EB82039B78DB0722D512
:1036E00009F082FC2278638815F8321001290AD08B
:1036F00005EBC2056A6802EB83025288012A8CBF7F
:1037000052080122326001336380BDE8704000F04E
:1037100043B92379237005EBC303E2885B786280A9
:10372000DB09CFD1D0E709F087FCDBE7407100006F
:1037300038710000A46A2208CD63220807B501236E
:10374000CDE90033044A054800230A2103F044FE72
:1037500003B05DF804FB00BF9946200844710000E7
:10376000064B10B500241C705C801C71DC80044B7F
:10377000187809F061FC034B1C6010BD3871000023
:10378000CD6322084071000008B500F0B7F8FFF7DC
:10379000E7FFBDE80840FFF7D1BF000038B548BBE0
:1037A00003292ED8184A1578A9422AD0174C04EBC1
:1037B000C10304EBC5045B786478E4094FEAD313D2
:1037C00013D063B1508011701171D080104B1878F4
:1037D00009F032FC0F4A01231360184638BD5088A7
:1037E0001571D08011705380F0E7002BF5D0117166
:1037F000D480EBE7012804D1BDE83840084600F04A
:103800009BB80023E9E700BF38710000A46A2208D2
:10381000CD632208407100000F4A1378052B17D89A
:1038200050781BB9392815D90FF080BF5A1E012ACC
:1038300005D9032B08D0042B08D0062800E0102857
:1038400034BF0020212070470A28F9E70C28F7E749
:1038500021207047184670475000000038B5FFF728
:10386000DBFF88BB224B1D785C78052D0AD92148E7
:103870004FF4CE7110F098FD1E484FF4D27110F045
:1038800093FD2EE0032D0ED9042D28D10B2C04D945
:10389000184840F2A11110F087FD240104F11054E2
:1038A00004F598240EE085B94B2C04D911484FF447
:1038B000CF7110F079FD04EB0514240104F18C4460
:1038C00004F598140023636038BD012D01D13B2C11
:1038D000EBE7022D01D12B2CE7E71B2CE5E7052CAC
:1038E000CAD8054BA4001A596FF345121A51EBE7D9
:1038F00050000000DC6A22081C8604240B4A13785E
:103900005178907843EA012310B543EA00400FF064
:10391000CDFF044640B9064B187058801871D88006
:10392000FFF79CFF034B1C6010BD00BF5000000060
:10393000647100006C710000032838B5014622D87C
:10394000124A157885421ED0114C04EBC00304EBDB
:10395000C5045B78D8096378DB0911D028B100234E
:10396000538011701171D38004E053881571D38096
:1039700011705080FFF772FF064B0120186001E0C4
:103980000028EFD138BD0020FCE700BF64710000C3
:10399000906B22086C7100002DE9F041494E3368AC
:1039A000002B75D0013B3360002B71D1464F474D42
:1039B0003B78798815F83320914206D305EBC30391
:1039C0005B78DB0921D000237B803B787A8805EB8C
:1039D000C3035B6803EB82039B78DB076FD5FFF7BC
:1039E0001BFF002841D13A4B93F800805C78B8F176
:1039F000050F14D937484FF49B7110F0D5FC3548AA
:103A00004FF49F7110F0D0FC52E03B793B7005EB16
:103A1000C303FA885B787A80DB09D4D1D5E7B8F1A3
:103A2000030F0FD9B8F1040F40D10B2C04D929484A
:103A300040F23B1110F0B8FC240104F1105404F5DD
:103A4000982410E0B8F1000F24D14B2C04D9214860
:103A50004FF49C7110F0A8FC04EB0814240104F14D
:103A60008C4404F59814012363603A787B8815F838
:103A7000321001290AD005EBC2056A6802EB830205
:103A80005288012A8CBF52080122326001337B80A8
:103A9000BDE8F081B8F1010F01D13B2CD6E7B8F1B8
:103AA000020F01D12B2CD1E71B2CCFE7052CA6D878
:103AB000094BA4001A5942F020021A51D5E7FFF72A
:103AC000CDFED2E76C71000064710000906B22089B
:103AD00050000000DC6A22081C860424543054285C
:103AE0009ABF024B18566FF004007047EF6B220824
:103AF00010B5094C23686BB9012004F080FC2060EC
:103B000040B94FF0140383F31188BFF36F8FBFF3F5
:103B10004F8FFEE710BD00BF70710000F8B50F4673
:103B20001446064668B361B3542005F089FB054688
:103B300050B304F00103A20748BF43F0020314F09E
:103B4000030F18BF0323600748BF43F480732107A6
:103B500048BF43F40063E2060D4848BF43F4806366
:103B60003A4629461CF05AFA044610B935602046F8
:103B7000F8BD284605F03AFC2046BDE8F840FFF7BE
:103B8000ADBF6FF01504F2E76FF00B04EFE700BF75
:103B9000C871000070B5044680B1066876B1314640
:103BA00008481CF057FA0546304605F01FFC002374
:103BB00023602846BDE87040FFF790BF6FF0080013
:103BC00070BD00BFC871000010B513460C4660B14F
:103BD000016851B14CB1074822461CF06BFA031E34
:103BE00005DABDE81040FFF779BF6FF015031846FE
:103BF00010BD00BFC871000010B513460C4660B17F
:103C0000016851B14CB1074822461CF087FA031EE7
:103C100005DABDE81040FFF761BF6FF015031846E5
:103C200010BD00BFC871000010B513460C4668B146
:103C3000016859B1022A0CD8084822461CF086FABD
:103C4000844209D0BDE81040FFF748BF6FF008007C
:103C500010BD6FF01500FBE70020F9E7C871000008
:103C600030B50D46C3B00146F8B1F5B110486A460B
:103C70001CF0B2F9044620B143B0BDE83040FFF774
:103C80002DBFFF2202A928461EF0A0FB019BC5F80C
:103C900000319DF8003085F8FF40013B18BF01233B
:103CA00085F80431204643B030BD6FF01504F9E7C4
:103CB000C871000008B5014630B105481CF05EFA35
:103CC000BDE80840FFF70ABF6FF0150008BD00BF50
:103CD000C871000070B50C460646B8B1B1B13420C9
:103CE00005F0AEFA0546A0B1224601460A481CF08E
:103CF000F5FA044638B1284605F078FB2046BDE8C1
:103D00007040FFF7EBBE3560204670BD6FF01504C4
:103D1000FAE76FF00B04F7E7C871000010B50C4626
:103D2000C2B020B3016811B30CB312486A461CF04C
:103D300037FB031E04DA42B0BDE81040FFF7CEBEE9
:103D400012D0FF2202A920461EF040FB002384F877
:103D5000FF30019BC4F800319DF80030013B18BFD3
:103D6000012384F804310123184642B010BD6FF0DE
:103D70001503F9E7C871000070B5044680B1066804
:103D800076B1314608481CF0FDFA0546304605F08C
:103D90002DFB002323602846BDE87040FFF79EBE40
:103DA0006FF0080070BD00BFC871000038B5044650
:103DB000002847D02549264B4B60264B8B60264B6D
:103DC000CB60264B0B614FF480721023C1E90532A2
:103DD0004FF48052C1E907224FF48062C1E90A23FF
:103DE0001F48C8234B621BF0D5FF054630B30120A6
:103DF000FDF7B0FD98B11B48FDF7CCFDFDF7D8FDF0
:103E00001948FDF7C7FD1948FDF7C4FDFDF700FE91
:103E10001748FDF7BFFD17482946FDF7BBFD0B49C5
:103E20000F481BF041FF18B1BDE83840FFF756BE00
:103E300006490B481BF0AEFF0028F5D1084B636024
:103E4000002038BD6FF01500FBE700BF7471000063
:103E5000ADD72108C9D72108E5D72108FFD7210808
:103E6000C87100002B982208E55F2208F15F220844
:103E7000555E2208C86B220808B540B1016831B10F
:103E800004481CF0FFF8BDE80840FFF727BE6FF0BC
:103E9000080008BDC871000010B5044690B10B4879
:103EA0001CF0C8FA021E03DABDE81040FFF716BE88
:103EB000074BD9691B6AA360C4E900119B1AE36030
:103EC000002010BD6FF01500FBE700BFC8710000B7
:103ED00074710000F8B50C4F044638680D4616465C
:103EE00018B14FF0FF3104F007FC20463246294656
:103EF000FFF782FE0446386820B100231A461946AF
:103F000004F08DF92046F8BD7071000070477047CD
:103F100070B5C4B0054601A8FFF7F8FF294601A80F
:103F2000FFF7D8FE0446002836D1454D454E02A97C
:103F300001A8FFF7F3FE041E64DD9DF80830002B96
:103F400079D0294602A81EF024FB0028EFD0314684
:103F500002A81EF01EFB0028E9D09DF80C31012BB1
:103F60004FF0030034D1FDF7F5FC0028DFD03648D0
:103F7000FDF710FDFDF71CFD3448FDF70BFD34483F
:103F8000FDF708FDFDF744FD3248FDF703FD02A9EA
:103F90003148FDF7FFFCCAE70120FDF7DBFCA0B1CB
:103FA0002948FDF7F7FCFDF703FD2C48FDF7F2FC6F
:103FB0002B48FDF7EFFCFDF72BFD2648FDF7EAFC4B
:103FC000284822462946FDF7E5FC204644B070BD4E
:103FD000FDF7C0FC0028AAD01B48FDF7DBFCFDF76D
:103FE000E7FC1A48FDF7D6FC1948FDF7D3FCFDF7AE
:103FF0000FFD1848FDF7CEFC429A1B4802A9FDF7B9
:10400000C9FC94E717D00120FDF7A4FC98B10E4835
:10401000FDF7C0FCFDF7CCFC1048FDF7BBFC1048D9
:10402000FDF7B8FCFDF7F4FC0A48FDF7B3FC0F48B8
:104030002146FDF7AFFC01A8FFF79EFEC5E700BFD4
:10404000616C2208606C22082B982208405E2208CE
:104050004C5E2208555E2208636C2208E55F220848
:10406000F15F2208446C22086F6C2208886C2208D9
:1040700008B50120FDF76EFCA0B10B48FDF78AFCE6
:10408000FDF796FC0948FDF785FC0948FDF782FC21
:10409000FDF7BEFC0748FDF77DFCBDE8084006487B
:1040A000FDF778BC08BD00BF2B982208E55F220809
:1040B000F15F2208555E2208A16C220830B5C3B01A
:1040C00069460546FFF7CCFD00B32846FFF7F2FD31
:1040D0000446D8B110F1110F18D00120FDF73AFCB9
:1040E000A0B10B48FDF756FCFDF762FC0948FDF74F
:1040F00051FC0948FDF74EFCFDF78AFC0748FDF727
:1041000049FC074822462946FDF744FC43B030BD30
:104110002B982208E55F2208F15F2208555E2208ED
:10412000B56C2208F0B58BB0FFF7E2FC1F48FFF733
:104130003DFED8B10120FDF70DFC90B11C48FDF704
:1041400029FCFDF735FC1B48FDF724FC1A48FDF758
:1041500021FCFDF75DFC1948FDF71CFC1848FDF734
:1041600019FC4FF0FF3420460BB0F0BD06A8FFF756
:1041700093FE044640B30120FDF7ECFB0028F2D08B
:104180000B48FDF707FCFDF713FC0A48FDF702FC9E
:104190000948FDF7FFFBFDF73BFC0848FDF7FAFB7C
:1041A00021460848FDF7F6FBDDE700BF540000009C
:1041B0002B982208E55F2208F15F2208555E22084D
:1041C000D96C2208F66C22080320FDF7C3FBB0B1BE
:1041D000BA48FDF7DFFBFDF7EBFBB948FDF7DAFB6B
:1041E000B848FDF7D7FBFDF713FCB748FDF7D2FB46
:1041F000DDE907315943B548890AFDF7CBFB0320B8
:10420000FDF7A8FBB0B1AD48FDF7C4FBFDF7D0FB4F
:10421000AB48FDF7BFFBAB48FDF7BCFBFDF7F8FB78
:10422000A948FDF7B7FB0999079BA9485943890A93
:10423000FDF7B0FB0320DDE90856FDF78BFB30B33B
:104240009E48FDF7A7FBFDF7B3FB9D48FDF7A2FBDA
:104250009C48FDF79FFBFDF7DBFB9B48FDF79AFBB6
:10426000A81B1CF047FA9B4B00221CF0BDFA064627
:1042700028460F461CF03EFA02460B4630463946A9
:104280001CF0DCFB02460B469348FDF783FB934B87
:104290001868FFF713FF00F06DFC9148FFF70EFF61
:1042A0009048FFF70BFF9048FFF708FF8F48FFF794
:1042B00005FF8F49062201A8FFF730FC38B98D4968
:1042C000192201A8FFF798FC01A8FFF763FC8A49AF
:1042D000062202A8FFF722FC38B98849152202A855
:1042E000FFF78AFC02A8FFF755FC8549062203A8C0
:1042F000FFF714FC38B98349232203A8FFF77CFC9D
:1043000003A8FFF747FC8049062204A8FFF706FC34
:1043100048B97E4B0593042205A904A8FFF76CFC5D
:1043200004A8FFF737FC0320FDF714FB90B16348A6
:10433000FDF730FBFDF73CFB6148FDF72BFB6148C7
:10434000FDF728FBFDF764FB5F48FDF723FB704892
:10435000FDF720FB6F48FFF7DBFD051E18DA012093
:10436000FDF7F8FAA0B15548FDF714FBFDF720FB67
:104370006948FDF70FFB6948FDF70CFBFDF748FBAB
:104380005148FDF707FB634965482A46FDF702FBE4
:104390000320FDF7DFFA90B14848FDF7FBFAFDF77F
:1043A00007FB4748FDF7F6FA4648FDF7F3FAFDF735
:1043B0002FFB4548FDF7EEFA5548FDF7EBFA0320D1
:1043C000FDF7C8FA90B13D48FDF7E4FAFDF7F0FAC1
:1043D0003B48FDF7DFFA3B48FDF7DCFAFDF718FB39
:1043E0003948FDF7D7FA4F48FDF7D4FA0320FDF717
:1043F000B1FA90B13148FDF7CDFAFDF7D9FA30485E
:10440000FDF7C8FA2F48FDF7C5FAFDF701FB2E4866
:10441000FDF7C0FA4448FDF7BDFA3148FFF778FDD3
:10442000051E17DA0120FDF795FA98B12348FDF72C
:10443000B1FAFDF7BDFA3848FDF7ACFA3748FDF799
:10444000A9FAFDF7E5FA2048FDF7A4FA374829460E
:10445000FDF7A0FA0320FDF77DFA90B11748FDF7AC
:1044600099FAFDF7A5FA1648FDF794FA1548FDF7F5
:1044700091FAFDF7CDFA1448FDF78CFA2948FDF7BB
:1044800089FA0320FDF766FA90B10C48FDF782FA2D
:10449000FDF78EFA0A48FDF77DFA0A48FDF77AFA29
:1044A000FDF7B6FA0848FDF775FA2148FDF772FAEC
:1044B0000E48FFF72DFD051E3CE000BF2B9822089B
:1044C000405E22084C5E2208555E2208206D2208BC
:1044D000366D2208000059404B6D22085400000040
:1044E000686D2208746D22087E6D2208886D22088E
:1044F000996D2208AC6D2208C66D2208DF6D220876
:10450000F56D22080A6E22082E6E220889504E4749
:10451000496E2208746E2208E55F2208F15F2208C6
:10452000796E22088E6E2208B96E2208D56E220896
:10453000EE6E220817DA0120FDF70CFA98B1174841
:10454000FDF728FAFDF734FA1548FDF723FA154868
:10455000FDF720FAFDF75CFA1348FDF71BFA134844
:104560002946FDF717FA0320FDF7F4F900283FF478
:10457000FAAD0A48FDF70EFAFDF71AFA0C48FDF7F6
:1045800009FA0C48FDF706FAFDF742FA0648FDF76E
:1045900001FA0948FDF7FEF9E5E500BF2B9822086E
:1045A000E55F2208F15F2208555E22080F6F22089E
:1045B000405E22084C5E22088E6E2208F7B52E4E11
:1045C0003468002C1BDD0120FDF7C4F998B12B489D
:1045D000FDF7E0F9FDF7ECF92948FDF7DBF929488B
:1045E000FDF7D8F9FDF714FA2748FDF7D3F931683C
:1045F0002648FDF7CFF90025284603B0F0BD244F2B
:1046000000904FF403735C43224B234A1B68E51967
:1046100004F500744FF480713C4428461DF0EAFC18
:1046200000232046A5F80832FFF771FC2046072238
:104630002946FFF773FA041E1ADA0120FDF78AF9FA
:104640000028D8D00D48FDF7A5F9FDF7B1F90C48C1
:10465000FDF7A0F90B48FDF79DF9FDF7D9F90A48D8
:10466000FDF798F9224629460C48FDF793F9C2E771
:10467000336801333360BFE7487200002B9822088B
:10468000E55F2208F15F2208555E22082D6F22089F
:104690004C72000054000000506F22085A6F22082C
:1046A00070B500F5007605463046FFF7E5FB044699
:1046B0000320FDF74FF998B11C48FDF76BF9FDF7A2
:1046C00077F91B48FDF766F91A48FDF763F9FDF71E
:1046D0009FF91948FDF75EF918482146FDF75AF988
:1046E0003046FFF757FA041E1ADA0120FDF732F9B7
:1046F000A0B10E48FDF74EF9FDF75AF91048FDF745
:1047000049F91048FDF746F9FDF782F90A48FDF727
:1047100041F90D4822462946FDF73CF9204670BD77
:104720000A4A1368013B13600024F7E72B9822081C
:10473000405E22084C5E2208555E22086E6F2208F9
:10474000E55F2208F15F22088A6F220848720000A4
:1047500084B038B5044605A880E80E000146BC22A6
:1047600004F50070FFF748FA051E20DA0120FDF776
:10477000F1F8A0B10F48FDF70DF9FDF719F90E4852
:10478000FDF708F90D48FDF705F9FDF741F90C486B
:10479000FDF700F90B482A462146FDF7FBF8FFF725
:1047A00067FC4FF0FF30BDE8384004B07047002090
:1047B000F9E700BF2B982208E55F2208F15F220885
:1047C000555E22089F6F220810B5ADF5047D324B6F
:1047D00000901B68314A4FF48071044602A81DF016
:1047E00009FC42A902A8FFF73BFA002839DB0420A4
:1047F000FDF7B0F8A0B12A48FDF7CCF8FDF7D8F8DE
:104800002848FDF7C7F82848FDF7C4F8FDF700F978
:104810002648FDF7BFF8829A254842A9FDF7BAF865
:104820000420829CBC23B4FBF3F4FDF793F8A0B101
:104830001B48FDF7AFF8FDF7BBF81A48FDF7AAF8DB
:104840001948FDF7A7F8FDF7E3F81848FDF7A2F8B7
:104850001848224602A9FDF79DF820460DF5047D73
:1048600010BD0120FDF776F898B10D48FDF792F8DC
:10487000FDF79EF81048FDF78DF81048FDF78AF80F
:10488000FDF7C6F80948FDF785F80D482146FDF704
:1048900081F84FF0FF34E0E754000000506F220829
:1048A0002B9822086A68220876682208555E22083A
:1048B000B46F2208D76F2208E55F2208F15F220853
:1048C000C66F220810B5ADF5047D324B00901B6811
:1048D000314A4FF48071044602A81DF08BFB42A9B7
:1048E00002A8FFF7BDF9002839DB0420FDF732F8F4
:1048F000A0B12A48FDF74EF8FDF75AF82848FDF711
:1049000049F82848FDF746F8FDF782F82648FDF7F4
:1049100041F8829A254842A9FDF73CF80420829C80
:104920002623B4FBF3F4FDF715F8A0B11B48FDF7FF
:1049300031F8FDF73DF81A48FDF72CF81948FDF756
:1049400029F8FDF765F81848FDF724F818482246BD
:1049500002A9FDF71FF820460DF5047D10BD0120CA
:10496000FCF7F8FF98B10D48FDF714F8FDF720F8B3
:104970001048FDF70FF81048FDF70CF8FDF748F860
:104980000948FDF707F80D482146FDF703F84FF0F9
:10499000FF34E0E7540000003B7022082B98220807
:1049A0006A68220876682208555E2208B46F2208D9
:1049B000D76F2208E55F2208F15F2208C66F220840
:1049C0002DE9F041C4B05E4B00901B6806460D46D1
:1049D00017464FF480715B4A04A81DF00BFB03A837
:1049E000FFF795FA032204A903A8FFF797F8041E1E
:1049F0001CDA0120FCF7AEFFA0B15348FCF7CAFF58
:104A0000FCF7D6FF5148FCF7C5FF5148FCF7C2FF41
:104A1000FCF7FEFF4F48FCF7BDFF4F48224604A9B4
:104A2000FCF7B8FF204644B0BDE8F0814FF02608FF
:104A3000002208FB05F103A8FFF7F6F8041E18DAB8
:104A40000120FCF787FF0028ECD03F48FCF7A2FFCD
:104A5000FCF7AEFF3D48FCF79DFF3D48FCF79AFF91
:104A6000FCF7D6FF3B48FCF795FF3C48224604A9DB
:104A7000D6E74246394603A8FFF7A6F80446E8B150
:104A800025281BDC0120FCF765FFA0B12E48FCF7B0
:104A900081FFFCF78DFF2D48FCF77CFF2C48FCF7CD
:104AA00079FFFCF7B5FF2B48FCF774FF2C48224632
:104AB00004A9FCF76FFF4FF0FF34B3E703A8FFF73B
:104AC00069F8041E18DA0120FCF744FF0028F2D030
:104AD0001D48FCF75FFFFCF76BFF1C48FCF75AFF13
:104AE0001B48FCF757FFFCF793FF1A48FCF752FFEF
:104AF0001C48224604A9DCE73046FFF7E3FE0138F4
:104B0000A84201D000248DE70320FCF723FF0028F2
:104B1000F8D00D48FCF73EFFFCF74AFF1248FCF7BF
:104B200039FF1248FCF736FFFCF772FF0948FCF723
:104B300031FF04AA29460E48FCF72CFFE2E700BF2C
:104B4000540000003B7022082B982208E55F2208E1
:104B5000F15F2208555E22085A6F2208E86F22088A
:104B6000FC6F22088A6F2208405E22084C5E2208F1
:104B70001570220810B5C2B016486946FFF770F8E4
:104B800018B90024204642B010BD1248FFF792F831
:104B900004460028F5D010F1110FF2D00120FCF7E7
:104BA000D9FE0028EED00C48FCF7F4FEFCF700FF1D
:104BB0000A48FCF7EFFE0A48FCF7ECFEFCF728FF7A
:104BC0000848FCF7E7FE034907482246FCF7E2FEE7
:104BD000D8E700BF5A7022082B982208E55F220808
:104BE000F15F2208555E2208B56C2208F0B5C3B00B
:104BF000034605460E4617464FF480713A4A02A80E
:104C00001DF0F8F9012202A901A8FEF787FF831C15
:104C100004462BD1072202A901A8FEF77FFF044614
:104C2000C8B10120FCF796FEE8B13048FCF7B2FEAF
:104C3000FCF7BEFE2E48FCF7ADFE2E48FCF7AAFEA0
:104C4000FCF7E6FE2C48FCF7A5FE2C482246294638
:104C5000FCF7A0FE07E001A8FEF79CFF3A462146BC
:104C600030461DF08DFB204643B0F0BDC0B10120A1
:104C7000FCF770FE0028F6D01C48FCF78BFEFCF712
:104C800097FE1B48FCF786FE1A48FCF783FEFCF7EC
:104C9000BFFE1948FCF77EFE194822462946D7E791
:104CA0003A46314601A8FEF78FFF041E18DA0120AC
:104CB000FCF750FEA0B10D48FCF76CFEFCF778FE47
:104CC0000B48FCF767FE0B48FCF764FEFCF7A0FE00
:104CD0000948FCF75FFE0B4822462946FCF75AFEBE
:104CE00001A8FEF757FFBEE7667022082B9822083E
:104CF000E55F2208F15F2208555E22087E702208D7
:104D0000AD702208DA702208F0B5C3B0034605463C
:104D10000E4617464FF48071274A02A81DF06AF923
:104D2000062202A901A8FEF7F9FE0446D8B1012027
:104D3000FCF710FEA0B12148FCF72CFEFCF738FE72
:104D40001F48FCF727FE1F48FCF724FEFCF760FE17
:104D50001D48FCF71FFE1D4822462946FCF71AFE97
:104D6000204643B0F0BD3A46314601A8FFF7B2F8FD
:104D7000041E1CDA0120FCF7EDFDA0B10F48FCF782
:104D800009FEFCF715FE0E48FCF704FE0D48FCF783
:104D900001FEFCF73DFE0C48FCF7FCFD0C482246EA
:104DA0002946FCF7F7FD01A8FEF7F4FED8E701A8B5
:104DB000FFF762F8F7E700BF667022082B98220819
:104DC000E55F2208F15F2208555E2208F87022088C
:104DD000287122081FB51022002168461DF0D0FA64
:104DE000102269460320FFF701FF184B009A9A42F0
:104DF0000FD0002200937023CDE9022369460A23D5
:104E0000102203208DF80430FFF77EFF05B05DF817
:104E100004FB0320FCF79EFD0028F7D00C48FCF7AC
:104E2000B9FDFCF7C5FD0B48FCF7B4FD0A48FCF7DB
:104E3000B1FDFCF7EDFD0948FCF7ACFD9DF8043031
:104E4000039A00990648FCF7A5FDDFE755434D415D
:104E50002B982208405E22084C5E2208555E2208EC
:104E60004771220884B070B5ACB030AC84E80F0054
:104E70000A223F4CB1FBF2F502FB151539B93D4A48
:104E8000116030980021FCF739FD606001E0002DD1
:104E9000F7D0122303FB0543BDF8C8201A81BDF8E3
:104EA000CA205A81BDF8CC209A81DDF8CE20C3F803
:104EB0000E20DDF8D220C3F81220DDF8D620C3F88A
:104EC00016202D4B2D4A05FB0333B2EB730F05D291
:104ED00000202CB0BDE8704004B07047254A13682C
:104EE0002360032001331360FCF734FD98B124489C
:104EF000FCF750FDFCF75CFD2248FCF74BFD224817
:104F0000FCF748FDFCF784FD2048FCF743FD2168D1
:104F10001F48FCF73FFD1F4926686568A468B0225A
:104F200068461DF09DFB1C482346006831462A4612
:104F3000FFF70EFC04460028CAD00120FCF70AFD4A
:104F400098B10F48FCF726FDFCF732FD1348FCF73B
:104F500021FD1348FCF71EFDFCF75AFD0B48FCF73A
:104F600019FD10482146FCF715FD4FF0FF30B0E762
:104F70005874000014750000CDCCCCCC99999919C7
:104F80002B982208405E22084C5E2208555E2208BB
:104F900084712208647400002C750000E55F22080B
:104FA000F15F22089D71220884B01FB50DF1180C25
:104FB0008CE80F000AAA07CA6B4603C31A809CE854
:104FC0000F00FFF74FFF05B05DF804EB04B070472A
:104FD000012970B5044673D1FFF7F0FA05460420A5
:104FE000FCF7B8FC98B15F48FCF7D4FCFCF7E0FC98
:104FF0005D48FCF7CFFC5D48FCF7CCFCFCF708FDF6
:105000005B48FCF7C7FC5B482946FCF7C3FCCDB9FD
:105010000120FCF79FFC002835D05248FCF7BAFC71
:10502000FCF7C6FC5448FCF7B5FC5448FCF7B2FC4E
:10503000FCF7EEFC4E48FCF7ADFC51482146FCF76E
:10504000A9FC20E04F4E504935600F2000F0C4FB12
:10505000E0B10120FCF77EFC90B14248FCF79AFCDD
:10506000FCF7A6FC4448FCF795FC4448FCF792FC8E
:10507000FCF7CEFC3E48FCF78DFC4448FCF78AFC6C
:105080003068FFF70DFB4FF0FF3018E00320FCF70E
:1050900061FC98B13348FCF77DFCFCF789FC3C4887
:1050A000FCF778FC3B48FCF775FCFCF7B1FC30489A
:1050B000FCF770FC38482146FCF76CFC002070BD02
:1050C0000320FCF747FC90B12648FCF763FCFCF793
:1050D0006FFC2F48FCF75EFC2E48FCF75BFCFCF7EE
:1050E00097FC2348FCF756FC2C48FCF753FC0021A6
:1050F000084600F071FB0320FCF72CFC90B1194826
:10510000FCF748FCFCF754FC2148FCF743FC214821
:10511000FCF740FCFCF77CFC1548FCF73BFC204806
:10512000FCF738FC174D2868FFF7BAFAB8B1012030
:10513000FCF710FC0028A6D00A48FCF72BFCFCF773
:1051400037FC0D48FCF726FC0C48FCF723FCFCF769
:105150005FFC0748FCF71EFC124821466FE72860F9
:10516000ACE700BF2B9822086A68220876682208FC
:10517000555E2208C2712208E55F2208F15F22080D
:10518000CF7122082C750000A95F2008E871220861
:10519000405E22084C5E2208FF712208307222080D
:1051A00042722208507222082DE9F341384EDFF88E
:1051B00010810446051D00F10C0715F8012F30463B
:1051C00041461CF04BFFBD4206F10206F5D12379A2
:1051D000002B54D02F4B1B68BBB92F4B01221A70E8
:1051E00011232E4A002406216846CDE900248DF8BB
:1051F0000430FCF789FB0821ADF806006846FDF78E
:1052000083FC204602B0BDE8F0810220FCF7A2FB3F
:1052100090B12348FCF7BEFBFCF7CAFB2148FCF722
:10522000B9FB2148FCF7B6FBFCF7F2FB1F48FCF783
:10523000B1FB1F48FCF7AEFB1E4D1F480021FFF7D6
:10524000C7FE2B78C3B10220FCF784FB90B1144851
:10525000FCF7A0FBFCF7ACFB1248FCF79BFB1248E9
:10526000FCF798FBFCF7D4FB1048FCF793FB1348C2
:10527000FCF790FB00232B702379002BADD1044861
:105280000021FFF7A5FE0028AAD01A23A9E700BF36
:105290001A7500002C750000197500000208F21044
:1052A0002B9822086A72220876722208555E22081C
:1052B00082722208187500009C5E2208B6722208CD
:1052C000636522082DE9F0438BB0044600210D22CE
:1052D00001A800911DF054F86D46DFF8D490E61C4B
:1052E00004F10B082F4616F8012F284649461CF0FA
:1052F000B5FE464505F10205F5D1254B1B68D3B136
:105300000220FCF727FB90B12248FCF743FBFCF797
:105310004FFB2148FCF73EFB2048FCF73BFBFCF72A
:1053200077FB1F48FCF736FB1E48FCF733FB1E4893
:105330000021FFF74DFE3846FFF746FA05B2002D73
:105340004FF00D02194B05934FF0000106A8BABFAC
:105350000025122611261DF013F86368CDF81930C8
:10536000A8B2A368CDF81D30FCF7C2FA0F21ADF842
:10537000210005A88DF81860FCF7C6FA1121ADF8D8
:10538000230005A8FDF7C0FB00200BB0BDE8F083AB
:105390002C7500002B9822086A7222087672220867
:1053A000555E2208D57222089C5E22080211F21175
:1053B000636522082DE9F04304469BB0B0F80F0066
:1053C000DFF81C91FCF797FA002105460D2201A891
:1053D00000911CF0D5FF6E4604F1030837460B34EC
:1053E00018F8012F304649461CF038FEA04506F15A
:1053F0000206F5D10420FCF7ADFAA0B13048FCF765
:10540000C9FAFCF7D5FA2F48FCF7C4FA2E48FCF786
:10541000C1FAFCF7FDFA2D48FCF7BCFA2C483A46D5
:105420002946FCF7B7FA2622002105A81CF0A8FFA0
:1054300005AA29463846FFF7C3FA00281DDA0120DD
:10544000FCF788FAA0B11E48FCF7A4FAFCF7B0FA02
:105450002048FCF79FFA2048FCF79CFAFCF7D8FAA2
:105460001A48FCF797FA1D483A462946FCF792FA83
:105470004FF0FF301BB0BDE8F0830023ADF8633080
:1054800002238DF83C300DF13D0205AB0DAD1C46FD
:1054900003CCAC4210605160234602F10802F6D101
:1054A00020681060A388938027210FA8FCF72CFAAE
:1054B0002921ADF863000FA8FDF726FB0020D9E7EE
:1054C0002B9822086A68220876682208555E22080E
:1054D000F1722208E55F2208F15F220811732208A9
:1054E000636522082DE9F0438BB0044600210D22AC
:1054F00001A800911CF044FF6D46DFF8D490E61C33
:1055000004F10B082F4616F8012F284649461CF0D7
:10551000A5FD464505F10205F5D1254B1B68D3B124
:105520000220FCF717FA90B12248FCF733FAFCF797
:105530003FFA2148FCF72EFA2048FCF72BFAFCF73B
:1055400067FA1F48FCF726FA1E48FCF723FA1E48A4
:105550000021FFF73DFD3846FFF7B4F905B2002DF5
:105560004FF00D02194B05934FF0000106A8BABF8A
:105570000025122611261CF003FF6368CDF81930B0
:10558000A8B2A368CDF81D30FCF7B2F90F21ADF831
:10559000210005A88DF81860FCF7B6F91121ADF8C7
:1055A000230005A8FDF7B0FA00200BB0BDE8F0839A
:1055B0002C7500002B9822086A7222087672220845
:1055C000555E2208D57222089C5E22080211F21351
:1055D000636522082DE9F04304469BB0B0F80F0044
:1055E000DFF81C91FCF787F9002105460D2201A880
:1055F00000911CF0C5FE6E4604F1030837460B34DB
:1056000018F8012F304649461CF028FDA04506F148
:105610000206F5D10420FCF79DF9A0B13048FCF753
:10562000B9F9FCF7C5F92F48FCF7B4F92E48FCF797
:10563000B1F9FCF7EDF92D48FCF7ACF92C483A46E6
:105640002946FCF7A7F92622002105A81CF098FEA0
:1056500005AA29463846FFF7B3F900281DDA0120CC
:10566000FCF778F9A0B11E48FCF794F9FCF7A0F913
:105670002048FCF78FF92048FCF78CF9FCF7C8F9B3
:105680001A48FCF787F91D483A462946FCF782F983
:105690004FF0FF301BB0BDE8F0830023ADF863305E
:1056A00002238DF83C300DF13D0205AB0DAD1C46DB
:1056B00003CCAC4210605160234602F10802F6D1DF
:1056C00020681060A388938027210FA8FCF71CF99D
:1056D0002921ADF863000FA8FDF716FA0020D9E7DD
:1056E0002B9822086A68220876682208555E2208EC
:1056F000F1722208E55F2208F15F22081173220887
:1057000063652208F0B593B01FF07AFB284F294C4F
:10571000294D05903B78FBB90420FCF71BF990B1AB
:105720002648FCF737F9FCF743F92548FCF732F92E
:105730002448FCF72FF9FCF76BF92348FCF72AF90A
:105740002248FCF727F9224B0020206028601860CF
:105750001FF02AFB13B0F0BDFCF792F823680B9002
:1057600008A906A80C9300F015FABDF91C30ADF895
:105770003830089BCDF83A302E68099B069ACDF850
:105780003E300A9B0D92CDF8423046B112AA12E982
:1057900007006B4603C31A800BAB0FCBB0472368DF
:1057A000013323600B4B05A819681FF035FBB1E7E7
:1057B000347500003C750000407500002B982208ED
:1057C0006A68220876682208555E22083E7322081D
:1057D00038750000307500002DE9F341384CDFF8D2
:1057E000188123680F46054678BB3BB3354B1870CC
:1057F000354B186840000A2838BF0A2001F0B5FF71
:105800002368DBB10420FCF7A5F890B12F48FCF722
:10581000C1F8FCF7CDF82E48FCF7BCF82D48FCF792
:10582000B9F8FCF7F5F82C48FCF7B4F82B48FCF76E
:10583000B1F820681FF0B8FA002323600023C8F8ED
:105840000030002002B0BDE8F0811E4E23B10023DD
:105850000A20337001F089FF1B4AC8F800704FF42A
:105860007A73B3FBF5F313601D4A1E491E480023EB
:10587000136001251A223570009201944FF40072D2
:105880001FF06AFAA842DCD02846FCF763F890B112
:105890000E48FCF77FF8FCF78BF81448FCF77AF811
:1058A0001348FCF777F8FCF7B3F80B48FCF772F8ED
:1058B0001048FCF76FF8002333704FF0FF30C1E75A
:1058C0003875000034750000307500002B982208F0
:1058D0006A68220876682208555E22083873220812
:1058E0003C7500005A73220805672008E55F22080E
:1058F000F15F2208667322084075000073B5044604
:105900006B46002845D1334A92E8030083E8030040
:10591000E6B2194630460EF075FA0546002840D02A
:105920000120FCF717F898B12B48FCF733F8FCF787
:105930003FF82A48FCF72EF82948FCF72BF8FCF72B
:1059400067F82848FCF726F827482946FCF722F88C
:105950000022114630460EF0F5FA0446B8B1012097
:10596000FBF7F8FF98B11C48FCF714F8FCF720F897
:105970001A48FCF70FF81A48FCF70CF8FCF748F83F
:105980001848FCF707F819482146FCF703F802B05D
:1059900070BD012801D1164AB6E70228B8D1154AD0
:1059A000B2E70420FBF7D6FF0028D1D00A48FBF766
:1059B000F1FFFBF7FDFF1048FBF7ECFF0F48FBF78B
:1059C000E9FFFCF725F80748FBF7E4FF0C48214600
:1059D000BCE700BF480000002B982208E55F2208C2
:1059E000F15F2208555E22088A7322080374220898
:1059F00040000000380000006A682208766822082B
:105A0000C6732208F8B500AF0D46BA8B02F1080143
:105A10000446C9086846A0EBC1018D466846561C7D
:105A200000F8013BB9691CF01BFE204633466A466C
:105A3000A9B20EF0A1FA0446C0B10120FBF78AFF1B
:105A400098B10B48FBF7A6FFFBF7B2FF0948FBF73D
:105A5000A1FF0948FBF79EFFFBF7DAFF0748FBF7BA
:105A600099FF07482146FBF795FF0920BD46F8BD81
:105A70002B982208E55F2208F15F2208555E220874
:105A80005374220830B587B08AB28DF8043001AB68
:105A900002930A9B04930125BDF82C30039502A9BB
:105AA00005930EF069FB0446C0B12846FBF752FF90
:105AB00098B10B48FBF76EFFFBF77AFF0948FBF73D
:105AC00069FF0948FBF766FFFBF7A2FF0748FBF7F2
:105AD00061FF07482146FBF75DFF092007B030BD95
:105AE0002B982208E55F2208F15F2208555E220804
:105AF0009D74220880B201F035BCFFF7FBBF0000A7
:105B000008B50120FBF726FF98B10B48FBF742FFD1
:105B1000FBF74EFF0948FBF73DFF0948FBF73AFF4B
:105B2000FBF776FF0748FBF735FF07480121FBF736
:105B300031FF012008BD00BF2B982208E55F220835
:105B4000F15F2208555E22089D74220807B5CDE951
:105B500000230B4602466A210120FFF793FF20B184
:105B600003B05DF804EBFFF7CBBF03B05DF804FBB7
:105B700007B5CDE900230B4602466A210120FFF755
:105B800041FF20B103B05DF804EBFFF7B9BF03B0EC
:105B90005DF804FB7FB505460C46454801A900F0B9
:105BA0006CFA0646002876D10146FBF775FD9DF894
:105BB0000430DA072ED502A93D480296ADF80C60F4
:105BC00000F08DFABDF908003A4E00F035F91FF0EB
:105BD00067F807EE900AFDEEE77ABDF90A0017EEC6
:105BE000903A338000F028F91FF05AF807EE900A37
:105BF000FDEEE77ABDF90C0017EE903A738000F0E5
:105C00001BF91FF04DF807EE900AFDEEE77A17EE4C
:105C1000903AB3809DF804309B072CD5002302A94D
:105C200023480293ADF80C3000F03AFABDF90800B1
:105C3000214E00F00FF91FF033F807EE900AFDEE49
:105C4000E77ABDF90A00C6ED007A00F003F91FF00B
:105C500027F807EE900AFDEEE77ABDF90C00C6EDD5
:105C6000017A00F0F7F81FF01BF807EE900AFDEE3E
:105C7000E77AC6ED027A35B10E4B1A882A805A8827
:105C80009B886A80AB808CB10B4B1A6822605A6883
:105C900062609B6809E001210020FBF7FDFC002306
:105CA0002B806B80AB80C4E90033A36004B070BD6F
:105CB0005C750000547500004875000037B5444C11
:105CC000444B2360444B6360444BA3600A20002391
:105CD000E360FFF70FFF0DF10601204600F024F905
:105CE0000320FBF737FEA0B13D48FBF753FEFBF75F
:105CF0005FFE3C48FBF74EFE3B48FBF74BFEFBF7D5
:105D000087FE3A48FBF746FE9DF806103848FBF739
:105D100041FE9DF80630702B18D00120FBF71AFECB
:105D200090B12F48FBF736FEFBF742FE3148FBF7F8
:105D300031FE3148FBF72EFEFBF76AFE2B48FBF7DE
:105D400029FE2E48FBF726FE03B030BD0021084691
:105D5000FBF7A2FC1E481E4D042100F089F80DF14E
:105D60000701284600F0B7F89DF80740002CF6D14F
:105D70000121174800F03CF90321154800F0DBF839
:105D80000321134800F005F92146114800F05EF99F
:105D900004210F4800F043F9194B0D48197821F000
:105DA0000D0141F00D01197000F0B8F9012108480A
:105DB00000F017FA2146064800F0FCF901210448DA
:105DC00000F03DFA0421024800F022FABCE700BFCF
:105DD0005C750000716B20084D6B2008FB6A200881
:105DE0002B982208405E22084C5E2208555E22084D
:105DF000EA742208E55F2208F15F22080475220890
:105E00004475000010B428B14468C068A4465DF829
:105E1000044B60474FF0FF305DF8044B704710B4FF
:105E200028B10468C068A4465DF8044B60474FF091
:105E3000FF305DF8044B704707EE900A9FED047A3F
:105E4000F8EEE77A67EE877A17EE900A704700BFA0
:105E500023DB793D07EE900A9FED047AF8EEE77AAE
:105E600067EE877A17EE900A704700BF00008C42F9
:105E700073B5012301AA0E4612210546FFF7C2FFA2
:105E8000012304466A4619462846FFF7BBFF20183F
:105E90001FD1B208C6F3400343EAC2139DF80420A1
:105EA00002F07E0213438DF804309DF8003066F353
:105EB00082038DF8003001AA012312212846FFF742
:105EC000AEFF012304466A4619462846FFF7A7FF9E
:105ED000204402B070BD73B5012301AA0D46122102
:105EE0000646FFF78FFF012304466A4619463046EF
:105EF000FFF788FF201812D19DF8043003F001024B
:105F0000DB095B0003EB82039DF80020C2F38002F3
:105F10001344022B06D0042B04D013B9287002B00E
:105F200070BD01232B70FAE708B50A4601230F2143
:105F3000FFF768FF08BD73B501230D466A461021BF
:105F40000646FFF75FFF10BB9DF8003065F30303C3
:105F50008DF800306A46012310213046FFF75FFFBD
:105F6000A8B92D0913D0012301AA62213046FFF7F9
:105F700049FF9DF8043065F3010304468DF80430B1
:105F800001AA012362213046FFF749FF204402B0F5
:105F900070BD73B501230D466A4611210646FFF711
:105FA00031FF9DF8003065F3030304468DF800309F
:105FB0006A46012311213046FFF731FF201815D121
:105FC0002D0913D0012301AA62213046FFF71AFFE1
:105FD0009DF8043065F3010304468DF8043001AAEE
:105FE000012362213046FFF71AFF204402B070BD42
:105FF00037B501230D4601AA12210446FFF702FF1F
:1060000058B99DF8043065F386138DF8043001AA61
:10601000012312212046FFF702FF03B030BD37B540
:1060200001230D4601AA15210446FFF7EBFE58B9DE
:106030009DF8043065F303038DF8043001AA0123B1
:1060400015212046FFF7EBFE03B030BD37B5012325
:106050000D4601AA17210446FFF7D4FE58B99DF852
:10606000043065F301038DF8043001AA01231721E0
:106070002046FFF7D4FE03B030BD13B501230C4614
:1060800001AA1E21FFF7BEFE40B923789DF8042027
:1060900023F0070302F007021343237002B010BD80
:1060A00013B506230C466A462221FFF7ABFEA0B9C2
:1060B0009DF801209DF8003003EB022323809DF81A
:1060C00003209DF8023003EB022363809DF8052036
:1060D0009DF8043003EB0223A38002B010BD13B57A
:1060E00006230C466A462821FFF78CFEA0B99DF8CE
:1060F00001209DF8003003EB022323809DF803204C
:106100009DF8023003EB022363809DF805209DF883
:10611000043003EB0223A38002B010BD7FB50D460F
:10612000012303AA13210646FFF76CFE9DF80C30ED
:1061300065F3C30304468DF80C3003AA0123132131
:106140003046FFF76CFE201832D1012301AA6321EB
:106150003046FFF757FEC5F38003C5F3C0021B01AD
:1061600043EA42139DF8042022F030021343044610
:106170008DF8043001AA012363213046FFF74FFE5A
:10618000201815D1012302AA6F213046FFF73AFEED
:106190009DF80830C5F3400565F3861304468DF875
:1061A000083002AA01236F213046FFF738FE204451
:1061B00004B070BD37B501230D4601AA1521044670
:1061C000FFF720FE58B99DF8043065F306138DF8EB
:1061D000043001AA012315212046FFF720FE03B059
:1061E00030BD37B501230D4601AA16210446FFF73D
:1061F00009FE58B99DF8043065F300038DF80430AA
:1062000001AA012316212046FFF709FE03B030BD85
:1062100037B501230D4601AA17210446FFF7F2FD09
:1062200058B99DF8043065F347138DF8043001AA7E
:10623000012317212046FFF7F2FD03B030BD37B52B
:1062400001230D4601AA18210446FFF7DBFD58B9CA
:106250009DF8043065F3C3038DF8043001AA0123CF
:1062600018212046FFF7DBFD03B030BD82B00023CC
:106270000193019BB3F57A6F01DB02B07047019B7C
:106280000133F5E70348002300681A46194601F078
:10629000C6BF00BFD4850000024B4FF0FF31186825
:1062A00002F02ABAD48500002DE9F041069FDFF8FC
:1062B000E0802E481D46002388F800300068D3197E
:1062C00016462B4A0DF0C6FC044620B10120FBF710
:1062D00041FB30B90224274B4FF0E0224FF08051B0
:1062E00019E02548FBF756FBFBF762FB2348FBF759
:1062F00051FB2348FBF74EFBFBF78AFB2148FBF7DA
:1063000049FB2148FBF746FBE4E7C2F8041DBFF355
:106310004F8FBFF36F8F98F80000D8B9013BF4D1CD
:106320000120FBF717FB90B11348FBF733FBFBF79A
:106330003FFB1248FBF72EFB1148FBF72BFBFBF74B
:1063400067FB1048FBF726FB1048FBF723FB0420F4
:10635000BDE8F08135B12FB105493A4631442846B0
:106360001CF07EF9201E18BF0120F1E73C630100FC
:106370006C75000041420F002B982208E55F22084F
:10638000F15F2208555E220819752208347522082B
:106390003963010010B50446012002F030F8144BB7
:1063A0001860B8B90120FBF7D5FA90B11148FBF796
:1063B000F1FAFBF7FDFA1048FBF7ECFA0F48FBF790
:1063C000E9FAFBF725FB0E48FBF7E4FA0D48FBF76B
:1063D000E1FAFEE763684BB90B4B63620B4BA362B8
:1063E0000B4BE3620B4BA3630B4BE363002010BD2D
:1063F000D48500002B982208E55F2208F15F22086F
:10640000555E220850752208A9722008997220084A
:10641000857220086D722008C02709000FB437B5B7
:1064200006AB114C53F8045B0193FBF7C1FA0F481C
:10643000FBF7B0FA0E48FBF7ADFA0E48FBF7AAFAE5
:106440000D48FBF7A7FA019B2A464FF480712046BE
:106450001BF0CAFE21460948FBF79CFA03B0BDE8D1
:10646000304004B0704700BFD8850000405E22086D
:106470004C5E220888752208555E22086266220852
:1064800000B9FEE790F835300333DBB2013BDB00A7
:10649000013A21FA03F0083B13F1080F02F8010F4B
:1064A000F7D1704700487047600000001FB5052213
:1064B0000B468DF80F2000B9FEE701B9FEE7012277
:1064C0000092446A0DF10F012030A04704B010BDC6
:1064D00037B5C56B04460DF107012046FFF7E6FF0F
:1064E0009DF8073003F00103034313F0FF0009D0C8
:1064F000A36B1DB103B19847013DECE70248FFF7DC
:106500008DFF042003B030BD8F752208F0B505461D
:1065100085B000B9FEE766238DF80C3000230093A8
:1065200000F12006446A012203A93046A047044630
:1065300078B92846FFF7CCFF009499238DF80D30E9
:106540006F6A234601220DF10D013046B84704461B
:1065500018B10648FFF762FF05E02846FFF7B8FFCD
:1065600004460028F5D1204605B0F0BDB4752208D8
:106570002DE9F043884685B017461E46044600B90B
:10658000FEE703B9FEE790F8343003B9FEE78B1855
:106590000269934207D91648FFF740FF05252846B0
:1065A00005B0BDE8F083836A00F120090BB14846CD
:1065B00098472046FFF78CFF054698B903230DF155
:1065C0000902414620468DF80830FFF759FF94F83C
:1065D000352000970432656A3346D2B202A9484694
:1065E000A8470546E36A002BD9D048469847D6E726
:1065F000D675220830B5044685B000B9FEE70029FB
:106600000CBF042306238DF80E3000230093456A47
:1066100001220DF10E012030A84720B90DF10F0124
:106620002046FFF743FF05B030BD0000F0B505463A
:1066300085B000B9FEE790F8343003B9FEE7836A0D
:1066400000F120060BB13046984701212846FFF79C
:10665000D1FF0446C0B9C7238DF80C30AB8A6F6AEE
:106660001B071CD594238DF80D3049F68023ADF817
:106670000E3000900346042203A93046B847044672
:1066800088B10B48FFF7CAFE00212846FFF7B2FF8A
:10669000EB6A0BB130469847204605B0F0BD00903C
:1066A00003460122E8E72846FFF712FF0446EBE71E
:1066B000FC7522082DE9FF470E469046044600B9B6
:1066C000FEE790F8343003B9FEE703698A189A426E
:1066D00007D93848FFF7A2FE0525284604B0BDE8D3
:1066E000F08731B9434504D104B0BDE8F047FFF766
:1066F0009DBFA36A04F1200A0BB150469847B8F138
:10670000000F1FD112E0277FD4F8189029E020460F
:10671000FFF7DEFE0546002841D1B6FBF9F309FB81
:10672000136353B1A9EB0302424501D3002536E0C0
:10673000A3EB090398441644E1E7C145F6D2A8EB60
:1067400009084E4494F84430002BDCD042463146D0
:10675000204600F0C7FB04EBC00090F85870D0F85A
:10676000549001212046FFF745FF0546B8B90DF1C9
:106770000902314620468DF80870FFF781FE94F833
:106780003520009504322B46676AD2B202A95046E2
:10679000B84705460028BAD00748FFF73FFE00215A
:1067A0002046FFF727FFE36A002B96D05046984714
:1067B00093E700BFD67522082B7622082DE9F04F0B
:1067C000884685B016469946044600B9FEE7012B77
:1067D00003D0B3F5807F00D0FEE794F8343003B9DE
:1067E000FEE7226908EB0603934207D92E48FFF71C
:1067F00015FE0527384605B0BDE8F08F04F12003EB
:106800000393A36A0BB103989847DFF8A8B047E059
:1068100001212046FFF7EEFE074660BB0223234A14
:106820008BF8003041462046FFF72AFEB8FBF9F509
:1068300094F835A009FB15850AF1040A5FFA8AFA73
:106840001DB3A9EB0505B54228BF35460E992A466A
:106850000BEB0A001BF004FF00230093676A039808
:106860000AEB05025946B847761BA844074670B1A3
:106870000F48FFF7D3FD00212046FFF7BBFEE36A78
:10688000002BB7D003989847B4E74D46DBE7204686
:10689000FFF71EFE07460028EDD10E9B2B440E93FA
:1068A000002EB5D13746E6E7D6752208D986000016
:1068B00055762208D88600002DE9F04F848A1E46BE
:1068C000E30785B005468846174609D500964FF47C
:1068D0008073FFF773FF0446204605B0BDE8F08FD4
:1068E00014F00404F8D090F834B0BBF1000F00D1DC
:1068F000FEE78B180269934204D94148FFF78EFDE9
:106900000524E9E7836A00F120090BB1484698475E
:1069100018F0010F0DD0012300961A464146284673
:10692000FFF74CFF044600284BD108F1010801365F
:10693000013F01212846FFF75DFE0446002840D1B3
:10694000AD238DF808300236B844012FA8EB070AB2
:1069500012D800212846FFF74DFE044688BB012FC0
:1069600033D1023E00963B463A4651462846FFF751
:1069700025FF50B3044624E0BBF1000F2BD00DF1EE
:10698000090251462846FFF77BFD95F8353004A9EA
:106990000433DAB251FA83F316F8021C03F8081C28
:1069A00016F8011C03F8071C0023009302326C6ADE
:1069B000D2B202A94846A0470446B0B11148FFF739
:1069C0002DFD00212846FFF715FEEB6A002B83D032
:1069D0004846984780E716F8023C8DF8093016F8CB
:1069E000013C8DF80A300122DEE72846FFF770FDF2
:1069F000023604460028E4D1023F8346A5E700BFE3
:106A0000D675220855762208F0B5164685B005469B
:106A100000B9FEE700F12007F9B150238DF80C30E2
:106A200000230093446A012203A93846A047044684
:106A300068B9009001238DF80C306D6A8DF80D60F7
:106A40000346022203A93846A847044610B1054868
