:10000000010000000D900D9044D502000100000099
:100010000010200018E8687C0000000000000000CC
:1000200000000000000000000000000000000000D0
:100030000000000000000000000000000D900D9086
:10004000A55A0000002020080000008000000000E9
:1000500000000000000000000000000000000000A0
:100060000000000000000000000000000000000090
:100070000000000000000000000000000000000080
:100080000000000000000000000000000000000070
:1010000008B001002DDC2008E1DB2008E1DB20082E
:10101000E1DB2008E1DB2008E1DB20080000000024
:1010200000000000000000000000000091A4200863
:10103000E1DB200800000000E1A42008B5892008B9
:10104000E1DB2008E1DB2008E1DB2008E1DB200810
:10105000E1DB2008E1DB2008E1DB2008E1DB200800
:10106000E1DB2008E1DB2008C906000019052108A2
:101070006DE42008D5592108E1DB2008E1DB2008D8
:10108000E1DB2008E1DB20082D4D2108D14D2108AE
:10109000E1DB2008C54C2108A92D2108E1DB20084F
:1010A000E1DB2008E1DB2008E1DB2008E1DB2008B0
:1010B000F54421081545210808B00100E1DB2008AE
:1010C0002DDC200821060000E1DB2008E1DB200800
:1010D000E1DB2008E1DB200851E4200861E420087E
:1010E0005DDB2008E1DB2008BD592108C5AA8E6917
:1010F000E1DB2008E1DB2008B1E12008E1DB20088A
:10110000E1DB2008E1DB2008954C2108AD4C2108EB
:10111000D54B2108ED4B2108054C21081D4C210819
:10112000354C21084D4C2108654C21087D4C210887
:10113000E1DB2008C9592108E1DB2008E1DB2008B8
:10114000E1DB2008E1DB2008E1DB2008E1DB20080F
:10115000E1DB2008E1DB2008E1DB2008E1DB2008FF
:10116000E1DB2008E1DB2008C56721080000000062
:10117000000000000000000000000000000000006F
:101180000348044B834202D0034B03B11847704716
:10119000881D0000881D0000000000000548064B67
:1011A0001B1AD90F01EBA301491002D0034B03B165
:1011B00018477047881D0000881D000000000000CF
:1011C00010B5064C237843B9FFF7DAFF044B13B18F
:1011D0000448AFF300800123237010BD881D000078
:1011E0000000000068C0220808B5054B1BB1054986
:1011F0000548AFF30080BDE80840FFF7CFBF00BF50
:10120000000000008C1D000068C0220830B585B0C9
:1012100008F076FC424C2060032000F0E1FB98B11E
:10122000404800F0FDFB00F009FC3F4800F0F8FBEF
:101230003E4800F0F5FB00F031FC3D4800F0F0FBCB
:1012400021683C4800F0ECFB00213B4A3B48ADF8EC
:101250000C10CDE9011119F057F8044680B1384D52
:101260002B684FF0FF31186906F00AFE3548214619
:1012700021F0C0F92B68186906F027FE05B030BDD3
:10128000314821F01FFA01A819F0EAF9014618B314
:101290002E4821F0AFF900221146012006F04FFE42
:1012A0002B4B1860E0B9012000F09AFB0028E5D034
:1012B0001C4800F0B5FB00F0C1FB264800F0B0FB75
:1012C000254800F0ADFB00F0E9FB194800F0A8FB51
:1012D000224800F0A5FBD1E701A80BF005FBDAE7F7
:1012E00000221146012006F02AFE1D4B186000283E
:1012F0003AD1012000F074FB0028BFD0094800F06B
:101300008FFB00F09BFB134800F08AFB124800F0B3
:1013100087FB00F0C3FB064800F082FB1148D8E7CA
:10132000100000008BA12208206522082C652208ED
:10133000356522081A662208A5BB210880692208A3
:101340006C7501003A6622086E66220895662208CE
:10135000A81D0000C5662208D1662208DB662208A7
:10136000A41D0000FD662208BE4ABF48002106F009
:101370007DFBB0B9012000F033FB90B1BB4800F019
:101380004FFB00F05BFBBA4800F04AFBB94800F0A5
:1013900047FB00F083FBB84800F042FBB74800F081
:1013A0003FFB00F0A5FDB64AB648002106F05EFB03
:1013B000B0B9012000F014FB90B1AC4800F030FB54
:1013C00000F03CFBAA4800F02BFBAA4800F028FBE9
:1013D00000F064FBA84800F023FBAB4800F020FBC2
:1013E000032000F0FDFA90B1A04800F019FB00F0D6
:1013F00025FBA64800F014FBA54800F011FB00F007
:101400004DFB9D4800F00CFBA24800F009FB0320B7
:1014100000F0E6FA90B1954800F002FB00F00EFBF8
:101420009A4800F0FDFA9A4800F0FAFA00F036FB0C
:10143000914800F0F5FA984800F0F2FA032000F025
:10144000CFFA90B1894800F0EBFA00F0F7FA8F4834
:1014500000F0E6FA8E4800F0E3FA00F01FFB864841
:1014600000F0DEFA8D4800F0DBFA032000F0B8FA55
:10147000B8B17E4800F0D4FA00F0E0FA834800F0FA
:10148000CFFA834800F0CCFA00F008FB7A4800F06D
:10149000C7FA00F067F9824B824A0146824800F0A1
:1014A000BFFA032000F09CFA90B1704800F0B8FA3F
:1014B00000F0C4FA754800F0B3FA754800F0B0FACD
:1014C00000F0ECFA6C4800F0ABFA784800F0A8FAAB
:1014D000002004F009FC012004F006FC022004F0C6
:1014E00003FC02F0CFF902F0F3FB0446002800F001
:1014F0008480012000F074FA98B15C4800F090FA02
:1015000000F09CFA5A4800F08BFA5A4800F088FA2A
:1015100000F0C4FA584800F083FA6548214600F00C
:101520007FFA08F0FBFA02F0F3FF00F02DF903F068
:1015300047FE04F0B9FD01F05DFE01F0C7FB02219A
:10154000002002F0A9F90221012002F0A5F90AF019
:1015500033FC032000F044FA90B1444800F060FAF4
:1015600000F06CFA494800F05BFA494800F058FA7C
:1015700000F094FA404800F053FA4E4800F050FA58
:1015800040F6B83006F0F5FA09F0C0FB0446002832
:1015900040F09A80032000F023FA90B1334800F025
:1015A0003FFA00F04BFA394800F03AFA384800F0B8
:1015B00037FA00F073FA304800F032FA3E4800F093
:1015C0002FFA09F03DFC044688BB032000F008FA1E
:1015D00090B1264800F024FA00F030FA2B4800F0D1
:1015E0001FFA2B4800F01CFA00F058FA224800F0CD
:1015F00017FA324800F014FAFEE7032000F0F0F981
:1016000090B11A4800F00CFA00F018FA1F4800F0E8
:1016100007FA1F4800F004FA00F040FA164800F0FC
:10162000FFF9274800F0FCF902F038FC79E70120C7
:1016300000F0D6F90028DFD00C4800F0F1F900F0F6
:10164000FDF90B4800F0ECF90A4800F0E9F900F068
:1016500025FA094800F0E4F921461A4800F0E0F9BB
:10166000CAE700BF38692208793120088BA1220817
:10167000C5662208D1662208356522081E67220841
:101680001469220895C620083B67220820652208B5
:101690002C6522089EA52208596722086267220845
:1016A00087672208906722089C6722084A772208E9
:1016B000B86722080E6822084C682208736822085E
:1016C000EB6722089C682208012000F089F90028B5
:1016D00092D00A4800F0A4F900F0B0F9084800F0F0
:1016E0009FF9084800F09CF900F0D8F9064800F08E
:1016F00097F92146054800F093F97DE78BA1220870
:10170000C5662208D166220835652208BE6822080F
:10171000024A0348002106F0A9B900BF5C6922080B
:101720000D22200803281AD8DFE800F002080E1462
:101730000B4B1A788A4212D019707047084B5A78AE
:101740008A420CD059707047054B9A788A4206D06D
:1017500099707047024BDA788A4218BFD970704787
:101760001400000013B5064C01230222CDE900321B
:101770000A21044A204620F0ADFF204602B010BDE9
:10178000AD1D0000BC69220810B535488AB010F0C4
:10179000E3FF0A236422CDE9043222211623CDE996
:1017A000023105230221CDE900311922082307A8BF
:1017B00011F0BEFD0446B8B1012000F011F998B156
:1017C000284800F02DF900F039F9274800F028F9F1
:1017D000264800F025F900F061F9254800F020F9CD
:1017E0002448214600F01CF907A811F065FD0446C5
:1017F000B8B1012000F0F4F898B11A4800F010F9DF
:1018000000F01CF9184800F00BF9184800F008F92E
:1018100000F044F9164800F003F91748214600F09B
:10182000FFF8012007F085F8144B1860B0B90120CB
:1018300000F0D6F890B10B4800F0F2F800F0FEF896
:10184000094800F0EDF8094800F0EAF800F026F940
:10185000074800F0E5F80A4800F0E2F80AB010BDC9
:101860001C8204248BA12208C5662208D1662208A6
:1018700035652208CA6922081A6A2208B81D0000C4
:10188000636A220830B51A4D0446286885B068B3EB
:101890004FF0FF3107F0CAF901A9204611F068FDA9
:1018A00001A811F009FD0446B8B1012000F098F834
:1018B00098B1104800F0B4F800F0C0F80E4800F0FD
:1018C000AFF80E4800F0ACF800F0E8F80C4800F073
:1018D000A7F80C48214600F0A3F80B4B286801221A
:1018E0001A7000231A46194606F033FF05B030BDC2
:1018F000B81D00008BA12208C5662208D166220807
:10190000356522081A6A2208B71D00001FB501A814
:1019100011F0EAFC0446B8B1012000F061F898B17A
:101920000D4800F07DF800F089F80C4800F078F8D8
:101930000B4800F075F800F0B1F80A4800F070F8B4
:101940000948214600F06CF8694601A811F07CFDB9
:10195000009804B010BD00BF8BA12208C566220804
:10196000D1662208356522088D6A220808B5FFF77E
:10197000CDFF4FF47A71A0FB010108BD40BA80B2DF
:10198000704740BA80B27047034608BA19BA704728
:10199000FFF7FABF30B501444FF6FF734AF2010476
:1019A000814202D158BA80B230BD10F8012B5340A9
:1019B000082203F001055B080DB163409BB2013AB8
:1019C00092B2002AF5D1EBE708B505F0E9FCFFF784
:1019D0009FFE05F03BFD00B908BD05F0E0FCF8E70F
:1019E0000B4B1B78024683B10A4B1B78834234BFF2
:1019F00000200120084B1B7833B1084B1B781341A2
:101A000013F0010F08BF002070470120F2E700BF6C
:101A10001A00000019000000BC1D000018000000A2
:101A20000FB407B504A951F8040B019120F016FF7B
:101A300003B05DF804EB04B07047000073B505F027
:101A400055FE0E46054605F06BFE4FF47A740246CD
:101A5000A5FB040104FB061100231FF017FD3C2128
:101A6000B0FBF4F304FB1304B3FBF1F6009401FBA9
:101A700016334EF66022B0FBF2F2B2FBF1F501FB39
:101A800015220449B0FBF1F10348FFF7C9FF02B08A
:101A900070BD00BF80EE3600D66A220870477047DE
:101AA00070477047704708B50BF0CCFA10F070F82B
:101AB00013F094FE0AF000FEBDE808400BF03CBABB
:101AC000704705F0ABBF08B500F00AF800F01AF84F
:101AD000BDE8084000F01CB8704770477047000030
:101AE00008B5054812F0D8FE044812F0D5FEBDE84E
:101AF0000840034812F0D0BE2D0000002400000072
:101B00001B00000001480BF0D7BC00BFF96A220897
:101B100008B504480BF0BFFDBDE8084002480BF0D3
:101B2000BABD00BF016B2208FE6A220803490122E8
:101B30000B68824023EA02030B607047801E00009E
:101B4000044A0123116883400B431360024B186859
:101B500006F078BA801E0000A41D000010B40A4BE5
:101B600001461A4611F8014B02F8014BD0F801402A
:101B7000C3F80140898891805DF8044B828B1A81FB
:101B80000120FFF7DDBF00BF741E0000064B00F10F
:101B90000C0250F8041B43F8041B9042F9D1028850
:101BA0001A801820FFF7CCBFBD1D00001920FFF7D9
:101BB000C7BF0000044B02681A6082889A8082794D
:101BC0009A710220FFF7BCBF6D1E000010B50146E0
:101BD0000446074815F097FB064A236813606368BC
:101BE0005360A3689360BDE810401720FFF7A8BFBB
:101BF000E01D0000CC1D000008B5064903680B601D
:101C0000436805484B6015F07EFBBDE80840162090
:101C1000FFF796BFD81D0000E01D0000044B0268CE
:101C20001A6042685A6002891A810120FFF788BF52
:101C3000741E00002DE9F043904B1A780B899A42EC
:101C4000A3B00C4646D1CB7A323B062B00F2F6808D
:101C5000DFE813F033000700D2009500A900BD00B3
:101C6000E200874D2B684FF0FF31186906F008F944
:101C7000844820F027FD2B68186906F026F9032018
:101C8000FFF7AEFE90B18048FFF7CAFEFFF7D6FE21
:101C90007E48FFF7C5FE7E48FFF7C2FEFFF7FEFE57
:101CA0007C48FFF7BDFE7C48FFF7BAFE7B4B002265
:101CB0001A70042009F0AEFC0CE0322200217848B2
:101CC00020F0CEFE764804F10E0120F0DCFF0D205E
:101CD000FFF736FF734B22891B889A424CD10320B1
:101CE000FFF77EFE90B16848FFF79AFEFFF7A6FE69
:101CF0006648FFF795FE6648FFF792FEFFF7CEFEB7
:101D00006448FFF78DFE6848FFF78AFE0320FFF75F
:101D100067FE40B1A37A04F10A06002B40F0A780C9
:101D20006248FFF77DFEA57A04F10B012A460DF10A
:101D3000050021F005F85E488DF804500068002386
:101D40000A2201A906F005FDB0B90120FFF748FEFF
:101D500090B14D48FFF764FEFFF770FE5548FFF75E
:101D60005FFE5548FFF75CFEFFF798FE4948FFF716
:101D700057FE5248FFF754FE23B0BDE8F0838B7B3B
:101D80004F4A3F4D303B13702B684FF0FF311869BD
:101D900006F076F84B4820F095FC2B68186906F0A1
:101DA00094F80E2094E7364D47480E3120F06BFF33
:101DB0002B684FF0FF31186906F062F8434820F0B5
:101DC00081FC2B68186906F080F8052072E72C4D1D
:101DD0002B684FF0FF31186906F052F83C4820F0AC
:101DE00071FC2B68186906F070F83A4B1B780BB140
:101DF00010206DE711206BE7214D2B684FF0FF316C
:101E0000186906F03DF8344820F05CFC2B6818692E
:101E100006F05BF80B204DE7194D1320FFF790FEFD
:101E20002B684FF0FF31186906F02AF82B4820F094
:101E300049FC2B68186906F048F84BE7104D2B68F1
:101E40004FF0FF31186906F01BF82548EFE74846C8
:101E5000FFF7E6FD4046FFF7E3FD16F8011F3846A1
:101E6000FFF7DEFDA37A01359D42F0D358E7DFF896
:101E700078801C4FDFF874900025EBE7B03000004D
:101E80006C750100046B22088BA1220820652208D2
:101E90002C652208356522081A6B22083C010000D7
:101EA0003B1E000028200000C56B22089EA52208CA
:101EB000A8300000C5662208D1662208D56B22082A
:101EC000F81D0000326B2208F91D0000476B220844
:101ED000596B22089C640100776B2208996B2208D9
:101EE000AD6B2208976C2208A0A522083C7E220830
:101EF0002DE9F041AAB01B220021864B229323A892
:101F000020F0AEFD844BDFF8388200241C6001F025
:101F100089FA00F071FC814B814A82490594CDE930
:101F20000343814B0293814B2046CDE90043234676
:101F300014F02AFB7E48214614F040FB7D4B0894A8
:101F4000CDE906437C4B2246CDE902432146234698
:101F500020461DADCDE90B44CDE90944CDE904444B
:101F6000CDE90044CDE91144CDE90F44CDE90D445C
:101F700014F02EFB7149159413222846CDE919441B
:101F8000CDE91B44ADF8584020F090FD6C498DF828
:101F90008740284620F0AEFD15AE3746002800F0F9
:101FA0009280062C40F083800320FFF719FD08B3D0
:101FB0006448FFF735FDFFF741FD6348FFF730FD4B
:101FC0006248FFF72DFDFFF769FD6148FFF728FD27
:101FD0009DF8593002939DF8583001939DF8573081
:101FE00000939DF855209DF856309DF8541059489F
:101FF000FFF716FD9DF8593004939DF85830039370
:102000009DF8573002939DF8563001939DF8553056
:102010000093514A9DF85430102119A820F05AFB22
:102020000320FFF7DDFC98B14648FFF7F9FCFFF706
:1020300005FD4548FFF7F4FC4448FFF7F1FCFFF7C6
:102040002DFD4348FFF7ECFC444819A9FFF7E8FCD5
:1020500019A815F055F8384615F042F811238DF8F7
:102060008B3009238DF88C300DF18D0419AB1A4695
:1020700003CAAA4220606160134604F10804F6D145
:10208000374C152122A813F0BFFD13F08FFD2368F4
:102090004FF0FF31186905F0F3FE324820F012FBD3
:1020A0002368186905F011FF2AB0BDE8F0811022FD
:1020B00000211FF0DBFC414606F8010B0020013433
:1020C00020F018FD6AE7062C3FF46EAF0120FFF701
:1020D00087FC90B11B48FFF7A3FCFFF7AFFC224839
:1020E000FFF79EFC2148FFF79BFCFFF7D7FC184841
:1020F000FFF796FC1E48FFF793FC1E4A1068928873
:10210000179017ABADF8602093E803001590ADF879
:10211000581049E702010600801E0000CD2B200860
:10212000B52B20081D2C20085D2B2008AD2B200886
:102130008D2B2008F92B2008352C2008076C22084D
:10214000196C22088BA12208206522082C65220820
:10215000356522084B6C2208806C22089C6C220892
:102160006C750100B26C2208C5662208D16622088F
:102170001B6C2208236E22082DE9F047002496B03C
:102180003E22214606A8059420F06AFCB64BB74EC5
:102190001D8828461FF040FB306080B9B44C23688E
:1021A0004FF0FF31186905F06BFEB24820F08AFA53
:1021B0002368186905F089FE16B0BDE8F0872A4645
:1021C000214620F04DFCAC4FDFF8EC823C6814F067
:1021D0000104FBD1234601220133202B06D1D8F87C
:1021E00000004FF0FF3105F0FBFEEFE7396802FA1F
:1021F00003F00842F0D0013B182BE7D801A252F8B7
:1022000023F000BF6932200811332008BD342008B4
:10221000CD312008CD312008CD312008CD31200826
:10222000CD312008CD312008CD312008CD31200816
:10223000CD312008473420084F342008FF332008D0
:10224000BD332008EB3320081B34200869332008F5
:10225000313420085D352008E3352008E7352008B3
:10226000EB352008353620080120FFF75FFC834856
:10227000E82113F04AFD044670B17D4D2B684FF004
:10228000FF31186905F0FCFD7D48214620F0B2F9C8
:102290002B68186905F019FE4FF4C87318220093D3
:1022A00076480023114613F0CBFC044670B1704D04
:1022B0002B684FF0FF31186905F0E2FD71482146A7
:1022C00020F098F92B68186905F0FFFD012000F057
:1022D00013FC0320FFF784FB00283FF477AF6A4824
:1022E000FFF79EFBFFF7AAFB6848FFF799FB6848DA
:1022F000FFF796FBFFF7D2FB6648FFF791FB5F49BC
:10230000654815F000F801466448FFF789FB5DE772
:10231000574D0220FFF70AFC2B684FF0FF31186978
:1023200005F0AEFD5E495C4814F0EDFF01465D48E6
:1023300020F060F92B68186905F0C7FD13F036FC32
:1023400004460028FAD12B684FF0FF31186905F0D8
:1023500097FD554820F0B6F92B68186905F0B5FDD2
:10236000204600F0C9FB31E700241320CDE90244E8
:10237000ADF81040FFF7DAFB4222214605A820F015
:102380006FFB02A818F06CF900287FF41FAF40F62D
:102390000823ADF8143002AB03CB1B88ADF81E3018
:1023A000424BCDF81600CDF81A10188805AA422124
:1023B00013F08EFC02A80AF097FA07E71020FFF747
:1023C000B5FB402200210DF1160020F049FB384BEF
:1023D0001B788DF8153007238DF81430334B05AA80
:1023E0001888422113F074FCF0E61120FFF79EFBE1
:1023F000412200210DF1150020F032FBEBE70F2008
:10240000FFF794FB402200210DF1160020F028FB7D
:102410004FF48273ADF81430E0E71220FFF786FB2B
:10242000412200210DF1150020F01AFB0223D3E711
:102430001420FFF77BFB412200210DF1150020F055
:102440000FFB0123C8E70D20FFF770FBBEE60E204F
:10245000FFF76CFB174B1B78002B7FF4B7AE052002
:1024600009F0D8F8B2E600BF3E010000F41D0000FC
:102470006C750100D06C2208801E0000751E0000E3
:10248000FA6C2208236D22088BA1220820652208FD
:102490002C65220835652208E01D0000556D2208D4
:1024A0006D1E0000736D22089B6D2208AE30000087
:1024B0009C640100F81D0000A41D00000320FFF72C
:1024C00035FB412200210DF1150020F0C9FA03234C
:1024D0008DF814303368DFF880911B688DF8153063
:1024E000554B05AA1888422113F0F2FBD6F800A03C
:1024F000DAF80030E5B2AB4204F101040ED84F4CDB
:1025000023684FF0FF31186905F0BAFC4C4820F001
:10251000D9F82368186905F0D8FC57E64222002153
:1025200005A820F09DFA2E235D430AEB05030C3528
:102530005B7A8DF814300AEB05012C230DF116009F
:102540008DF8153020F09FFBB9F8000005AA422154
:1025500013F0BEFB0A2005F00CFBC7E7394B002542
:1025600015209C680295ADF80C50FFF7DFFA29465C
:102570003F220DF1170020F073FA4FF48173ADF88C
:10258000143002A92C2301208DF8163018F028F8F9
:10259000F8B12C238DF81D30C4F307238DF81F30BC
:1025A000C4F307438DF81E408DF82030C4F3076450
:1025B000214B8DF82140214C188805AA422113F0A7
:1025C00087FB23684FF0FF31186905F059FC1E485E
:1025D0009DE70298BDF80C30CDF81700ADF81B3020
:1025E000D7E7162030E717202EE71820FFF79EFACE
:1025F000164B9B799B067FF5E9AD15484FF4A47205
:10260000FB2113F035FB044600283FF4DFAD0B4DF2
:102610002B684FF0FF31186905F032FC21460D4858
:102620001FF0E8FF2B68186905F04FFC1820FFF732
:1026300087FACBE5192007E7AE3000006C75010082
:10264000B26D220808640100D66D2208BD1D00008D
:10265000751E0000EE6D2208AC300000013870B528
:102660000D46144604281BD8DFE800F003121416A8
:1026700018000C4E0021306820F0F2F93068224634
:10268000294620F05DFB0320BDE87040FFF758BAF3
:102690001520F9E71420F7E70F20F5E71220F3E7FC
:1026A00070BD00BFF41D000003681BBA4B60838837
:1026B0005BBA0B81C3885BBA4B81437A0B73037A95
:1026C0004B73C37A8B73837ACB73C37B0B74837B1B
:1026D0004B74437B8B74037BCB7470472DE9F041C3
:1026E000C4B00C469DF828810746164600214FF4D9
:1026F000887268461D4620F0B3F9022342F60302B1
:10270000B8F1100FADF8044000978DF80830ADF81F
:102710000C208DF81C3009AC13D1142329460DF17F
:102720002200ADF81E308DF8206014F067FD4BAB31
:102730000FCB84E80F00684613F0C5FA44B0BDE83B
:10274000F081042329460DF12200ADF81E308DF8EA
:10275000206014F053FDBDF82C11204614F04EFDFE
:10276000E9E782B02DE9F041C4B00E464AA981E8FC
:102770000C0007464FF48872002168469DF83C81A2
:102780004AAD20F06DF99DF84431ADF806300FCD1B
:1027900002AC0FC42B6850992360E62208A8ADF85C
:1027A0001E200097ADF804608DF81C8020F0C8FA58
:1027B000684613F088FA18F0100F18D04FF488729A
:1027C0000021684620F04CF942F60212022301363D
:1027D000ADF80C2068460A220097ADF804608DF829
:1027E00008308DF81C20ADF81E3013F06CFA44B0A0
:1027F000BDE8F04102B070472DE9F043C5B006AD29
:10280000002306936B60A84B0AAA03F110069046BA
:1028100018685968144603C40833B3422246F7D1F6
:10282000A249A34C4046FFF73FFF10230B700195D0
:102830000B6900930FC913F02EFA069B2360032047
:10284000BDF81C30A380FFF7CBF898B19948FFF78B
:10285000E7F8FFF7F3F89848FFF7E2F89748FFF733
:10286000DFF8FFF71BF99648FFF7DAF8A1889548DB
:10287000FFF7D6F80021E2220BA80A9120F0F0F829
:10288000914B2E4603F1100718685968324603C26F
:102890000833BB421646F7D1DFF85492102349465D
:1028A000284689F80030FFF7FFFEA1884F4601F166
:1028B000020E01F1010C0FCF6E460FC63B6833606C
:1028C0001FFA8CF11FFA8EF320680822FFF706FF2B
:1028D0000023A688CDE90483082303934B4493E89F
:1028E00007008DE80700023699E80C002068B1B2B5
:1028F000FFF737FFA388754E023303203380FFF7BD
:102900006FF898B16B48FFF78BF8FFF797F86A48B4
:10291000FFF786F86948FFF783F8FFF7BFF86848C4
:10292000FFF77EF831886A48FFF77AF80021E22243
:102930000BA80A9120F094F8664B2E4603F110077D
:1029400018685968324603C20833BB421646F7D1AD
:10295000DFF8A09110234946284689F80030FFF798
:10296000A3FEA1884F4601F1040E01F1030C0FCF25
:102970006E460FC63B6833601FFA8CF11FFA8EF368
:1029800020680222FFF7AAFE8023A688CDE90483EF
:102990000223039309F1080393E807008DE8070079
:1029A000043699E80C002068B1B2FFF7DAFEA3887C
:1029B000494E043303203380FFF712F898B13D48A5
:1029C000FFF72EF8FFF73AF83B48FFF729F83B48A6
:1029D000FFF726F8FFF762F83948FFF721F831884A
:1029E0003E48FFF71DF80021E2220BA80A9120F0D3
:1029F00037F83B4B2E4603F11007186859683246EA
:102A000003C20833BB421646F7D1364F4FF01009C8
:102A10002846394687F80090FFF746FEA1883E46D3
:102A200001F1060E01F1050C0FCE6D460FC533689E
:102A30002B601FFA8CF11FFA8EF320684A46FFF7CD
:102A40004DFE0023A588CDF80C90CDE9048307F155
:102A5000080393E807008DE80700063597E80C00A7
:102A60002068A9B2FFF77DFEA3881F4D063303201F
:102A70002B80FEF7B5FF98B10E48FEF7D1FFFEF7A9
:102A8000DDFF0D48FEF7CCFF0C48FEF7C9FFFFF74E
:102A900005F80B48FEF7C4FF29881448FEF7C0FF6D
:102AA00045B0BDE8F08300BF4F6F22081020000042
:102AB000CC1F00008BA12208206522082C6522086B
:102AC00035652208296E2208926E2208282000000F
:102AD0004F6E2208A36E220826200000646E220892
:102AE000B46E2208D41F000024200000796E220852
:102AF000E81F0000FC1F000008B51E4B01281870DD
:102B00001AD10320FEF76CFF90B11B48FEF788FF37
:102B1000FEF794FF1948FEF783FF1948FEF780FF80
:102B2000FEF7BCFF1748FEF77BFF1748FEF778FF5C
:102B3000BDE8084001F0B8B9D0B90320FEF750FF56
:102B400090B10D48FEF76CFFFEF778FF0B48FEF7DB
:102B500067FF0B48FEF764FFFEF7A0FF0948FEF78A
:102B60005FFF0A48FEF75CFFBDE8084001F099B935
:102B700008BD00BFC81F00008BA1220820652208E5
:102B80002C65220835652208C56E2208F96E2208D8
:102B900038B5084D284614F0D7FA2C7844B1064BC6
:102BA0002246691C184620F0CBF80022025538BD99
:102BB0000248FCE7841F0000B81F0000246F2208B1
:102BC0002DE9F843324B1B78012B06460C4643D1C6
:102BD0000320FEF705FF90B12E48FEF721FFFEF718
:102BE0002DFF2D48FEF71CFF2C48FEF719FFFEF7BE
:102BF00055FF2B48FEF714FF2A48FEF711FF03206C
:102C0000FEF7EEFE08BB284B22463146184620F060
:102C100097F8264BE1B280F8FF1002461888BDE80D
:102C2000F84313F055B815B13846FEF7F9FE4046A3
:102C3000FEF7F6FE715D4846FEF7F2FE0135AC4246
:102C4000F1D81B48FEF7ECFEDDE71A4FDFF8748081
:102C5000DFF874900025F2E70120FEF7C1FEA0B175
:102C60000C48FEF7DDFEFEF7E9FE1348FEF7D8FE3E
:102C70001248FEF7D5FEFEF711FF0948FEF7D0FE19
:102C8000BDE8F8430E48FEF7CBBEBDE8F88300BFB1
:102C9000C81F00008BA12208206522082C6522088D
:102CA000356522082C6F2208841E000026200000B3
:102CB0009EA522083C7E2208C5662208D16622080D
:102CC0003C6F2208A0A52208976C220808B500F0E6
:102CD00059FC002008BD00002DE9F04FDFF8B0B12D
:102CE0005F4C604EA3B0DBF800000A2201A905F09A
:102CF000FEFE0128F7D19DF80530012B17D0FEF715
:102D00006FFEA0B12046FEF78BFEFEF797FE304621
:102D1000FEF786FE5448FEF783FEFEF7BFFE5348DB
:102D2000FEF77EFE9DF805105148FEF779FE9DF8EE
:102D300006509DF80430AB4219D00120FEF750FE3A
:102D4000A8B12046FEF76CFEFEF778FE3046FEF78F
:102D500067FE4548FEF764FEFEF7A0FE4348FEF717
:102D60005FFE9DF8041043482A46FEF759FE9DF881
:102D7000041001F188036B44023989B20DF105009A
:102D800033F8857CFEF706FE8742054618D0012001
:102D9000FEF726FEA0B12046FEF742FEFEF74EFEED
:102DA0003046FEF73DFE3048FEF73AFEFEF776FE6F
:102DB0002E48FEF735FE30482A463946FEF730FEEB
:102DC0002E4D002795F800909DF808304B4541D1D5
:102DD000D5F80480B8F1000F3CD095F808A09DF814
:102DE0000430534519D00120FEF7FAFDA8B1204662
:102DF000FEF716FEFEF722FE3046FEF711FE1A48D9
:102E0000FEF70EFEFEF74AFE1848FEF709FE9DF893
:102E100004101B485246FEF703FE0420FEF7E0FDB7
:102E200098B12046FEF7FCFDFEF708FE1548FEF7B8
:102E3000F7FD1548FEF7F4FDFEF730FE0B48FEF7F0
:102E4000EFFD12484946FEF7EBFD9DF804100DF129
:102E50000500C0470137112F05F10C05B2D142E73B
:102E60008BA12208C5662208D16622083565220892
:102E70005F6F2208AC6F22087A6F2208487122081F
:102E8000A16F2208DE6F2208EA6F2208F46F220881
:102E9000A830000008B54179007900F04DFC002011
:102EA00008BD000007B5094A112306216846CDE98F
:102EB0000023FEF76FFD0821ADF806006846FFF716
:102EC0007FFE002003B05DF804FB00BF0208F20B98
:102ED00007B5094A112306216846CDE90023FEF70C
:102EE00059FD0821ADF806006846FFF769FE00208D
:102EF00003B05DF804FB00BF0208F20A07B5094AF7
:102F0000112306216846CDE90023FEF743FD082181
:102F1000ADF806006846FFF753FE002003B05DF8E9
:102F200004FB00BF0208F20D13B504790420FEF77C
:102F300057FD98B11448FEF773FDFEF77FFD134867
:102F4000FEF76EFD1248FEF76BFDFEF7A7FD114878
:102F5000FEF766FD10482146FEF762FD0F4B009319
:102F60000024112305216846ADF804308DF8064091
:102F7000FEF710FD0721ADF805006846FFF720FEBB
:102F8000204602B010BD00BF8BA12208DE6F2208D0
:102F9000EA6F220835652208137022080207F21A28
:102FA00013B504460420FEF71BFD98B11248FEF746
:102FB00037FDFEF743FD1148FEF732FD1048FEF7DE
:102FC0002FFDFEF76BFD0F48FEF72AFD21790E4815
:102FD000FEF726FD0D4A112306216846CDE90023A0
:102FE000FEF7D8FC0821ADF806006846FFF7E8FDBB
:102FF000002002B010BD00BF8BA12208DE6F2208A6
:10300000EA6F220835652208247022080208F204BB
:1030100007B5154A112306216846CDE90023FEF7BE
:10302000B9FC0821ADF806006846FFF7C9FD03208A
:10303000FEF7D6FC90B10D48FEF7F2FCFEF7FEFC61
:103040000B48FEF7EDFC0B48FEF7EAFCFEF726FD09
:103050000948FEF7E5FC0948FEF7E2FC00F027FF0F
:10306000002003B05DF804FB0208F20C8BA12208DB
:10307000206522082C65220835652208397022084F
:1030800000B58DB02B2200210DF105001FF0E8FCEA
:1030900030238DF80130F2238DF8023011238DF8A2
:1030A000043001238DF808308DF809308DF80D308B
:1030B000154B02228DF800208DF803208DF80A2090
:1030C00003F10C010DF10E0253F8040B42F8040B4E
:1030D0008B42F9D11B781370FFF75AFDD0F80330FB
:1030E000CDF81B30D0F80730CDF81F302E216846C0
:1030F000FEF750FC3021ADF82E006846FFF760FD6A
:1031000000200DB05DF804FB6B70220810B5104A6A
:1031100086B0002411236846CDE9022304948DF87B
:10312000144014F016F80098BDF80430CDF80D00E6
:103130000B2102A8ADF81130FEF72CFC0D21ADF8E3
:10314000130002A8FFF73CFD204606B010BD00BFEB
:10315000020DF20108B500F07FFA002008BD000062
:1031600010B5124A86B000241123CDE9022304943D
:10317000ADF814408DF81640FEF7F8FBFEF704FC9E
:10318000CDE900016B4603CBCDF80D00CDF8111051
:1031900018460D21FEF7FEFB0F21ADF8150002A821
:1031A000FFF70EFD204606B010BD00BF020FF2056E
:1031B00007B5034640689968FEF7EAFB4FF47A7258
:1031C00000231EF063F9FEF75DFB094A1123062177
:1031D0006846CDE90023FEF7DDFB0821ADF80600C7
:1031E0006846FFF7EDFC002003B05DF804FB00BF6C
:1031F0000208F20630B5414B1A7885B0002A7BD11F
:103200000125812105201D7005F045FA3C4C206008
:10321000D0B92846FEF7E4FB00286DD03948FEF708
:10322000FFFBFEF70BFC3848FEF7FAFB3748FEF7CA
:10323000F7FBFEF733FC3648FEF7F2FB354805B0E6
:10324000BDE83040FEF7ECBB0320FEF7C9FB90B1B0
:103250002C48FEF7E5FBFEF7F1FB2F48FEF7E0FBFD
:103260002E48FEF7DDFBFEF719FC2948FEF7D8FBD8
:103270002B48FEF7D5FB2B4B02932B4B01931B23C3
:1032800000932A492A4800234FF4806222F0F4F880
:10329000E0B90120FEF7A4FB90B11A48FEF7C0FB8D
:1032A000FEF7CCFB1848FEF7BBFB1848FEF7B8FB4F
:1032B000FEF7F4FB1648FEF7B3FB1E48FEF7B0FB23
:1032C000206805B0BDE8304005F02CBE0320FEF7B5
:1032D00087FB88B10B48FEF7A3FBFEF7AFFB0E4858
:1032E000FEF79EFB0D48FEF79BFBFEF7D7FB084859
:1032F000FEF796FB1048A2E705B030BDA4300000F1
:10330000A83000008BA12208C5662208D1662208D9
:103310003565220879702208206522082C6522086C
:10332000A17022082C200000A4200000CD702208EB
:10333000D93C2008E87022081671220882B02DE9D5
:10334000F041C4B00E464AA981E80C0007464FF48C
:103350008872002168464AAD9DF83C811FF080FBD1
:103360000FCD02AC0FC42B6850992360422208A8ED
:10337000ADF81E200097ADF804608DF81C801FF09A
:10338000DFFC684612F09FFC18F0100F18D04FF4C5
:103390008872002168461FF063FB42F60212022386
:1033A0000136ADF80C2068460A220097ADF804609B
:1033B0008DF808308DF81C20ADF81E3012F083FC1B
:1033C00044B0BDE8F04102B07047F0B5C5B0074663
:1033D0000E46154600214FF4887268461C461FF0C1
:1033E0003FFB022342F603028DF808308DF81C30B3
:1033F000214606230DF12200ADF80C20ADF81E3059
:103400000097ADF804608DF8205013F0F7FEBDF87A
:10341000281109A813F0F2FE684612F054FC45B0DA
:10342000F0BD00002DE9F0419EB008AC0027142249
:10343000002120461FF014FB39463E220EA8CDE99C
:1034400006770D971FF00CFB02238DF8203006AD98
:103450004AF6BB230195ADF82430009794E80F009D
:1034600012F019FCBDF81C10069841F6A1228B1C25
:103470000131ADF8242000929BB2082289B2FFF7F7
:10348000A4FFBDF81C602F4B02361E700DF13408EE
:103490000823CDF8108003930AAD95E807008DE866
:1034A0000700069894E80C00B1B2FFF747FFBDF89B
:1034B0001C10069841F6B1320B1D0331ADF82420E3
:1034C00000929BB20A2289B2FFF77FFFBDF81C6011
:1034D0001D4B0436B6B21E800A23CDF8108003932C
:1034E00095E807008DE80700069894E80C0031463F
:1034F000FFF724FFBDF81C10069841F6C1428B1D52
:103500000531ADF8242000929BB2122289B2FFF758
:103510005CFFBDF81C600D4B0636B6B21E80122350
:10352000CDF81080039395E807008DE80700069812
:1035300094E80C003146FFF701FF38461EB0BDE8A5
:10354000F08100BFB0300000AE300000AC300000B1
:1035500007B5002301930A4B01A9186805F067FA23
:10356000019B4BB14FF0E0234FF08052C3F8042D84
:10357000BFF34F8FBFF36F8F03B05DF804FB00BF45
:103580003071000030B5032285B00021012005F024
:1035900082F8244C206070B1234B00930023234811
:1035A000234D1A464FF47A7105F092FE286030B927
:1035B000206805F0B7FC4FF0FF3005B030BD1D4B63
:1035C00002931D4B01931A2300931C491C480023AE
:1035D0004FF4805221F050FF08BB0120FEF700FAA3
:1035E00090B11848FEF71CFAFEF728FA1648FEF7C5
:1035F00017FA1648FEF714FAFEF750FA1448FEF7C9
:103600000FFA1448FEF70CFA206805F08BFC002333
:10361000009328681A46052105F0CAFECBE7002072
:10362000CBE700BF3071000051452008147222081A
:1036300034710000B43000002C31000024722208E4
:10364000D94620088BA12208C5662208D166220827
:10365000356522083372220810B51D4A88B011233F
:10366000CDE901231B4B0024CDE9034340F2811037
:1036700045F20263CDE90534ADF81C40FEF77EF952
:10368000ADF816000120FEF779F9ADF8180042F206
:103690003000FEF773F9ADF81A00FFF779FAD0F8A9
:1036A0000630CDF80930D0F80A30CDF80D301821A9
:1036B000062301A88DF81130FEF76CF91A21ADF838
:1036C0001C0001A8FFF77CFA204608B010BD00BF1F
:1036D000021AF2160000010183B5DFF85480DFF80A
:1036E0005490124ED8F800004FF0FF3105F09EFACA
:1036F00001280446F6D1FFF7AFFFD9F80020002AD1
:10370000F0D000254FF47A712B464A43306800957B
:10371000042105F04DFE376821F0D6FE00950246E3
:103720002B462146384605F043FEDBE734710000A6
:10373000307100002C710000F02907B5034604D851
:10374000012815D0022803D078B14FF0FF3009E0EE
:103750000D4A002313600D481A460068194604F00C
:10376000F8FF002003B05DF804FB074A1160F2E7A0
:10377000054A07480023136000931A460321006896
:1037800005F016FEEDE700BF2C710000307100005F
:103790003471000070B5244E3368002B33D0013BE8
:1037A0003360002B2FD1214C214D2378618815F8EF
:1037B0003320914206D305EBC3035B78DB0926D0A7
:1037C000002363801B4B62881878237805EBC303C2
:1037D0005B6803EB82039B78DB0722D509F074FF5B
:1037E0002278638815F8321001290AD005EBC2054A
:1037F0006A6802EB83025288012A8CBF52080122B8
:10380000326001336380BDE8704000F043B9237932
:10381000237005EBC303E2885B786280DB09CFD1BC
:10382000D0E709F079FFDBE7407100003871000054
:1038300048722208016B220807B50123CDE9003345
:10384000044A054800230A2103F0BCFF03B05DF8D9
:1038500004FB00BF9547200844710000064B10B5DB
:1038600000241C705C801C71DC80044B187809F00B
:1038700053FF034B1C6010BD38710000016B220820
:103880004071000008B500F0B7F8FFF7E7FFBDE8AA
:103890000840FFF7D1BF000038B548BB03292ED838
:1038A000184A1578A9422AD0174C04EBC10304EB3F
:1038B000C5045B786478E4094FEAD31313D063B18D
:1038C000508011701171D080104B187809F024FFCE
:1038D0000F4A01231360184638BD50881571D080F7
:1038E00011705380F0E7002BF5D01171D480EBE715
:1038F000012804D1BDE83840084600F09BB80023F9
:10390000E9E700BF3871000048722208016B220805
:10391000407100000F4A1378052B17D850781BB957
:10392000392815D910F072BA5A1E012A05D9032B6D
:1039300008D0042B08D0062800E0102834BF00204F
:10394000212070470A28F9E70C28F7E72120704763
:10395000184670475000000038B5FFF7DBFF88BB02
:10396000224B1D785C78052D0AD921484FF4CE7181
:1039700011F08AF81E484FF4D27111F085F82EE04C
:10398000032D0ED9042D28D10B2C04D9184840F250
:10399000A11111F079F8240104F1105404F59824D0
:1039A0000EE085B94B2C04D911484FF4CF7111F0BA
:1039B0006BF804EB0514240104F18C4404F598140D
:1039C0000023636038BD012D01D13B2CEBE7022DB4
:1039D00001D12B2CE7E71B2CE5E7052CCAD8054BBA
:1039E000A4001A596FF345121A51EBE7500000007A
:1039F000807222081C8604240B4A13785178907830
:103A000043EA012310B543EA004010F0BFFA044630
:103A100040B9064B187058801871D880FFF79CFF8A
:103A2000034B1C6010BD00BF50000000647100001B
:103A30006C710000032838B5014622D8124A157867
:103A400085421ED0114C04EBC00304EBC5045B7827
:103A5000D8096378DB0911D028B100235380117095
:103A60001171D38004E053881571D3801170508098
:103A7000FFF772FF064B0120186001E00028EFD12C
:103A800038BD0020FCE700BF6471000034732208D9
:103A90006C7100002DE9F041494E3368002B75D060
:103AA000013B3360002B71D1464F474D3B787988FD
:103AB00015F83320914206D305EBC3035B78DB098D
:103AC00021D000237B803B787A8805EBC3035B68B9
:103AD00003EB82039B78DB076FD5FFF71BFF002802
:103AE00041D13A4B93F800805C78B8F1050F14D9B6
:103AF00037484FF49B7110F0C7FF35484FF49F7162
:103B000010F0C2FF52E03B793B7005EBC303FA882B
:103B10005B787A80DB09D4D1D5E7B8F1030F0FD9F0
:103B2000B8F1040F40D10B2C04D9294840F23B11C5
:103B300010F0AAFF240104F1105404F5982410E0B9
:103B4000B8F1000F24D14B2C04D921484FF49C71BB
:103B500010F09AFF04EB0814240104F18C4404F5DE
:103B60009814012363603A787B8815F83210012994
:103B70000AD005EBC2056A6802EB83025288012A6B
:103B80008CBF52080122326001337B80BDE8F08196
:103B9000B8F1010F01D13B2CD6E7B8F1020F01D1EA
:103BA0002B2CD1E71B2CCFE7052CA6D8094BA40062
:103BB0001A5942F020021A51D5E7FFF7CDFED2E79D
:103BC0006C71000064710000347322085000000022
:103BD000807222081C860424034B0146187408B125
:103BE00001210020FFF758BE7071000038B5134C5A
:103BF000134B2278A07803EBC2052979884204D3BD
:103C000053F832301B794BB9A3700023E37003F0F3
:103C100021FFA060BDE8384000F014B80223002066
:103C20006370FFF7D9FF6B7933B1E98821B1A069DF
:103C3000BDE8384004F004B838BD00BF7071000022
:103C4000F4732208F8B51B4C1B4E2278A07856F866
:103C50003250E27800EB400305EB43014F79BA4262
:103C600006D32FB1431CA370BDE8F840FFF7BEBFD9
:103C700035F813508DB9488848B9FFF7ADFF4FF4B8
:103C80007A7560692946BDE8F84003F0D9BF237C06
:103C90005BB90120FFF7A0FFD7E7237C2BB90120F8
:103CA000FFF79AFF002DD0D0EBE701324D88E2708C
:103CB0000020F5E770710000F4732208034B5B7875
:103CC000012B01D1FFF7BEBF704700BF707100002C
:103CD00030B5374D374889B0082300242B60364B68
:103CE000009322466B462146CDE901442C712C7489
:103CF000039403F04DFF6861C0B90120FDF770FE29
:103D000090B12E48FDF78CFEFDF798FE2C48FDF78C
:103D100087FE2C48FDF784FEFDF7C0FE2A48FDF71C
:103D20007FFE2A48FDF77CFE01202BE0284B049300
:103D30002848079404AB22462146CDE9054403F008
:103D400027FFA861B0B90120FDF74AFE0028EBD09B
:103D50001A48FDF765FEFDF771FE1948FDF760FE94
:103D60001848FDF75DFEFDF799FE1748FDF758FE70
:103D70001948D7E72046FFF72FFF0420FDF730FE54
:103D800010B9002009B030BD0C48FDF749FEFDF721
:103D900055FE1248FDF744FE1148FDF741FEFDF7C0
:103DA0007DFE0948FDF73CFE0E48FDF739FEE8E7C9
:103DB00070710000BD4C20086C7322088BA1220892
:103DC000C5662208D1662208356522087D7322085F
:103DD000A1732208994E2008B5732208DE6F2208CD
:103DE000EA6F2208EB672208082838B5054635D85F
:103DF0001B4C606903F040FFA06903F03DFF012305
:103E00006370002325706380237103F023FEE0605C
:103E10000420FDF7E5FD98B11248FDF701FEFDF71E
:103E20000DFE1148FDF7FCFD1048FDF7F9FDFDF70B
:103E300035FE0F48FDF7F4FD0E482946FDF7F0FD6D
:103E4000082D01D0062D06D10020FFF7C5FE022364
:103E50006370002038BDFFF7C9FEFAE72120F9E7BB
:103E6000707100008BA12208DE6F2208EA6F220821
:103E700035652208DC73220810B5064C606903F032
:103E8000FBFEA06903F0F8FE0020FFF7A5FE082363
:103E9000238010BD70710000FFF7EEBF0020FFF718
:103EA000A3BF0120FFF7A0BF0220FFF79DBF0420A2
:103EB000FFF79ABF0520FFF797BF0620FFF794BFD3
:103EC0000720FFF791BF0000543054289ABF024BDF
:103ED00018566FF004007047A574220810B5094CFD
:103EE00023686BB9012004F024FD206040B94FF035
:103EF000140383F31188BFF36F8FBFF34F8FFEE777
:103F000010BD00BF8C710000F8B50F461446064680
:103F100068B361B3542005F09BFC054650B304F030
:103F20000103A20748BF43F0020314F0030F18BFB8
:103F30000323600748BF43F48073210748BF43F45D
:103F40000063E2060D4848BF43F480633A462946C1
:103F50001CF0D4FB044610B935602046F8BD284655
:103F600005F04CFD2046BDE8F840FFF7ADBF6FF00F
:103F70001504F2E76FF00B04EFE700BFE4710000F7
:103F800070B5044680B1066876B1314608481CF029
:103F9000D1FB0546304605F031FD0023236028465D
:103FA000BDE87040FFF790BF6FF0080070BD00BF24
:103FB000E471000010B513460C4660B1016851B1C0
:103FC0004CB1074822461CF0E5FB031E05DABDE8AC
:103FD0001040FFF779BF6FF01503184610BD00BF02
:103FE000E471000010B513460C4660B1016851B190
:103FF0004CB1074822461CF001FC031E05DABDE85F
:104000001040FFF761BF6FF01503184610BD00BFE9
:10401000E471000010B513460C4668B1016859B14F
:10402000022A0CD8084822461CF000FC844209D021
:10403000BDE81040FFF748BF6FF0080010BD6FF0FB
:104040001500FBE70020F9E7E471000030B50D46EC
:10405000C3B00146F8B1F5B110486A461CF02CFB1C
:10406000044620B143B0BDE83040FFF72DBFFF222A
:1040700002A928461EF01AFD019BC5F800319DF8E3
:10408000003085F8FF40013B18BF012385F804315B
:10409000204643B030BD6FF01504F9E7E47100002D
:1040A00008B5014630B105481CF0D8FBBDE8084012
:1040B000FFF70ABF6FF0150008BD00BFE4710000F4
:1040C00070B50C460646B8B1B1B1342005F0C0FB5E
:1040D0000546A0B1224601460A481CF06FFC044682
:1040E00038B1284605F08AFC2046BDE87040FFF74D
:1040F000EBBE3560204670BD6FF01504FAE76FF037
:104100000B04F7E7E471000010B50C46C2B020B311
:10411000016811B30CB312486A461CF0B1FC031ECF
:1041200004DA42B0BDE81040FFF7CEBE12D0FF2245
:1041300002A920461EF0BAFC002384F8FF30019B40
:10414000C4F800319DF80030013B18BF012384F80A
:1041500004310123184642B010BD6FF01503F9E792
:10416000E471000070B5044680B1066876B131464E
:1041700008481CF077FC0546304605F03FFC00235C
:1041800023602846BDE87040FFF79EBE6FF0080030
:1041900070BD00BFE471000038B50446002847D068
:1041A0002549264B4B60264B8B60264BCB60264B1C
:1041B0000B614FF480721023C1E905324FF4805235
:1041C000C1E907224FF48062C1E90A231F48C823CE
:1041D0004B621CF04FF9054630B30120FDF700FC9F
:1041E00098B11B48FDF71CFCFDF728FC1948FDF7AA
:1041F00017FC1948FDF714FCFDF750FC1748FDF7B4
:104200000FFC17482946FDF70BFC0B490F481CF023
:10421000BBF818B1BDE83840FFF756BE06490B4859
:104220001CF028F90028F5D1084B6360002038BD48
:104230006FF01500FBE700BF907100008DDE2108D4
:10424000A9DE2108C5DE2108DFDE2108E4710000B7
:104250008BA12208C5662208D1662208356522088E
:104260007E74220808B540B1016831B104481CF0E1
:1042700079FABDE80840FFF727BE6FF0080008BDD7
:10428000E471000010B5044690B10B481CF042FCEC
:10429000021E03DABDE81040FFF716BE074BD969CE
:1042A0001B6AA360C4E900119B1AE360002010BDE3
:1042B0006FF01500FBE700BFE47100009071000093
:1042C000F8B50C4F044638680D46164618B14FF045
:1042D000FF3104F0ABFC204632462946FFF782FE50
:1042E0000446386820B100231A46194604F031FA12
:1042F0002046F8BD8C7100007047704770B5C4B09F
:10430000054601A8FFF7F8FF294601A8FFF7D8FEE8
:104310000446002836D1454D454E02A901A8FFF7B5
:10432000F3FE041E64DD9DF80830002B79D0294689
:1043300002A81EF09EFC0028EFD0314602A81EF015
:1043400098FC0028E9D09DF80C31012B4FF00300B8
:1043500034D1FDF745FB0028DFD03648FDF760FB80
:10436000FDF76CFB3448FDF75BFB3448FDF758FB69
:10437000FDF794FB3248FDF753FB02A93148FDF7E6
:104380004FFBCAE70120FDF72BFBA0B12948FDF741
:1043900047FBFDF753FB2C48FDF742FB2B48FDF78D
:1043A0003FFBFDF77BFB2648FDF73AFB28482246FA
:1043B0002946FDF735FB204644B070BDFDF710FBE4
:1043C0000028AAD01B48FDF72BFBFDF737FB1A4846
:1043D000FDF726FB1948FDF723FBFDF75FFB1848A7
:1043E000FDF71EFB429A1B4802A9FDF719FB94E753
:1043F00017D00120FDF7F4FA98B10E48FDF710FB35
:10440000FDF71CFB1048FDF70BFB1048FDF708FB00
:10441000FDF744FB0A48FDF703FB0F482146FDF773
:10442000FFFA01A8FFF79EFEC5E700BF1775220837
:10443000167522088BA12208206522082C65220807
:104440003565220819752208C5662208D16622083A
:10445000FA742208257522083E75220808B5012045
:10446000FDF7BEFAA0B10B48FDF7DAFAFDF7E6FA60
:104470000948FDF7D5FA0948FDF7D2FAFDF70EFB1A
:104480000748FDF7CDFABDE808400648FDF7C8BA71
:1044900008BD00BF8BA12208C5662208D16622088C
:1044A000356522085775220830B5C3B06946054600
:1044B000FFF7CCFD00B32846FFF7F2FD0446D8B164
:1044C00010F1110F18D00120FDF78AFAA0B10B48A6
:1044D000FDF7A6FAFDF7B2FA0948FDF7A1FA094877
:1044E000FDF79EFAFDF7DAFA0748FDF799FA074853
:1044F00022462946FDF794FA43B030BD8BA122082D
:10450000C5662208D1662208356522086B75220827
:10451000F0B58BB0FFF7E2FC1F48FFF73DFED8B1C6
:104520000120FDF75DFA90B11C48FDF779FAFDF71F
:1045300085FA1B48FDF774FA1A48FDF771FAFDF782
:10454000ADFA1948FDF76CFA1848FDF769FA4FF013
:10455000FF3420460BB0F0BD06A8FFF793FE0446DB
:1045600040B30120FDF73CFA0028F2D00B48FDF7DC
:1045700057FAFDF763FA0A48FDF752FA0948FDF7C2
:104580004FFAFDF78BFA0848FDF74AFA214608482A
:10459000FDF746FADDE700BF540000008BA12208BA
:1045A000C5662208D1662208356522088F75220863
:1045B000AC7522080320FDF713FAB0B1BA48FDF735
:1045C0002FFAFDF73BFAB948FDF72AFAB848FDF78C
:1045D00027FAFDF763FAB748FDF722FADDE907315C
:1045E0005943B548890AFDF71BFA0320FDF7F8F98E
:1045F000B0B1AD48FDF714FAFDF720FAAB48FDF76E
:104600000FFAAB48FDF70CFAFDF748FAA948FDF799
:1046100007FA0999079BA9485943890AFDF700FA47
:104620000320DDE90856FDF7DBF930B39E48FDF7BE
:10463000F7F9FDF703FA9D48FDF7F2F99C48FDF7FD
:10464000EFF9FDF72BFA9B48FDF7EAF9A81B1CF0E0
:10465000C1FB9B4B00221CF037FC064628460F4648
:104660001CF0B8FB02460B46304639461CF056FD9E
:1046700002460B469348FDF7D3F9934B1868FFF7B2
:1046800013FF00F06DFC9148FFF70EFF9048FFF715
:104690000BFF9048FFF708FF8F48FFF705FF8F4992
:1046A000062201A8FFF730FC38B98D49192201A86C
:1046B000FFF798FC01A8FFF763FC8A49062202A8CD
:1046C000FFF722FC38B98849152202A8FFF78AFCB7
:1046D00002A8FFF755FC8549062203A8FFF714FC42
:1046E00038B98349232203A8FFF77CFC03A8FFF70E
:1046F00047FC8049062204A8FFF706FC48B97E4B18
:104700000593042205A904A8FFF76CFC04A8FFF791
:1047100037FC0320FDF764F990B16348FDF780F999
:10472000FDF78CF96148FDF77BF96148FDF778F9F1
:10473000FDF7B4F95F48FDF773F97048FDF770F9BC
:104740006F48FFF7DBFD051E18DA0120FDF748F979
:10475000A0B15548FDF764F9FDF770F96948FDF718
:104760005FF96948FDF75CF9FDF798F95148FDF7E5
:1047700057F9634965482A46FDF752F90320FDF7CA
:104780002FF990B14848FDF74BF9FDF757F9474825
:10479000FDF746F94648FDF743F9FDF77FF945482F
:1047A000FDF73EF95548FDF73BF90320FDF718F9F1
:1047B00090B13D48FDF734F9FDF740F93B48FDF76E
:1047C0002FF93B48FDF72CF9FDF768F93948FDF75B
:1047D00027F94F48FDF724F90320FDF701F990B1BF
:1047E0003148FDF71DF9FDF729F93048FDF718F9B3
:1047F0002F48FDF715F9FDF751F92E48FDF710F98F
:104800004448FDF70DF93148FFF778FD051E17DA2A
:104810000120FDF7E5F898B12348FDF701F9FDF710
:104820000DF93848FDF7FCF83748FDF7F9F8FDF7C2
:1048300035F92048FDF7F4F837482946FDF7F0F838
:104840000320FDF7CDF890B11748FDF7E9F8FDF723
:10485000F5F81648FDF7E4F81548FDF7E1F8FDF71F
:104860001DF91448FDF7DCF82948FDF7D9F80320B5
:10487000FDF7B6F890B10C48FDF7D2F8FDF7DEF879
:104880000A48FDF7CDF80A48FDF7CAF8FDF706F922
:104890000848FDF7C5F82148FDF7C2F80E48FFF7B4
:1048A0002DFD051E3CE000BF8BA1220820652208DB
:1048B0002C65220835652208D6752208EC75220879
:1048C0000000594001762208540000001E7622089C
:1048D0002A762208347622083E7622084F7622086D
:1048E000627622087C76220895762208AB7622082A
:1048F000C0762208E476220889504E47FF762208C7
:104900002A772208C5662208D16622082F77220856
:10491000447722086F7722088B772208A477220831
:1049200017DA0120FDF75CF898B11748FDF778F821
:10493000FDF784F81548FDF773F81548FDF770F892
:10494000FDF7ACF81348FDF76BF813482946FDF75F
:1049500067F80320FDF744F800283FF4FAAD0A4851
:10496000FDF75EF8FDF76AF80C48FDF759F80C48BA
:10497000FDF756F8FDF792F80648FDF751F809489B
:10498000FDF74EF8E5E500BF8BA12208C5662208B9
:10499000D166220835652208C577220820652208DD
:1049A0002C65220844772208F7B52E4E3468002C77
:1049B0001BDD0120FDF714F898B12B48FDF730F806
:1049C000FDF73CF82948FDF72BF82948FDF728F8B2
:1049D000FDF764F82748FDF723F831682648FDF70E
:1049E0001FF80025284603B0F0BD244F00904FF477
:1049F00003735C43224B234A1B68E51904F50074DA
:104A00004FF480713C4428461DF064FE002320468C
:104A1000A5F80832FFF771FC204607222946FFF768
:104A200073FA041E1ADA0120FCF7DAFF0028D8D046
:104A30000D48FCF7F5FFFDF701F80C48FCF7F0FF17
:104A40000B48FCF7EDFFFDF729F80A48FCF7E8FFF3
:104A5000224629460C48FCF7E3FFC2E733680133DE
:104A60003360BFE7647200008BA12208C56622088C
:104A7000D166220835652208E377220868720000B3
:104A800054000000067822081078220870B500F55E
:104A9000007605463046FFF7E5FB04460320FCF7A9
:104AA0009FFF98B11C48FCF7BBFFFCF7C7FF1B48F2
:104AB000FCF7B6FF1A48FCF7B3FFFCF7EFFF194805
:104AC000FCF7AEFF18482146FCF7AAFF3046FFF777
:104AD00057FA041E1ADA0120FCF782FFA0B10E4833
:104AE000FCF79EFFFCF7AAFF1048FCF799FF10485F
:104AF000FCF796FFFCF7D2FF0A48FCF791FF0D4840
:104B000022462946FCF78CFF204670BD0A4A1368EE
:104B1000013B13600024F7E78BA1220820652208DF
:104B20002C6522083565220824782208C5662208EB
:104B3000D1662208407822086472000084B038B53B
:104B4000044605A880E80E000146BC2204F500706A
:104B5000FFF748FA051E20DA0120FCF741FFA0B15B
:104B60000F48FCF75DFFFCF769FF0E48FCF758FFA4
:104B70000D48FCF755FFFCF791FF0C48FCF750FF80
:104B80000B482A462146FCF74BFFFFF767FC4FF026
:104B9000FF30BDE8384004B070470020F9E700BF9F
:104BA0008BA12208C5662208D16622083565220835
:104BB0005578220810B5ADF5047D324B00901B6886
:104BC000314A4FF48071044602A81DF083FD42A9CA
:104BD00002A8FFF73BFA002839DB0420FCF700FFAE
:104BE000A0B12A48FCF71CFFFCF728FF2848FCF777
:104BF00017FF2848FCF714FFFCF750FF2648FCF786
:104C00000FFF829A254842A9FCF70AFF0420829CE4
:104C1000BC23B4FBF3F4FCF7E3FEA0B11B48FCF7A4
:104C2000FFFEFCF70BFF1A48FCF7FAFE1948FCF7E9
:104C3000F7FEFCF733FF1848FCF7F2FE184822464F
:104C400002A9FCF7EDFE20460DF5047D10BD012004
:104C5000FCF7C6FE98B10D48FCF7E2FEFCF7EEFE4D
:104C60001048FCF7DDFE1048FCF7DAFEFCF716FFF3
:104C70000948FCF7D5FE0D482146FCF7D1FE4FF060
:104C8000FF34E0E754000000067822088BA12208D8
:104C9000DE6F2208EA6F2208356522086A7822084A
:104CA0008D782208C5662208D16622087C78220801
:104CB00010B5ADF5047D324B00901B68314A4FF4BE
:104CC0008071044602A81DF005FD42A902A8FFF765
:104CD000BDF9002839DB0420FCF782FEA0B12A4888
:104CE000FCF79EFEFCF7AAFE2848FCF799FE284830
:104CF000FCF796FEFCF7D2FE2648FCF791FE829A5E
:104D0000254842A9FCF78CFE0420829C2623B4FB94
:104D1000F3F4FCF765FEA0B11B48FCF781FEFCF73D
:104D20008DFE1A48FCF77CFE1948FCF779FEFCF76B
:104D3000B5FE1848FCF774FE1848224602A9FCF795
:104D40006FFE20460DF5047D10BD0120FCF748FEE6
:104D500098B10D48FCF764FEFCF770FE1048FCF7B4
:104D60005FFE1048FCF75CFEFCF798FE0948FCF774
:104D700057FE0D482146FCF753FE4FF0FF34E0E7A5
:104D800054000000F17822088BA12208DE6F22086F
:104D9000EA6F2208356522086A7822088D78220891
:104DA000C5662208D16622087C7822082DE9F041E8
:104DB000C4B05E4B00901B6806460D4617464FF484
:104DC00080715B4A04A81DF085FC03A8FFF795FAE3
:104DD000032204A903A8FFF797F8041E1CDA012098
:104DE000FCF7FEFDA0B15348FCF71AFEFCF726FEC7
:104DF0005148FCF715FE5148FCF712FEFCF74EFE39
:104E00004F48FCF70DFE4F48224604A9FCF708FE68
:104E1000204644B0BDE8F0814FF02608002208FB90
:104E200005F103A8FFF7F6F8041E18DA0120FCF7D5
:104E3000D7FD0028ECD03F48FCF7F2FDFCF7FEFD63
:104E40003D48FCF7EDFD3D48FCF7EAFDFCF726FE8A
:104E50003B48FCF7E5FD3C48224604A9D6E742461C
:104E6000394603A8FFF7A6F80446E8B125281BDC5D
:104E70000120FCF7B5FDA0B12E48FCF7D1FDFCF7F1
:104E8000DDFD2D48FCF7CCFD2C48FCF7C9FDFCF7F7
:104E900005FE2B48FCF7C4FD2C48224604A9FCF76C
:104EA000BFFD4FF0FF34B3E703A8FFF769F8041E16
:104EB00018DA0120FCF794FD0028F2D01D48FCF719
:104EC000AFFDFCF7BBFD1C48FCF7AAFD1B48FCF737
:104ED000A7FDFCF7E3FD1A48FCF7A2FD1C4822469B
:104EE00004A9DCE73046FFF7E3FE0138A84201D011
:104EF00000248DE70320FCF773FD0028F8D00D484F
:104F0000FCF78EFDFCF79AFD1248FCF789FD12486C
:104F1000FCF786FDFCF7C2FD0948FCF781FD04AAF9
:104F200029460E48FCF77CFDE2E700BF5400000074
:104F3000F17822088BA12208C5662208D1662208D2
:104F400035652208107822089E782208B278220857
:104F500040782208206522082C652208CB78220898
:104F600010B5C2B016486946FFF770F818B90024AA
:104F7000204642B010BD1248FFF792F804460028C0
:104F8000F5D010F1110FF2D00120FCF729FD002817
:104F9000EED00C48FCF744FDFCF750FD0A48FCF746
:104FA0003FFD0A48FCF73CFDFCF778FD0848FCF79C
:104FB00037FD034907482246FCF732FDD8E700BF1A
:104FC000107922088BA12208C5662208D166220822
:104FD000356522086B752208F0B5C3B00346054657
:104FE0000E4617464FF480713A4A02A81DF072FB34
:104FF000012202A901A8FEF787FF831C04462BD1DA
:10500000072202A901A8FEF77FFF0446C8B10120CC
:10501000FCF7E6FCE8B13048FCF702FDFCF70EFDBA
:105020002E48FCF7FDFC2E48FCF7FAFCFCF736FD99
:105030002C48FCF7F5FC2C4822462946FCF7F0FCEE
:1050400007E001A8FEF79CFF3A46214630461DF0D6
:1050500007FD204643B0F0BDC0B10120FCF7C0FC05
:105060000028F6D01C48FCF7DBFCFCF7E7FC1B48EB
:10507000FCF7D6FC1A48FCF7D3FCFCF70FFD1948E7
:10508000FCF7CEFC194822462946D7E73A46314676
:1050900001A8FEF78FFF041E18DA0120FCF7A0FC20
:1050A000A0B10D48FCF7BCFCFCF7C8FC0B48FCF7B2
:1050B000B7FC0B48FCF7B4FCFCF7F0FC0948FCF724
:1050C000AFFC0B4822462946FCF7AAFC01A8FEF7D4
:1050D00057FFBEE71C7922088BA12208C56622086B
:1050E000D1662208356522083479220863792208BE
:1050F00090792208F0B5C3B0034605460E46174620
:105100004FF48071274A02A81DF0E4FA062202A992
:1051100001A8FEF7F9FE0446D8B10120FCF760FCB7
:10512000A0B12148FCF77CFCFCF788FC1F48FCF789
:1051300077FC1F48FCF774FCFCF7B0FC1D48FCF73B
:105140006FFC1D4822462946FCF76AFC204643B006
:10515000F0BD3A46314601A8FFF7B2F8041E1CDA4A
:105160000120FCF73DFCA0B10F48FCF759FCFCF70F
:1051700065FC0E48FCF754FC0D48FCF751FCFCF7AD
:105180008DFC0C48FCF74CFC0C4822462946FCF7E9
:1051900047FC01A8FEF7F4FED8E701A8FFF762F884
:1051A000F7E700BF1C7922088BA12208C5662208F8
:1051B000D166220835652208AE792208DE792208F8
:1051C0001FB51022002168461DF04AFC10226946D6
:1051D0000320FFF701FF184B009A9A420FD00022DC
:1051E00000937023CDE9022369460A23102203208D
:1051F0008DF80430FFF77EFF05B05DF804FB032057
:10520000FCF7EEFB0028F7D00C48FCF709FCFCF794
:1052100015FC0B48FCF704FC0A48FCF701FCFCF702
:105220003DFC0948FCF7FCFB9DF80430039A00990B
:105230000648FCF7F5FBDFE755434D418BA12208FB
:10524000206522082C65220835652208FD79220890
:1052500084B070B5ACB030AC84E80F000A223F4C8B
:10526000B1FBF2F502FB151539B93D4A11603098D2
:105270000021FCF789FB606001E0002DF7D01223CC
:1052800003FB0543BDF8C8201A81BDF8CA205A8126
:10529000BDF8CC209A81DDF8CE20C3F80E20DDF8D1
:1052A000D220C3F81220DDF8D620C3F816202D4BEB
:1052B0002D4A05FB0333B2EB730F05D200202CB04F
:1052C000BDE8704004B07047254A1368236003208E
:1052D00001331360FCF784FB98B12448FCF7A0FB72
:1052E000FCF7ACFB2248FCF79BFB2248FCF798FB41
:1052F000FCF7D4FB2048FCF793FB21681F48FCF720
:105300008FFB1F4926686568A468B02268461DF0B7
:1053100017FD1C482346006831462A46FFF70EFC5D
:1053200004460028CAD00120FCF75AFB98B10F4868
:10533000FCF776FBFCF782FB1348FCF771FB134884
:10534000FCF76EFBFCF7AAFB0B48FCF769FB104867
:105350002146FCF765FB4FF0FF30B0E774740000A6
:1053600030750000CDCCCCCC999999198BA122082D
:10537000206522082C652208356522083A7A220821
:105380008074000048750000C5662208D1662208B6
:10539000537A220884B01FB50DF1180C8CE80F0069
:1053A0000AAA07CA6B4603C31A809CE80F00FFF7DE
:1053B0004FFF05B05DF804EB04B07047012970B5EC
:1053C000044673D1FFF7F0FA05460420FCF708FB0A
:1053D00098B15F48FCF724FBFCF730FB5D48FCF715
:1053E0001FFB5D48FCF71CFBFCF758FB5B48FCF718
:1053F00017FB5B482946FCF713FBCDB90120FCF7EE
:10540000EFFA002835D05248FCF70AFBFCF716FBF0
:105410005448FCF705FB5448FCF702FBFCF73EFB45
:105420004E48FCF7FDFA51482146FCF7F9FA20E016
:105430004F4E504935600F2000F0C4FBE0B1012011
:10544000FCF7CEFA90B14248FCF7EAFAFCF7F6FA1C
:105450004448FCF7E5FA4448FCF7E2FAFCF71EFB87
:105460003E48FCF7DDFA4448FCF7DAFA3068FFF70B
:105470000DFB4FF0FF3018E00320FCF7B1FA98B1B4
:105480003348FCF7CDFAFCF7D9FA3C48FCF7C8FAE8
:105490003B48FCF7C5FAFCF701FB3048FCF7C0FAC3
:1054A00038482146FCF7BCFA002070BD0320FCF709
:1054B00097FA90B12648FCF7B3FAFCF7BFFA2F48E9
:1054C000FCF7AEFA2E48FCF7ABFAFCF7E7FA2348F4
:1054D000FCF7A6FA2C48FCF7A3FA0021084600F0D6
:1054E00071FB0320FCF77CFA90B11948FCF798FA9D
:1054F000FCF7A4FA2148FCF793FA2148FCF790FA4C
:10550000FCF7CCFA1548FCF78BFA2048FCF788FA30
:10551000174D2868FFF7BAFAB8B10120FCF760FA16
:105520000028A6D00A48FCF77BFAFCF787FA0D485A
:10553000FCF776FA0C48FCF773FAFCF7AFFA074869
:10554000FCF76EFA124821466FE72860ACE700BF0F
:105550008BA12208DE6F2208EA6F22083565220837
:10556000787A2208C5662208D1662208857A220840
:1055700048750000956320089E7A2208206522085D
:105580002C652208B57A2208E67A2208F87A2208E1
:10559000067B22082DE9F341384EDFF810810446DE
:1055A000051D00F10C0715F8012F304641461DF08E
:1055B000C5F8BD4206F10206F5D12379002B54D07F
:1055C0002F4B1B68BBB92F4B01221A7011232E4A97
:1055D000002406216846CDE900248DF80430FCF74C
:1055E000D9F90821ADF806006846FDF7E9FA20462A
:1055F00002B0BDE8F0810220FCF7F2F990B1234837
:10560000FCF70EFAFCF71AFA2148FCF709FA2148D0
:10561000FCF706FAFCF742FA1F48FCF701FA1F48AC
:10562000FCF7FEF91E4D1F480021FFF7C7FE2B783F
:10563000C3B10220FCF7D4F990B11448FCF7F0F99B
:10564000FCF7FCF91248FCF7EBF91248FCF7E8F913
:10565000FCF724FA1048FCF7E3F91348FCF7E0F9EB
:1056600000232B702379002BADD104480021FFF7D4
:10567000A5FE0028AAD01A23A9E700BF36750000AE
:1056800048750000357500000208F2108BA1220851
:10569000207B22082C7B220835652208387B2208D3
:1056A000347500007C6522086C7B2208976C220808
:1056B0002DE9F0438BB0044600210D2201A8009192
:1056C0001DF0CEF96D46DFF8D490E61C04F10B080E
:1056D0002F4616F8012F284649461DF02FF846455B
:1056E00005F10205F5D1254B1B68D3B10220FCF76B
:1056F00077F990B12248FCF793F9FCF79FF921481C
:10570000FCF78EF92048FCF78BF9FCF7C7F91F4826
:10571000FCF786F91E48FCF783F91E480021FFF7C5
:105720004DFE3846FFF746FA05B2002D4FF00D0248
:10573000194B05934FF0000106A8BABF00251226A9
:1057400011261DF08DF96368CDF81930A8B2A36851
:10575000CDF81D30FCF712F90F21ADF8210005A896
:105760008DF81860FCF716F91121ADF8230005A893
:10577000FDF726FA00200BB0BDE8F0834875000065
:105780008BA12208207B22082C7B22083565220869
:105790008B7B22087C6522080211F211976C22088B
:1057A0002DE9F04304469BB0B0F80F00DFF81C91E0
:1057B000FCF7E7F8002105460D2201A800911DF035
:1057C0004FF96E4604F1030837460B3418F8012FE1
:1057D000304649461CF0B2FFA04506F10206F5D15D
:1057E0000420FCF7FDF8A0B13048FCF719F9FCF7EC
:1057F00025F92F48FCF714F92E48FCF711F9FCF7AE
:105800004DF92D48FCF70CF92C483A462946FCF78F
:1058100007F92622002105A81DF022F905AA29462C
:105820003846FFF7C3FA00281DDA0120FCF7D8F844
:10583000A0B11E48FCF7F4F8FCF700F92048FCF78B
:10584000EFF82048FCF7ECF8FCF728F91A48FCF7C9
:10585000E7F81D483A462946FCF7E2F84FF0FF30DA
:105860001BB0BDE8F0830023ADF8633002238DF850
:105870003C300DF13D0205AB0DAD1C4603CCAC42F6
:1058800010605160234602F10802F6D120681060D2
:10589000A388938027210FA8FCF77CF82921ADF875
:1058A00063000FA8FDF78CF90020D9E78BA122082F
:1058B000DE6F2208EA6F220835652208A77B2208DE
:1058C000C5662208D1662208C77B2208976C220889
:1058D0002DE9F0438BB0044600210D2201A8009170
:1058E0001DF0BEF86D46DFF8D490E61C04F10B08FD
:1058F0002F4616F8012F284649461CF01FFF464543
:1059000005F10205F5D1254B1B68D3B10220FCF748
:1059100067F890B12248FCF783F8FCF78FF821482C
:10592000FCF77EF82048FCF77BF8FCF7B7F81F4837
:10593000FCF776F81E48FCF773F81E480021FFF7C5
:105940003DFD3846FFF7B4F905B2002D4FF00D02CA
:10595000194B05934FF0000106A8BABF0025122687
:1059600011261DF07DF86368CDF81930A8B2A36840
:10597000CDF81D30FCF702F80F21ADF8210005A885
:105980008DF81860FCF706F81121ADF8230005A882
:10599000FDF716F900200BB0BDE8F0834875000054
:1059A0008BA12208207B22082C7B22083565220847
:1059B0008B7B22087C6522080211F213976C220867
:1059C0002DE9F04304469BB0B0F80F00DFF81C91BE
:1059D000FBF7D7FF002105460D2201A800911DF01D
:1059E0003FF86E4604F1030837460B3418F8012FD0
:1059F000304649461CF0A2FEA04506F10206F5D14C
:105A00000420FBF7EDFFA0B13048FCF709F8FCF7E4
:105A100015F82F48FCF704F82E48FCF701F8FCF7BE
:105A20003DF82D48FBF7FCFF2C483A462946FBF78A
:105A3000F7FF2622002105A81DF012F805AA294625
:105A40003846FFF7B3F900281DDA0120FBF7C8FF3D
:105A5000A0B11E48FBF7E4FFFBF7F0FF2048FBF77F
:105A6000DFFF2048FBF7DCFFFCF718F81A48FBF7CC
:105A7000D7FF1D483A462946FBF7D2FF4FF0FF30CB
:105A80001BB0BDE8F0830023ADF8633002238DF82E
:105A90003C300DF13D0205AB0DAD1C4603CCAC42D4
:105AA00010605160234602F10802F6D120681060B0
:105AB000A388938027210FA8FBF76CFF2921ADF85D
:105AC00063000FA8FDF77CF80020D9E78BA122081E
:105AD000DE6F2208EA6F220835652208A77B2208BC
:105AE000C5662208D1662208C77B2208976C220867
:105AF000F0B593B01FF0E8FC284F294C294D0590D4
:105B00003B78FBB90420FBF76BFF90B12648FBF70D
:105B100087FFFBF793FF2548FBF782FF2448FBF73D
:105B20007FFFFBF7BBFF2348FBF77AFF2248FBF719
:105B300077FF224B00202060286018601FF0ACFC2B
:105B400013B0F0BDFBF7E2FE23680B9008A906A88E
:105B50000C9300F015FABDF91C30ADF83830089BF5
:105B6000CDF83A302E68099B069ACDF83E300A9B54
:105B70000D92CDF8423046B112AA12E907006B46E9
:105B800003C31A800BAB0FCBB047236801332360EC
:105B90000B4B05A819681FF0A3FCB1E75075000076
:105BA000587500005C7500008BA12208DE6F22088A
:105BB000EA6F220835652208F47B2208547500003C
:105BC0004C7500002DE9F341384CDFF8188123684B
:105BD0000F46054678BB3BB3354B1870354B1868FC
:105BE00040000A2838BF0A2001F0C3FF2368DBB158
:105BF0000420FBF7F5FE90B12F48FBF711FFFBF7F0
:105C00001DFF2E48FBF70CFF2D48FBF709FFFBF7A4
:105C100045FF2C48FBF704FF2B48FBF701FF2068EA
:105C20001FF03AFC002323600023C8F80030002056
:105C300002B0BDE8F0811E4E23B100230A2033706C
:105C400001F097FF1B4AC8F800704FF47A73B3FB5A
:105C5000F5F313601D4A1E491E48002313600125F9
:105C60001A223570009201944FF400721FF010FC5C
:105C7000A842DCD02846FBF7B3FE90B10E48FBF7F4
:105C8000CFFEFBF7DBFE1448FBF7CAFE1348FBF719
:105C9000C7FEFBF703FF0B48FBF7C2FE1048FBF7FC
:105CA000BFFE002333704FF0FF30C1E75475000092
:105CB000507500004C7500008BA12208DE6F220891
:105CC000EA6F220835652208EE7B2208587500002D
:105CD000107C2208F16A2008C5662208D1662208D5
:105CE0001C7C22085C75000073B504466B460028D6
:105CF00045D1334A92E8030083E80300E6B219462F
:105D000030460EF0EFFB0546002840D00120FBF79F
:105D100067FE98B12B48FBF783FEFBF78FFE2A48FE
:105D2000FBF77EFE2948FBF77BFEFBF7B7FE284812
:105D3000FBF776FE27482946FBF772FE0022114644
:105D400030460EF06FFC0446B8B10120FBF748FE68
:105D500098B11C48FBF764FEFBF770FE1A48FBF78E
:105D60005FFE1A48FBF75CFEFBF798FE1848FBF74E
:105D700057FE19482146FBF753FE02B070BD0128BB
:105D800001D1164AB6E70228B8D1154AB2E7042075
:105D9000FBF726FE0028D1D00A48FBF741FEFBF7AF
:105DA0004DFE1048FBF73CFE0F48FBF739FEFBF7B2
:105DB00075FE0748FBF734FE0C482146BCE700BFE0
:105DC000480000008BA12208C5662208D16622087F
:105DD00035652208407C2208B97C2208400000007A
:105DE00038000000DE6F2208EA6F22087C7C22085F
:105DF000F8B500AF0D46BA8B02F108010446C90898
:105E00006846A0EBC1018D466846561C00F8013B70
:105E1000B9691CF095FF204633466A46A9B20EF0D8
:105E20001BFC0446C0B10120FBF7DAFD98B10B481A
:105E3000FBF7F6FDFBF702FE0948FBF7F1FD094809
:105E4000FBF7EEFDFBF72AFE0748FBF7E9FD0748E5
:105E50002146FBF7E5FD0920BD46F8BD8BA12208D0
:105E6000C5662208D166220835652208097D220808
:105E700030B587B08AB28DF8043001AB02930A9B2B
:105E800004930125BDF82C30039502A905930EF06B
:105E9000E3FC0446C0B12846FBF7A2FD98B10B48CD
:105EA000FBF7BEFDFBF7CAFD0948FBF7B9FD094842
:105EB000FBF7B6FDFBF7F2FD0748FBF7B1FD07481E
:105EC0002146FBF7ADFD092007B030BD8BA12208AC
:105ED000C5662208D166220835652208537D22084E
:105EE00080B201F035BCFFF7FBBF000008B5012010
:105EF000FBF776FD98B10B48FBF792FDFBF79EFD93
:105F00000948FBF78DFD0948FBF78AFDFBF7C6FD45
:105F10000748FBF785FD07480121FBF781FD0120BC
:105F200008BD00BF8BA12208C5662208D1662208E1
:105F300035652208537D220807B5CDE900230B46BD
:105F400002466A210120FFF793FF20B103B05DF8FC
:105F500004EBFFF7CBBF03B05DF804FB07B5CDE959
:105F600000230B4602466A210120FFF741FF20B1C2
:105F700003B05DF804EBFFF7B9BF03B05DF804FBB5
:105F80007FB505460C46454801A900F06CFA064667
:105F9000002876D10146FBF7C5FB9DF80430DA07EF
:105FA0002ED502A93D480296ADF80C6000F08DFA9E
:105FB000BDF908003A4E00F035F91FF0E1F907EE9F
:105FC000900AFDEEE77ABDF90A0017EE903A3380A9
:105FD00000F028F91FF0D4F907EE900AFDEEE77AF9
:105FE000BDF90C0017EE903A738000F01BF91FF01A
:105FF000C7F907EE900AFDEEE77A17EE903AB38004
:106000009DF804309B072CD5002302A92348029356
:10601000ADF80C3000F03AFABDF90800214E00F05E
:106020000FF91FF0ADF907EE900AFDEEE77ABDF922
:106030000A00C6ED007A00F003F91FF0A1F907EE9F
:10604000900AFDEEE77ABDF90C00C6ED017A00F08A
:10605000F7F81FF095F907EE900AFDEEE77AC6ED26
:10606000027A35B10E4B1A882A805A889B886A803A
:10607000AB808CB10B4B1A6822605A6862609B68D7
:1060800009E001210020FBF74DFB00232B806B80F2
:10609000AB80C4E90033A36004B070BD7875000024
:1060A000707500006475000037B5444C444B2360A4
:1060B000444B6360444BA3600A200023E360FFF776
:1060C0000FFF0DF10601204600F024F90320FBF735
:1060D00087FCA0B13D48FBF7A3FCFBF7AFFC3C48B5
:1060E000FBF79EFC3B48FBF79BFCFBF7D7FC3A48D1
:1060F000FBF796FC9DF806103848FBF791FC9DF8DD
:106100000630702B18D00120FBF76AFC90B12F48A5
:10611000FBF786FCFBF792FC3148FBF781FC31482A
:10612000FBF77EFCFBF7BAFC2B48FBF779FC2E480B
:10613000FBF776FC03B030BD00210846FBF7F2FA0E
:106140001E481E4D042100F089F80DF10701284674
:1061500000F0B7F89DF80740002CF6D10121174850
:1061600000F03CF90321154800F0DBF80321134847
:1061700000F005F92146114800F05EF904210F48AE
:1061800000F043F9194B0D48197821F00D0141F049
:106190000D01197000F0B8F90121084800F017FA54
:1061A0002146064800F0FCF90121044800F03DFAC0
:1061B0000421024800F022FABCE700BF7875000015
:1061C0005D6F2008396F2008E76E20088BA1220838
:1061D000206522082C65220835652208A07D22084A
:1061E000C5662208D1662208BA7D220860750000C3
:1061F00010B428B14468C068A4465DF8044B6047F9
:106200004FF0FF305DF8044B704710B428B10468BC
:10621000C068A4465DF8044B60474FF0FF305DF85E
:10622000044B704707EE900A9FED047AF8EEE77A88
:1062300067EE877A17EE900A704700BF23DB793D3F
:1062400007EE900A9FED047AF8EEE77A67EE877A18
:1062500017EE900A704700BF00008C4273B501230F
:1062600001AA0E4612210546FFF7C2FF012304468C
:106270006A4619462846FFF7BBFF20181FD1B2080F
:10628000C6F3400343EAC2139DF8042002F07E02E5
:1062900013438DF804309DF8003066F382038DF8C7
:1062A000003001AA012312212846FFF7AEFF012387
:1062B00004466A4619462846FFF7A7FF204402B065
:1062C00070BD73B5012301AA0D4612210646FFF7E2
:1062D0008FFF012304466A4619463046FFF788FFC0
:1062E000201812D19DF8043003F00102DB095B0095
:1062F00003EB82039DF80020C2F380021344022BBB
:1063000006D0042B04D013B9287002B070BD01234D
:106310002B70FAE708B50A4601230F21FFF768FF43
:1063200008BD73B501230D466A4610210646FFF7E6
:106330005FFF10BB9DF8003065F303038DF800305C
:106340006A46012310213046FFF75FFFA8B92D09E7
:1063500013D0012301AA62213046FFF749FF9DF8BF
:10636000043065F3010304468DF8043001AA0123CB
:1063700062213046FFF749FF204402B070BD73B57B
:1063800001230D466A4611210646FFF731FF9DF8AD
:10639000003065F3030304468DF800306A4601239C
:1063A00011213046FFF731FF201815D12D0913D0E8
:1063B000012301AA62213046FFF71AFF9DF804303D
:1063C00065F3010304468DF8043001AA012362211C
:1063D0003046FFF71AFF204402B070BD37B50123E5
:1063E0000D4601AA12210446FFF702FF58B99DF895
:1063F000043065F386138DF8043001AA01231221BD
:106400002046FFF702FF03B030BD37B501230D462C
:1064100001AA15210446FFF7EBFE58B99DF8043098
:1064200065F303038DF8043001AA012315212046EA
:10643000FFF7EBFE03B030BD37B501230D4601AACF
:1064400017210446FFF7D4FE58B99DF8043065F3D0
:1064500001038DF8043001AA012317212046FFF71C
:10646000D4FE03B030BD13B501230C4601AA1E2192
:10647000FFF7BEFE40B923789DF8042023F0070300
:1064800002F007021343237002B010BD13B50623B8
:106490000C466A462221FFF7ABFEA0B99DF8012009
:1064A0009DF8003003EB022323809DF803209DF824
:1064B000023003EB022363809DF805209DF8043031
:1064C00003EB0223A38002B010BD13B506230C46D4
:1064D0006A462821FFF78CFEA0B99DF801209DF89F
:1064E000003003EB022323809DF803209DF8023047
:1064F00003EB022363809DF805209DF8043003EB35
:106500000223A38002B010BD7FB50D46012303AA6C
:1065100013210646FFF76CFE9DF80C3065F3C303AC
:1065200004468DF80C3003AA012313213046FFF7EF
:106530006CFE201832D1012301AA63213046FFF7F7
:1065400057FEC5F38003C5F3C0021B0143EA4213A3
:106550009DF8042022F03002134304468DF80430E5
:1065600001AA012363213046FFF74FFE201815D101
:10657000012302AA6F213046FFF73AFE9DF808304A
:10658000C5F3400565F3861304468DF8083002AA6A
:1065900001236F213046FFF738FE204404B070BD60
:1065A00037B501230D4601AA15210446FFF720FE49
:1065B00058B99DF8043065F306138DF8043001AA2C
:1065C000012315212046FFF720FE03B030BD37B56B
:1065D00001230D4601AA16210446FFF709FE58B90A
:1065E0009DF8043065F300038DF8043001AA0123FF
:1065F00016212046FFF709FE03B030BD37B5012351
:106600000D4601AA17210446FFF7F2FD58B99DF87F
:10661000043065F347138DF8043001AA01231721D4
:106620002046FFF7F2FD03B030BD37B501230D461C
:1066300001AA18210446FFF7DBFD58B99DF8043084
:1066400065F3C3038DF8043001AA01231821204605
:10665000FFF7DBFD03B030BD82B000230193019B47
:10666000B3F57A6F01DB02B07047019B0133F5E7A8
:106670000348002300681A46194602F06AB800BFB2
:10668000F0850000024B4FF0FF31186802F0CEBADF
:10669000F08500002DE9F041069FDFF8E0802E48EC
:1066A0001D46002388F800300068D31916462B4A8F
:1066B0000DF040FE044620B10120FBF791F930B9FE
:1066C0000224274B4FF0E0224FF0805119E025487B
:1066D000FBF7A6F9FBF7B2F92348FBF7A1F923482A
:1066E000FBF79EF9FBF7DAF92148FBF799F9214806
:1066F000FBF796F9E4E7C2F8041DBFF34F8FBFF331
:106700006F8F98F80000D8B9013BF4D10120FBF756
:1067100067F990B11348FBF783F9FBF78FF912483B
:10672000FBF77EF91148FBF77BF9FBF7B7F9104847
:10673000FBF776F91048FBF773F90420BDE8F08108
:1067400035B12FB105493A46314428461CF0F8FAD4
:10675000201E18BF0120F1E7586301008875000072
:1067600041420F008BA12208C5662208D16622088B
:1067700035652208CF7D2208EA7D22085563010095
:1067800010B50446012002F0D4F8144B1860B8B9D3
:106790000120FBF725F990B11148FBF741F9FBF710
:1067A0004DF91048FBF73CF90F48FBF739F9FBF7B7
:1067B00075F90E48FBF734F90D48FBF731F9FEE7A0
:1067C00063684BB90B4B63620B4BA3620B4BE362E9
:1067D0000B4BA3630B4BE363002010BDF08500005F
:1067E0008BA12208C5662208D166220835652208D9
:1067F000067E220895762008857620087176200886
:1068000059762008C02709000FB437B506AB114CE4
:1068100053F8045B0193FBF711F90F48FBF700F9FC
:106820000E48FBF7FDF80E48FBF7FAF80D48FBF7AA
:10683000F7F8019B2A464FF4807120461CF044F87B
:1068400021460948FBF7ECF803B0BDE8304004B03E
:10685000704700BFF4850000206522082C652208DF
:106860003E7E220835652208966D220800B9FEE7B3
:1068700090F835300333DBB2013BDB00013A21FAFB
:1068800003F0083B13F1080F02F8010FF7D170472E
:1068900000487047600000001FB505220B468DF8C8
:1068A0000F2000B9FEE701B9FEE701220092446A19
:1068B0000DF10F012030A04704B010BD37B5C56BF6
:1068C00004460DF107012046FFF7E6FF9DF807306B
:1068D00003F00103034313F0FF0009D0A36B1DB1C4
:1068E00003B19847013DECE70248FFF78DFF042014
:1068F00003B030BD457E2208F0B5054685B000B92D
:10690000FEE766238DF80C300023009300F120068B
:10691000446A012203A93046A047044678B92846B4
:10692000FFF7CCFF009499238DF80D306F6A234652
:1069300001220DF10D013046B847044618B1064852
:10694000FFF762FF05E02846FFF7B8FF044600287E
:10695000F5D1204605B0F0BD6A7E22082DE9F0434E
:10696000884685B017461E46044600B9FEE703B9BF
:10697000FEE790F8343003B9FEE78B1802699342C2
:1069800007D91648FFF740FF0525284605B0BDE8A2
:10699000F083836A00F120090BB1484698472046EE
:1069A000FFF78CFF054698B903230DF10902414614
:1069B00020468DF80830FFF759FF94F835200097EE
:1069C0000432656A3346D2B202A94846A847054652
:1069D000E36A002BD9D048469847D6E78C7E220838
:1069E00030B5044685B000B9FEE700290CBF04238A
:1069F00006238DF80E3000230093456A01220DF125
:106A00000E012030A84720B90DF10F012046FFF7F5
:106A100043FF05B030BD0000F0B5054685B000B9B4
:106A2000FEE790F8343003B9FEE7836A00F12006F0
:106A30000BB13046984701212846FFF7D1FF0446A5
:106A4000C0B9C7238DF80C30AB8A6F6A1B071CD501
