:10000000010000000D900D90CCDA0200010000000C
:1000100000102000D6F1F9C200000000000000002E
:1000200000000000000000000000000000000000D0
:100030000000000000000000000000000D900D9086
:10004000A55A0000002020080000008000000000E9
:1000500000000000000000000000000000000000A0
:100060000000000000000000000000000000000090
:100070000000000000000000000000000000000080
:100080000000000000000000000000000000000070
:1010000028B001002DE02008E1DF2008E1DF200802
:10101000E1DF2008E1DF2008E1DF20080000000018
:1010200000000000000000000000000091A820085F
:10103000E1DF200800000000E1A82008B18D2008B1
:10104000E1DF2008E1DF2008E1DF2008E1DF200800
:10105000E1DF2008E1DF2008E1DF2008E1DF2008F0
:10106000E1DF2008E1DF2008C90600001909210896
:101070006DE82008D55D2108E1DF2008E1DF2008C8
:10108000E1DF2008E1DF20082D512108D15121089E
:10109000E1DF2008C5502108A9312108E1DF20083F
:1010A000E1DF2008E1DF2008E1DF2008E1DF2008A0
:1010B000F54821081549210828B00100E1DF200882
:1010C0002DE0200821060000E1DF2008E1DF2008F4
:1010D000E1DF2008E1DF200851E8200861E820086E
:1010E0005DDF2008E1DF2008BD5D210889E28D6910
:1010F000E1DF2008E1DF2008B1E52008E1DF20087A
:10110000E1DF2008E1DF200895502108AD502108DB
:10111000D54F2108ED4F2108055021081D50210809
:10112000355021084D502108655021087D50210877
:10113000E1DF2008C95D2108E1DF2008E1DF2008A8
:10114000E1DF2008E1DF2008E1DF2008E1DF2008FF
:10115000E1DF2008E1DF2008E1DF2008E1DF2008EF
:10116000E1DF2008E1DF2008C56B21080000000056
:10117000000000000000000000000000000000006F
:101180000348044B834202D0034B03B11847704716
:10119000881D0000881D0000000000000548064B67
:1011A0001B1AD90F01EBA301491002D0034B03B165
:1011B00018477047881D0000881D000000000000CF
:1011C00010B5064C237843B9FFF7DAFF044B13B18F
:1011D0000448AFF300800123237010BD881D000078
:1011E00000000000F0C5220808B5054B1BB10549F9
:1011F0000548AFF30080BDE80840FFF7CFBF00BF50
:10120000000000008C1D0000F0C5220830B585B03C
:1012100008F076FE424C2060032000F023FC98B1D9
:10122000404800F03FFC00F04BFC3F4800F03AFC27
:101230003E4800F037FC00F073FC3D4800F032FC03
:1012400021683C4800F02EFC00213B4A3B48ADF8A9
:101250000C10CDE9011119F057FA044680B1384D50
:101260002B684FF0FF31186907F008F83548214620
:1012700021F0C0FB2B68186907F025F805B030BDD8
:10128000314821F01FFC01A819F0EAFB014618B310
:101290002E4821F0AFFB00221146012007F04DF847
:1012A0002B4B1860E0B9012000F0DCFB0028E5D0F2
:1012B0001C4800F0F7FB00F003FC264800F0F2FBAE
:1012C000254800F0EFFB00F02BFC194800F0EAFB8A
:1012D000224800F0E7FBD1E701A80BF005FDDAE7B3
:1012E00000221146012007F028F81D4B1860002845
:1012F0003AD1012000F0B6FB0028BFD0094800F029
:10130000D1FB00F0DDFB134800F0CCFB124800F0ED
:10131000C9FB00F005FC064800F0C4FB1148D8E703
:10132000100000000FA72208206922082C6922085B
:10133000356922081A6A2208A5BF2108CC6D220847
:10134000887501003A6A22086E6A2208956A2208A6
:10135000A81D0000C56A2208D16A2208DB6A22089B
:10136000A41D0000FD6A2208B34AB448002106F01B
:101370007BFDB0B9012000F075FB90B1B04800F0E2
:1013800091FB00F09DFBAF4800F08CFBAE4800F0F5
:1013900089FB00F0C5FBAD4800F084FBAC4800F0D1
:1013A00081FB00F0E7FDAB4AAB48002106F05CFD95
:1013B000B0B9012000F056FB90B1A14800F072FBDB
:1013C00000F07EFB9F4800F06DFB9F4800F06AFB39
:1013D00000F0A6FB9D4800F065FBA04800F062FB12
:1013E000032000F03FFB90B1954800F05BFB00F05C
:1013F00067FB9B4800F056FB9A4800F053FB00F057
:101400008FFB924800F04EFB974800F04BFB032007
:1014100000F028FB90B18A4800F044FB00F050FB3C
:101420008F4800F03FFB8F4800F03CFB00F078FB5A
:10143000864800F037FB8D4800F034FB032000F0B5
:1014400011FB90B17E4800F02DFB00F039FB844881
:1014500000F028FB834800F025FB00F061FB7B488F
:1014600000F020FB824800F01DFB032000F0FAFA98
:10147000B8B1734800F016FB00F022FB784800F08A
:1014800011FB784800F00EFB00F04AFB6F4800F0BB
:1014900009FB00F0A9F9774B774A0146774800F03D
:1014A00001FB032000F0DEFA90B1654800F0FAFA83
:1014B00000F006FB6A4800F0F5FA6A4800F0F2FA1C
:1014C00000F02EFB614800F0EDFA6D4800F0EAFAFA
:1014D000002004F007FE012004F004FE022004F0C6
:1014E00001FE02F0CDFB02F0F1FD0446002800F001
:1014F000D380012000F0B6FA98B1514800F0D2FA3A
:1015000000F0DEFA4F4800F0CDFA4F4800F0CAFA7A
:1015100000F006FB4D4800F0C5FA5A48214600F09D
:10152000C1FA02F09BF90446002800F0CF800120A8
:1015300000F098FA98B1424800F0B4FA00F0C0FA0E
:10154000404800F0AFFA404800F0ACFA00F0E8FA8A
:101550003E4800F0A7FA4C48214600F0A3FA08F0F4
:10156000DDFC03F0D3F900F051F904F027F804F0A2
:1015700099FF01F081FE01F0EBFB0221002002F057
:1015800089FB0221012002F085FB0AF015FE0320F1
:1015900000F068FA90B12A4800F084FA00F090FA5E
:1015A0002F4800F07FFA2F4800F07CFA00F0B8FADC
:1015B000264800F077FA354800F074FA40F6B83063
:1015C00006F0D5FC09F0A2FD0446002840F0B280E8
:1015D000032000F047FA90B1194800F063FA00F0D8
:1015E0006FFA1F4800F05EFA1E4800F05BFA00F048
:1015F00097FA164800F056FA254800F053FA09F019
:101600001FFE044600287BD1032000F02BFA90B186
:101610000B4800F047FA00F053FA114800F042FA84
:10162000104800F03FFA00F07BFA084800F03AFA60
:10163000184800F037FAFEE7846D2208FD312008D3
:101640000FA72208C56A2208D16A22083569220834
:101650001E6B2208606D220895CA20083B6B220889
:10166000206922082C69220822AB2208596B220823
:10167000626B2208876B2208906B22089C6B220801
:10168000E67C2208B86B22080E6C22085A6C2208ED
:10169000986C2208BF6C2208032000F0E3F990B197
:1016A000324800F0FFF900F00BFA314800F0FAF987
:1016B000304800F0F7F900F033FA2F4800F0F2F963
:1016C0002E4800F0EFF902F0E7FD2AE7032000F0D2
:1016D000C9F990B1254800F0E5F900F0F1F9244886
:1016E00000F0E0F9234800F0DDF900F019FA224893
:1016F00000F0D8F9224800F0D5F902F017F92EE7EA
:10170000012000F0AFF9002895D0184800F0CAF980
:1017100000F0D6F91B4800F0C5F91B4800F0C2F9EB
:1017200000F0FEF9144800F0BDF92146174800F01A
:10173000B9F980E7012000F095F900283FF47BAF6C
:101740000A4800F0AFF900F0BBF90E4800F0AAF922
:101750000D4800F0A7F900F0E3F9074800F0A2F9FE
:1017600021460B4800F09EF965E700BF0FA722084D
:10177000206922082C69220835692208EB6B2208AF
:101780003C6C2208C56A2208D16A2208E86C22084B
:101790000A6D2208024A0348002106F065BB00BF1B
:1017A000A86D22080D22200803281AD8DFE800F0CF
:1017B00002080E140B4B1A788A4212D01970704727
:1017C000084B5A788A420CD059707047054B9A786A
:1017D0008A4206D099707047024BDA788A4218BF65
:1017E000D97070471400000013B5064C0123022283
:1017F000CDE900320A21044A204621F06BF9204647
:1018000002B010BDAD1D0000086E220810B53548AD
:101810008AB011F0A1F90A236422CDE90432222111
:101820001623CDE9023105230221CDE90031192229
:10183000082307A811F07CFF0446B8B1012000F08E
:1018400011F998B1284800F02DF900F039F927482E
:1018500000F028F9264800F025F900F061F9254844
:1018600000F020F92448214600F01CF907A811F0E7
:1018700023FF0446B8B1012000F0F4F898B11A48EB
:1018800000F010F900F01CF9184800F00BF91848A6
:1018900000F008F900F044F9164800F003F9174881
:1018A000214600F0FFF8012007F041FA144B1860C0
:1018B000B0B9012000F0D6F890B10B4800F0F2F872
:1018C00000F0FEF8094800F0EDF8094800F0EAF8E9
:1018D00000F026F9074800F0E5F80A4800F0E2F8C1
:1018E0000AB010BD1C8204240FA72208C56A220872
:1018F000D16A220835692208166E2208666E22080F
:10190000B81D0000AF6E220830B51A4D0446286895
:1019100085B068B34FF0FF3107F086FB01A9204680
:1019200011F026FF01A811F0C7FE0446B8B101204E
:1019300000F098F898B1104800F0B4F800F0C0F842
:101940000E4800F0AFF80E4800F0ACF800F0E8F8F0
:101950000C4800F0A7F80C48214600F0A3F80B4B08
:10196000286801221A7000231A46194607F0EFF87A
:1019700005B030BDB81D00000FA72208C56A2208B7
:10198000D16A220835692208666E2208B71D000058
:101990001FB501A811F0A8FE0446B8B1012000F05F
:1019A00061F898B10D4800F07DF800F089F80C4816
:1019B00000F078F80B4800F075F800F0B1F80A482C
:1019C00000F070F80948214600F06CF8694601A85B
:1019D00011F03AFF009804B010BD00BF0FA7220815
:1019E000C56A2208D16A220835692208D96E220800
:1019F00008B5FFF7CDFF4FF47A71A0FB010108BDD8
:101A000040BA80B2704740BA80B27047034608BA05
:101A100019BA7047FFF7FABF30B501444FF6FF73AC
:101A20004AF20104814202D158BA80B230BD10F8A6
:101A3000012B5340082203F001055B080DB1634000
:101A40009BB2013A92B2002AF5D1EBE708B505F056
:101A5000A5FEFFF79FFE05F0F7FE00B908BD05F0F3
:101A60009CFEF8E70B4B1B78024683B10A4B1B78B0
:101A7000834234BF00200120084B1B7833B1084B50
:101A80001B78134113F0010F08BF0020704701209D
:101A9000F2E700BF1A00000019000000BC1D0000A2
:101AA000180000000FB407B504A951F8040B019108
:101AB00021F0D4F803B05DF804EB04B070470000E7
:101AC00073B506F011F80E46054606F027F84FF4F8
:101AD0007A740246A5FB040104FB061100231FF0E3
:101AE000D5FE3C21B0FBF4F304FB1304B3FBF1F689
:101AF000009401FB16334EF66022B0FBF2F2B2FB0B
:101B0000F1F501FB15220449B0FBF1F10348FFF7A1
:101B1000C9FF02B070BD00BF80EE3600226F220800
:101B20007047704770477047704708B50BF08AFCE4
:101B300010F02EFA14F052F80AF0BEFFBDE808408B
:101B40000BF0FABB704706F067B908B500F00AF869
:101B500000F01AF8BDE8084000F01CB87047704764
:101B60007047000008B5054813F096F8044813F0D4
:101B700093F8BDE80840034813F08EB82D0000002C
:101B8000240000001B00000001480BF095BE00BFC0
:101B9000456F220808B504480BF07DFFBDE80840FA
:101BA00002480BF078BF00BF4D6F22084A6F220831
:101BB000034901220B68824023EA02030B6070474D
:101BC000801E0000044A0123116883400B43136008
:101BD000024B186806F034BC801E0000A41D0000F3
:101BE00010B40A4B01461A4611F8014B02F8014B9A
:101BF000D0F80140C3F80140898891805DF8044B1A
:101C0000828B1A810120FFF7DDBF00BF741E000028
:101C1000064B00F10C0250F8041B43F8041B9042E1
:101C2000F9D102881A801820FFF7CCBFBD1D000033
:101C30001920FFF7C7BF0000044B02681A608288B2
:101C40009A8082799A710220FFF7BCBF6D1E000056
:101C500010B501460446074815F055FD064A2368AD
:101C6000136063685360A3689360BDE81040172059
:101C7000FFF7A8BFE01D0000CC1D000008B5064915
:101C800003680B60436805484B6015F03CFDBDE8F8
:101C900008401620FFF796BFD81D0000E01D000089
:101CA000044B02681A6042685A6002891A81012056
:101CB000FFF788BF741E00002DE9F043904B1A789F
:101CC0000B899A42A3B00C4646D1CB7A323B062B05
:101CD00000F2F680DFE813F033000700D200950031
:101CE000A900BD00E200874D2B684FF0FF31186955
:101CF00006F0C4FA844820F0E5FE2B68186906F067
:101D0000E2FA0320FFF7AEFE90B18048FFF7CAFE6B
:101D1000FFF7D6FE7E48FFF7C5FE7E48FFF7C2FEFE
:101D2000FFF7FEFE7C48FFF7BDFE7C48FFF7BAFEDA
:101D30007B4B00221A70042009F06CFE0CE032226A
:101D40000021784821F08CF8764804F10E0121F04A
:101D50009AF90D20FFF736FF734B22891B889A42B0
:101D60004CD10320FFF77EFE90B16848FFF79AFE42
:101D7000FFF7A6FE6648FFF795FE6648FFF792FE5E
:101D8000FFF7CEFE6448FFF78DFE6848FFF78AFE36
:101D90000320FFF767FE40B1A37A04F10A06002B87
:101DA00040F0A7806248FFF77DFEA57A04F10B01A1
:101DB0002A460DF1050021F0C3F95E488DF8045064
:101DC000006800230A2201A906F0C1FEB0B9012073
:101DD000FFF748FE90B14D48FFF764FEFFF770FE35
:101DE0005548FFF75FFE5548FFF75CFEFFF798FE8A
:101DF0004948FFF757FE5248FFF754FE23B0BDE8AD
:101E0000F0838B7B4F4A3F4D303B13702B684FF074
:101E1000FF31186906F032FA4B4820F053FE2B6868
:101E2000186906F050FA0E2094E7364D47480E31F7
:101E300021F029F92B684FF0FF31186906F01EFADE
:101E4000434820F03FFE2B68186906F03CFA052055
:101E500072E72C4D2B684FF0FF31186906F00EFA2F
:101E60003C4820F02FFE2B68186906F02CFA3A4BFC
:101E70001B780BB110206DE711206BE7214D2B680B
:101E80004FF0FF31186906F0F9F9344820F01AFED6
:101E90002B68186906F017FA0B204DE7194D13202F
:101EA000FFF790FE2B684FF0FF31186906F0E6F956
:101EB0002B4820F007FE2B68186906F004FA4BE760
:101EC000104D2B684FF0FF31186906F0D7F92548FF
:101ED000EFE74846FFF7E6FD4046FFF7E3FD16F85B
:101EE000011F3846FFF7DEFDA37A01359D42F0D38E
:101EF00058E7DFF878801C4FDFF874900025EBE797
:101F0000B030000088750100506F22080FA722082A
:101F1000206922082C69220835692208666F220888
:101F20003C0100003B1E0000282000001170220828
:101F300022AB2208A8300000C56A2208D16A220814
:101F400021702208F81D00007E6F2208F91D000094
:101F5000936F2208A56F2208B8640100C36F22089E
:101F6000E56F2208F96F2208E370220824AB2208EB
:101F7000C08322082DE9F041AAB01B220021864B24
:101F8000229323A820F06CFF844BDFF838820024D2
:101F90001C6001F089FA00F071FC814B814A824992
:101FA0000594CDE90343814B0293814B2046CDE953
:101FB0000043234614F0E8FC7E48214614F0FEFC62
:101FC0007D4B0894CDE906437C4B2246CDE9024384
:101FD0002146234620461DADCDE90B44CDE90944F9
:101FE000CDE90444CDE90044CDE91144CDE90F44E5
:101FF000CDE90D4414F0ECFC7149159413222846E8
:10200000CDE91944CDE91B44ADF8584020F04EFF0E
:102010006C498DF88740284620F06CFF15AE374696
:10202000002800F09280062C40F083800320FFF708
:1020300019FD08B36448FFF735FDFFF741FD63481C
:10204000FFF730FD6248FFF72DFDFFF769FD61489E
:10205000FFF728FD9DF8593002939DF85830019301
:102060009DF8573000939DF855209DF856309DF807
:1020700054105948FFF716FD9DF8593004939DF808
:10208000583003939DF8573002939DF856300193D2
:102090009DF855300093514A9DF85430102119A8ED
:1020A00020F018FD0320FFF7DDFC98B14648FFF74C
:1020B000F9FCFFF705FD4548FFF7F4FC4448FFF73E
:1020C000F1FCFFF72DFD4348FFF7ECFC444819A94C
:1020D000FFF7E8FC19A815F013FA384615F000FAD6
:1020E00011238DF88B3009238DF88C300DF18D0480
:1020F00019AB1A4603CAAA4220606160134604F174
:102100000804F6D1374C152122A813F07DFF13F0F7
:102110004DFF23684FF0FF31186906F0AFF83248E1
:1021200020F0D0FC2368186906F0CDF82AB0BDE88D
:10213000F081102200211FF099FE414606F8010BA4
:102140000020013420F0D6FE6AE7062C3FF46EAF83
:102150000120FFF787FC90B11B48FFF7A3FCFFF7B6
:10216000AFFC2248FFF79EFC2148FFF79BFCFFF7DE
:10217000D7FC1848FFF796FC1E48FFF793FC1E4A51
:1021800010689288179017ABADF8602093E80300B1
:102190001590ADF8581049E702010600801E0000B6
:1021A000512C2008392C2008A12C2008E12B2008D4
:1021B000312C2008112C20087D2C2008B92C200857
:1021C00053702208657022080FA722082069220890
:1021D0002C6922083569220897702208CC702208E1
:1021E000E870220888750100FE702208C56A22087E
:1021F000D16A2208677022086F7222082DE9F04721
:10220000002496B03E22214606A8059420F028FE20
:10221000B64BB74E1D8828461FF0FEFC306080B9D3
:10222000B44C23684FF0FF31186906F027F8B24824
:1022300020F048FC2368186906F045F816B0BDE8A0
:10224000F0872A46214620F00BFEAC4FDFF8EC82E7
:102250003C6814F00104FBD1234601220133202BFA
:1022600006D1D8F800004FF0FF3106F0B7F8EFE7DD
:10227000396802FA03F00842F0D0013B182BE7D886
:1022800001A252F823F000BFED3220089533200858
:10229000413520085132200851322008513220089F
:1022A0005132200851322008513220085132200882
:1022B0005132200851322008CB342008D334200872
:1022C00083342008413420086F3420089F342008CC
:1022D000ED332008B5342008E135200867362008A2
:1022E0006B3620086F362008B93620080120FFF72A
:1022F0005FFC8348E82113F008FF044670B17D4D70
:102300002B684FF0FF31186905F0B8FF7D48214672
:1023100020F070FB2B68186905F0D5FF4FF4C873E7
:102320001822009376480023114613F089FE0446D4
:1023300070B1704D2B684FF0FF31186905F09EFFAA
:102340007148214620F056FB2B68186905F0BBFF49
:10235000012000F013FC0320FFF784FB00283FF46A
:1023600077AF6A48FFF79EFBFFF7AAFB6848FFF7C5
:1023700099FB6848FFF796FBFFF7D2FB6648FFF72B
:1023800091FB5F49654815F0BEF901466448FFF7C7
:1023900089FB5DE7574D0220FFF70AFC2B684FF0E1
:1023A000FF31186905F06AFF5E495C4815F0ABF92A
:1023B00001465D4820F01EFB2B68186905F083FF7D
:1023C00013F0F4FD04460028FAD12B684FF0FF31DA
:1023D000186905F053FF554820F074FB2B68186905
:1023E00005F071FF204600F0C9FB31E700241320FF
:1023F000CDE90244ADF81040FFF7DAFB4222214656
:1024000005A820F02DFD02A818F02AFB00287FF473
:102410001FAF40F60823ADF8143002AB03CB1B8886
:10242000ADF81E30424BCDF81600CDF81A101888C2
:1024300005AA422113F04CFE02A80AF055FC07E75A
:102440001020FFF7B5FB402200210DF1160020F00F
:1024500007FD384B1B788DF8153007238DF81430A5
:10246000334B05AA1888422113F032FEF0E6112002
:10247000FFF79EFB412200210DF1150020F0F0FC3A
:10248000EBE70F20FFF794FB402200210DF116002F
:1024900020F0E6FC4FF48273ADF81430E0E7122030
:1024A000FFF786FB412200210DF1150020F0D8FC3A
:1024B0000223D3E71420FFF77BFB412200210DF11B
:1024C000150020F0CDFC0123C8E70D20FFF770FBBD
:1024D000BEE60E20FFF76CFB174B1B78002B7FF43A
:1024E000B7AE052009F096FAB2E600BF3E01000043
:1024F000F41D0000887501001C712208801E000078
:10250000751E0000467122086F7122080FA722086D
:10251000206922082C69220835692208E01D000084
:10252000A17122086D1E0000BF712208E771220808
:10253000AE300000B8640100F81D0000A41D0000CA
:102540000320FFF735FB412200210DF1150020F09B
:1025500087FC03238DF814303368DFF880911B6803
:102560008DF81530554B05AA1888422113F0B0FD9F
:10257000D6F800A0DAF80030E5B2AB4204F101046D
:102580000ED84F4C23684FF0FF31186905F076FEE6
:102590004C4820F097FA2368186905F094FE57E636
:1025A0004222002105A820F05BFC2E235D430AEBAC
:1025B00005030C355B7A8DF814300AEB05012C23EA
:1025C0000DF116008DF8153020F05DFDB9F8000012
:1025D00005AA422113F07CFD0A2005F0C8FCC7E7DC
:1025E000394B002515209C680295ADF80C50FFF77B
:1025F000DFFA29463F220DF1170020F031FC4FF49D
:102600008173ADF8143002A92C2301208DF8163007
:1026100018F0E6F9F8B12C238DF81D30C4F3072328
:102620008DF81F30C4F307438DF81E408DF820301D
:10263000C4F30764214B8DF82140214C188805AA6A
:10264000422113F045FD23684FF0FF31186905F072
:1026500015FE1E489DE70298BDF80C30CDF8170016
:10266000ADF81B30D7E7162030E717202EE71820EB
:10267000FFF79EFA164B9B799B067FF5E9AD15484F
:102680004FF4A472FB2113F0F3FC044600283FF43E
:10269000DFAD0B4D2B684FF0FF31186905F0EEFDF3
:1026A00021460D4820F0A6F92B68186905F00BFEAD
:1026B0001820FFF787FACBE5192007E7AE300000B6
:1026C00088750100FE71220824640100227222082C
:1026D000BD1D0000751E00003A722208AC300000DB
:1026E000013870B50D46144604281BD8DFE800F009
:1026F0000312141618000C4E0021306820F0B0FBB5
:1027000030682246294620F01BFD0320BDE87040BA
:10271000FFF758BA1520F9E71420F7E70F20F5E77F
:102720001220F3E770BD00BFF41D000003681BBA60
:102730004B6083885BBA0B81C3885BBA4B81437A59
:102740000B73037A4B73C37A8B73837ACB73C37B1C
:102750000B74837B4B74437B8B74037BCB7470470C
:102760002DE9F041C4B00C469DF828810746164675
:1027700000214FF4887268461D4620F071FB022349
:1027800042F60302B8F1100FADF8044000978DF83F
:102790000830ADF80C208DF81C3009AC13D114238F
:1027A00029460DF12200ADF81E308DF8206014F09E
:1027B00025FF4BAB0FCB84E80F00684613F083FC7A
:1027C00044B0BDE8F081042329460DF12200ADF8A4
:1027D0001E308DF8206014F011FFBDF82C1120463A
:1027E00014F00CFFE9E782B02DE9F041C4B00E46C9
:1027F0004AA981E80C0007464FF488720021684618
:102800009DF83C814AAD20F02BFB9DF84431ADF89A
:1028100006300FCD02AC0FC42B6850992360E6221E
:1028200008A8ADF81E200097ADF804608DF81C8054
:1028300020F086FC684613F046FC18F0100F18D004
:102840004FF488720021684620F00AFB42F602121B
:1028500002230136ADF80C2068460A220097ADF835
:1028600004608DF808308DF81C20ADF81E3013F090
:102870002AFC44B0BDE8F04102B070472DE9F043B6
:10288000C5B006AD002306936B60A84B0AAA03F1FE
:102890001006904618685968144603C40833B342BA
:1028A0002246F7D1A249A34C4046FFF73FFF102331
:1028B0000B7001950B6900930FC913F0ECFB069B9D
:1028C00023600320BDF81C30A380FFF7CBF898B13C
:1028D0009948FFF7E7F8FFF7F3F89848FFF7E2F8B1
:1028E0009748FFF7DFF8FFF71BF99648FFF7DAF88C
:1028F000A1889548FFF7D6F80021E2220BA80A919B
:1029000020F0AEFA914B2E4603F110071868596873
:10291000324603C20833BB421646F7D1DFF8549261
:1029200010234946284689F80030FFF7FFFEA188AA
:102930004F4601F1020E01F1010C0FCF6E460FC69A
:102940003B6833601FFA8CF11FFA8EF3206808226F
:10295000FFF706FF0023A688CDE90483082303932D
:102960004B4493E807008DE80700023699E80C0015
:102970002068B1B2FFF737FFA388754E02330320FA
:102980003380FFF76FF898B16B48FFF78BF8FFF7CC
:1029900097F86A48FFF786F86948FFF783F8FFF76A
:1029A000BFF86848FFF77EF831886A48FFF77AF881
:1029B0000021E2220BA80A9120F052FA664B2E4623
:1029C00003F1100718685968324603C20833BB4246
:1029D0001646F7D1DFF8A09110234946284689F81A
:1029E0000030FFF7A3FEA1884F4601F1040E01F16C
:1029F000030C0FCF6E460FC63B6833601FFA8CF195
:102A00001FFA8EF320680222FFF7AAFE8023A68811
:102A1000CDE904830223039309F1080393E8070037
:102A20008DE80700043699E80C002068B1B2FFF782
:102A3000DAFEA388494E043303203380FFF712F8EF
:102A400098B13D48FFF72EF8FFF73AF83B48FFF7FB
:102A500029F83B48FFF726F8FFF762F83948FFF7F7
:102A600021F831883E48FFF71DF80021E2220BA82B
:102A70000A9120F0F5F93B4B2E4603F11007186838
:102A80005968324603C20833BB421646F7D1364F67
:102A90004FF010092846394687F80090FFF746FEA8
:102AA000A1883E4601F1060E01F1050C0FCE6D46E0
:102AB0000FC533682B601FFA8CF11FFA8EF3206864
:102AC0004A46FFF74DFE0023A588CDF80C90CDE9CE
:102AD000048307F1080393E807008DE80700063533
:102AE00097E80C002068A9B2FFF77DFEA3881F4D70
:102AF000063303202B80FEF7B5FF98B10E48FEF792
:102B0000D1FFFEF7DDFF0D48FEF7CCFF0C48FEF7C6
:102B1000C9FFFFF705F80B48FEF7C4FF29881448E2
:102B2000FEF7C0FF45B0BDE8F08300BF9B732208ED
:102B300010200000CC1F00000FA7220820692208E7
:102B40002C6922083569220875722208DE72220873
:102B5000282000009B722208EF7222082620000025
:102B6000B072220800732208D41F00002420000045
:102B7000C5722208E81F0000FC1F000008B51E4BAC
:102B8000012818701AD10320FEF76CFF90B11B4882
:102B9000FEF788FFFEF794FF1948FEF783FF1948F8
:102BA000FEF780FFFEF7BCFF1748FEF77BFF1748D4
:102BB000FEF778FFBDE8084001F074BBD0B90320F0
:102BC000FEF750FF90B10D48FEF76CFFFEF778FF5F
:102BD0000B48FEF767FF0B48FEF764FFFEF7A0FF08
:102BE0000948FEF75FFF0A48FEF75CFFBDE80840B2
:102BF00001F055BB08BD00BFC81F00000FA7220889
:102C0000206922082C6922083569220811732208DC
:102C10004573220838B5084D284614F095FC2C78E9
:102C200044B1064B2246691C184620F089FA00225E
:102C3000025538BD0248FCE7841F0000B81F0000A1
:102C4000707322082DE9F843324B1B78012B06469E
:102C50000C4643D10320FEF705FF90B12E48FEF746
:102C600021FFFEF72DFF2D48FEF71CFF2C48FEF735
:102C700019FFFEF755FF2B48FEF714FF2A48FEF711
:102C800011FF0320FEF7EEFE08BB284B224631461B
:102C9000184620F055FA264BE1B280F8FF100246A4
:102CA0001888BDE8F84313F013BA15B13846FEF79B
:102CB000F9FE4046FEF7F6FE715D4846FEF7F2FE6D
:102CC0000135AC42F1D81B48FEF7ECFEDDE71A4FA8
:102CD000DFF87480DFF874900025F2E70120FEF73A
:102CE000C1FEA0B10C48FEF7DDFEFEF7E9FE134879
:102CF000FEF7D8FE1248FEF7D5FEFEF711FF094891
:102D0000FEF7D0FEBDE8F8430E48FEF7CBBEBDE8A7
:102D1000F88300BFC81F00000FA7220820692208FF
:102D20002C6922083569220878732208841E000065
:102D30002620000022AB2208C0832208C56A220890
:102D4000D16A22088873220824AB2208E370220883
:102D500008B500F059FC002008BD00002DE9F04F37
:102D6000DFF8B0B15F4C604EA3B0DBF800000A2280
:102D700001A906F0BAF80128F7D19DF80530012B1A
:102D800017D0FEF76FFEA0B12046FEF78BFEFEF7D0
:102D900097FE3046FEF786FE5448FEF783FEFEF7A8
:102DA000BFFE5348FEF77EFE9DF805105148FEF722
:102DB00079FE9DF806509DF80430AB4219D00120F1
:102DC000FEF750FEA8B12046FEF76CFEFEF778FE37
:102DD0003046FEF767FE4548FEF764FEFEF7A0FEAC
:102DE0004348FEF75FFE9DF8041043482A46FEF76D
:102DF00059FE9DF8041001F188036B44023989B231
:102E00000DF1050033F8857CFEF706FE8742054686
:102E100018D00120FEF726FEA0B12046FEF742FEA4
:102E2000FEF74EFE3046FEF73DFE3048FEF73AFE16
:102E3000FEF776FE2E48FEF735FE30482A46394624
:102E4000FEF730FE2E4D002795F800909DF80830D3
:102E50004B4541D1D5F80480B8F1000F3CD095F82E
:102E600008A09DF80430534519D00120FEF7FAFD63
:102E7000A8B12046FEF716FEFEF722FE3046FEF70A
:102E800011FE1A48FEF70EFEFEF74AFE1848FEF73E
:102E900009FE9DF804101B485246FEF703FE04206D
:102EA000FEF7E0FD98B12046FEF7FCFDFEF708FEB8
:102EB0001548FEF7F7FD1548FEF7F4FDFEF730FE66
:102EC0000B48FEF7EFFD12484946FEF7EBFD9DF873
:102ED00004100DF10500C0470137112F05F10C0555
:102EE000B2D142E70FA72208C56A2208D16A220898
:102EF00035692208AB732208F8732208C6732208CA
:102F000094752208ED7322082A7422083674220868
:102F100040742208A830000008B54179007900F01B
:102F20004DFC002008BD000007B5094A1123062109
:102F30006846CDE90023FEF76FFD0821ADF80600D5
:102F40006846FFF77FFE002003B05DF804FB00BF7A
:102F50000208F20B07B5094A112306216846CDE99C
:102F60000023FEF759FD0821ADF806006846FFF77B
:102F700069FE002003B05DF804FB00BF0208F20AFE
:102F800007B5094A112306216846CDE90023FEF75B
:102F900043FD0821ADF806006846FFF753FE002008
:102FA00003B05DF804FB00BF0208F20D13B504790D
:102FB0000420FEF757FD98B11448FEF773FDFEF7A5
:102FC0007FFD1348FEF76EFD1248FEF76BFDFEF71E
:102FD000A7FD1148FEF766FD10482146FEF762FD89
:102FE0000F4B00930024112305216846ADF80430EF
:102FF0008DF80640FEF710FD0721ADF80500684684
:10300000FFF720FE204602B010BD00BF0FA7220828
:103010002A74220836742208356922085F7422084F
:103020000207F21A13B504460420FEF71BFD98B1FF
:103030001248FEF737FDFEF743FD1148FEF732FD5B
:103040001048FEF72FFDFEF76BFD0F48FEF72AFD37
:1030500021790E48FEF726FD0D4A11230621684608
:10306000CDE90023FEF7D8FC0821ADF8060068463C
:10307000FFF7E8FD002002B010BD00BF0FA7220837
:103080002A742208367422083569220870742208CE
:103090000208F20407B5154A112306216846CDE956
:1030A0000023FEF7B9FC0821ADF806006846FFF7DB
:1030B000C9FD0320FEF7D6FC90B10D48FEF7F2FCE7
:1030C000FEF7FEFC0B48FEF7EDFC0B48FEF7EAFCB2
:1030D000FEF726FD0948FEF7E5FC0948FEF7E2FC8D
:1030E00001F0E3F8002003B05DF804FB0208F20CE5
:1030F0000FA72208206922082C69220835692208B6
:103100008574220800B58DB02B2200210DF1050039
:103110001FF0A6FE30238DF80130F2238DF8023027
:1031200011238DF8043001238DF808308DF8093013
:103130008DF80D30154B02228DF800208DF80320FC
:103140008DF80A2003F10C010DF10E0253F8040B67
:1031500042F8040B8B42F9D11B781370FFF75AFD2C
:10316000D0F80330CDF81B30D0F80730CDF81F3041
:103170002E216846FEF750FC3021ADF82E0068463F
:10318000FFF760FD00200DB05DF804FBB774220866
:1031900010B5104A86B0002411236846CDE90223F9
:1031A00004948DF8144014F0D4F90098BDF804305C
:1031B000CDF80D000B2102A8ADF81130FEF72CFC64
:1031C0000D21ADF8130002A8FFF73CFD204606B024
:1031D00010BD00BF020DF20108B500F07FFA00201B
:1031E00008BD000010B5124A86B000241123CDE9B5
:1031F00002230494ADF814408DF81640FEF7F8FB56
:10320000FEF704FCCDE900016B4603CBCDF80D00C1
:10321000CDF8111018460D21FEF7FEFB0F21ADF879
:10322000150002A8FFF70EFD204606B010BD00BF36
:10323000020FF20507B5034640689968FEF7EAFBFE
:103240004FF47A7200231EF021FBFEF75DFB094A62
:10325000112306216846CDE90023FEF7DDFB082196
:10326000ADF806006846FFF7EDFC002003B05DF8FE
:1032700004FB00BF0208F20630B5414B1A7885B056
:10328000002A7BD10125812105201D7005F001FC5C
:103290003C4C2060D0B92846FEF7E4FB00286DD0F6
:1032A0003948FEF7FFFBFEF70BFC3848FEF7FAFB48
:1032B0003748FEF7F7FBFEF733FC3648FEF7F2FB24
:1032C000354805B0BDE83040FEF7ECBB0320FEF703
:1032D000C9FB90B12C48FEF7E5FBFEF7F1FB2F4848
:1032E000FEF7E0FB2E48FEF7DDFBFEF719FC294850
:1032F000FEF7D8FB2B48FEF7D5FB2B4B02932B4B4D
:1033000001931B2300932A492A4800234FF480622B
:1033100022F002FBE0B90120FEF7A4FB90B11A48AD
:10332000FEF7C0FBFEF7CCFB1848FEF7BBFB1848C6
:10333000FEF7B8FBFEF7F4FB1648FEF7B3FB1E489A
:10334000FEF7B0FB206805B0BDE8304005F0E8BFEF
:103350000320FEF787FB88B10B48FEF7A3FBFEF7BF
:10336000AFFB0E48FEF79EFB0D48FEF79BFBFEF7FA
:10337000D7FB0848FEF796FB1048A2E705B030BD22
:10338000A4300000A83000000FA72208C56A220858
:10339000D16A220835692208C574220820692208EA
:1033A0002C692208ED7422082C200000A4200000C3
:1033B000197522085D3D20083475220862752208BF
:1033C00082B02DE9F041C4B00E464AA981E80C0054
:1033D00007464FF48872002168464AAD9DF83C814B
:1033E0001FF03EFD0FCD02AC0FC42B685099236037
:1033F000422208A8ADF81E200097ADF804608DF8B1
:103400001C801FF09DFE684612F05DFE18F0100F44
:1034100018D04FF48872002168461FF021FD42F653
:10342000021202230136ADF80C2068460A220097EA
:10343000ADF804608DF808308DF81C20ADF81E3012
:1034400012F041FE44B0BDE8F04102B07047F0B563
:10345000C5B007460E46154600214FF488726846EF
:103460001C461FF0FDFC022342F603028DF80830D3
:103470008DF81C30214606230DF12200ADF80C20FA
:10348000ADF81E300097ADF804608DF8205014F0B0
:10349000B5F8BDF8281109A814F0B0F8684612F084
:1034A00012FE45B0F0BD00002DE9F0419EB008AC21
:1034B00000271422002120461FF0D2FC39463E226C
:1034C0000EA8CDE906770D971FF0CAFC02238DF8F0
:1034D000203006AD4AF6BB230195ADF824300097A5
:1034E00094E80F0012F0D7FDBDF81C10069841F6C5
:1034F000A1228B1C0131ADF8242000929BB208223E
:1035000089B2FFF7A4FFBDF81C602F4B02361E7076
:103510000DF134080823CDF8108003930AAD95E827
:1035200007008DE80700069894E80C00B1B2FFF799
:1035300047FFBDF81C10069841F6B1320B1D033150
:10354000ADF8242000929BB20A2289B2FFF77FFFD8
:10355000BDF81C601D4B0436B6B21E800A23CDF8A0
:103560001080039395E807008DE80700069894E81B
:103570000C003146FFF724FFBDF81C10069841F6F9
:10358000C1428B1D0531ADF8242000929BB212225E
:1035900089B2FFF75CFFBDF81C600D4B0636B6B272
:1035A0001E801223CDF81080039395E807008DE864
:1035B0000700069894E80C003146FFF701FF3846F3
:1035C0001EB0BDE8F08100BFB0300000AE3000009A
:1035D000AC30000007B5002301930A4B01A918681D
:1035E00005F023FC019B4BB14FF0E0234FF08052DC
:1035F000C3F8042DBFF34F8FBFF36F8F03B05DF897
:1036000004FB00BF3071000030B5032285B00021FB
:10361000012005F03EFA244C206070B1234B00934A
:1036200000232348234D1A464FF47A7106F04EF8D2
:10363000286030B9206805F073FE4FF0FF3005B008
:1036400030BD1D4B02931D4B01931A2300931C495F
:103650001C4800234FF4805222F05EF908BB012081
:10366000FEF700FA90B11848FEF71CFAFEF728FAA8
:103670001648FEF717FA1648FEF714FAFEF750FA46
:103680001448FEF70FFA1448FEF70CFA206805F00C
:1036900047FE0023009328681A46052106F086F8A5
:1036A000CBE70020CBE700BF30710000D5452008F4
:1036B0006076220834710000B43000002C31000024
:1036C000707622085D4720080FA72208C56A2208E5
:1036D000D16A2208356922087F76220810B51D4A72
:1036E00088B01123CDE901231B4B0024CDE903430E
:1036F00040F2811045F20263CDE90534ADF81C407B
:10370000FEF77EF9ADF816000120FEF779F9ADF865
:10371000180042F23000FEF773F9ADF81A00FFF717
:1037200079FAD0F80630CDF80930D0F80A30CDF863
:103730000D301821062301A88DF81130FEF76CF921
:103740001A21ADF81C0001A8FFF77CFA204608B04A
:1037500010BD00BF021AF2160000010183B5DFF8A8
:103760005480DFF85490124ED8F800004FF0FF312B
:1037700005F05AFC01280446F6D1FFF7AFFFD9F84F
:103780000020002AF0D000254FF47A712B464A43DE
:1037900030680095042106F009F8376822F0A4F893
:1037A000009502462B462146384605F0FFFFDBE731
:1037B00034710000307100002C710000F02907B551
:1037C000034604D8012815D0022803D078B14FF061
:1037D000FF3009E00D4A002313600D481A460068C7
:1037E000194605F0B4F9002003B05DF804FB074A60
:1037F0001160F2E7054A07480023136000931A4658
:103800000321006805F0D2FFEDE700BF2C71000036
:1038100030710000347100000E4BDFED0F7A93ED34
:10382000027AB4EEE77AF1EE10FACCBF0122002260
:103830005A731A7805DD5F2A34BF042205221A73F1
:1038400070470A2A04D9142A8CBF01220222F6E703
:103850000322F4E744710000000048421FB5264BE4
:10386000264864221A70264A5A6000229A6001246F
:1038700000229C819A73234B009321466B46CDE92D
:103880000122039204F082FB1F4B1860C0B920464E
:10389000FEF7E8F890B11D48FEF704F9FEF710F9BD
:1038A0001B48FEF7FFF81B48FEF7FCF8FEF738F957
:1038B0001948FEF7F7F81948FEF7F4F8012004E07C
:1038C0000320FEF7CFF810B9002004B010BD0F4858
:1038D000FEF7E8F8FEF7F4F81148FEF7E3F81148B0
:1038E000FEF7E0F8FEF71CF90B48FEF7DBF80E4890
:1038F000FEF7D8F8E8E700BF44710000754B2008D8
:1039000066668640937622083C7100000FA7220865
:10391000C56A2208D16A220835692208A9762208D8
:10392000206922082C6922083C6C220808B5204B2B
:10393000186800283AD041F2883104F07FFBC0B10A
:103940000120FEF78FF890B11A48FEF7ABF8FEF7AA
:10395000B7F81948FEF7A6F81848FEF7A3F8FEF7DF
:10396000DFF81748FEF79EF81648FEF79BF801208F
:1039700007E0154B012203201A70FEF773F808B90F
:10398000002008BD0B48FEF78DF8FEF799F80F48A8
:10399000FEF788F80E48FEF785F8FEF7C1F80848EC
:1039A000FEF780F80B48FEF77DF8E9E71120E8E71D
:1039B0003C7100000FA72208C56A2208D16A2208BC
:1039C00035692208D2762208387100002069220861
:1039D0002C692208FA762208F0B5594C85B0267B6E
:1039E00020706160A260FFF717FF257BB54200F0F1
:1039F000A5800320FEF736F800B35248FEF752F8D0
:103A0000FEF75EF85048FEF74DF85048FEF74AF8CA
:103A1000FEF786F84E48FEF745F8A06827781DF0B7
:103A2000FBFBCDE9020160681DF0F6FB3B46CDE9EA
:103A300000012A4647483146FEF734F86B1E042B36
:103A40001FD8DFE803F05F0303294400A37BC3B959
:103A500001230220A373FEF705F890B13948FEF761
:103A600021F8FEF72DF83C48FEF71CF83B48FEF71E
:103A700019F8FEF755F83648FEF714F83848FEF7FF
:103A800011F8384B1B68002B58D02D4A2946304678
:103A900005B0BDE8F0401847A37B0BB10023A3732A
:103AA0000320FDF7DFFF0028EBD02648FDF7FAFFE3
:103AB000FEF706F82448FDF7F5FF2448FDF7F2FF6E
:103AC000FEF72EF82248FDF7EDFF2748D7E7A37B46
:103AD0000BB10023A3730320FDF7C4FF0028D0D04F
:103AE0001848FDF7DFFFFDF7EBFF1748FDF7DAFF9A
:103AF0001648FDF7D7FFFEF713F81548FDF7D2FF7C
:103B00001A48BCE7A37B002BBBD000230320A37380
:103B1000FDF7A8FF0028B4D00A48FDF7C3FFFDF762
:103B2000CFFF0948FDF7BEFF0848FDF7BBFFFDF7D3
:103B3000F7FF0748FDF7B6FF0D48A0E705B0F0BD59
:103B4000447100000FA72208206922082C6922086E
:103B500035692208147722084E7722085A772208FE
:103B6000667722084071000086772208997722083C
:103B7000AD772208044B1B7823B10449002255205D
:103B8000FFF72ABF704700BF38710000333373401E
:103B900070B5244E3368002B33D0013B3360002BCB
:103BA0002FD1214C214D2378618815F83320914283
:103BB00006D305EBC3035B78DB0926D000236380C3
:103BC0001B4B62881878237805EBC3035B6803EB13
:103BD00082039B78DB0722D509F076FF2278638881
:103BE00015F8321001290AD005EBC2056A6802EB0C
:103BF00083025288012A8CBF5208012232600133AD
:103C00006380BDE8704000F043B92379237005EB71
:103C1000C303E2885B786280DB09CFD1D0E709F08B
:103C20007BFFDBE75C71000054710000E477220841
:103C30004D6F220807B50123CDE90033044A05483A
:103C400000230A2103F0BCFF03B05DF804FB00BFB2
:103C5000914B200860710000064B10B500241C70C9
:103C60005C801C71DC80044B187809F055FF034B15
:103C70001C6010BD547100004D6F22085C71000083
:103C800008B500F0B7F8FFF7E7FFBDE80840FFF719
:103C9000D1BF000038B548BB03292ED8184A157883
:103CA000A9422AD0174C04EBC10304EBC5045B788E
:103CB0006478E4094FEAD31313D063B150801170D4
:103CC0001171D080104B187809F026FF0F4A01239C
:103CD0001360184638BD50881571D080117053801C
:103CE000F0E7002BF5D01171D480EBE7012804D167
:103CF000BDE83840084600F09BB80023E9E700BF64
:103D000054710000E47722084D6F22085C710000B6
:103D10000F4A1378052B17D850781BB9392815D9B5
:103D200010F074BA5A1E012A05D9032B08D0042BAF
:103D300008D0062800E0102834BF0020212070475A
:103D40000A28F9E70C28F7E7212070471846704742
:103D50005000000038B5FFF7DBFF88BB224B1D7811
:103D60005C78052D0AD921484FF4CE7111F08CF8FA
:103D70001E484FF4D27111F087F82EE0032D0ED9B2
:103D8000042D28D10B2C04D9184840F2A11111F0B0
:103D90007BF8240104F1105404F598240EE085B951
:103DA0004B2C04D911484FF4CF7111F06DF804EB8E
:103DB0000514240104F18C4404F598140023636075
:103DC00038BD012D01D13B2CEBE7022D01D12B2C6D
:103DD000E7E71B2CE5E7052CCAD8054BA4001A59C8
:103DE0006FF345121A51EBE7500000001C782208CF
:103DF0001C8604240B4A13785178907843EA0123F7
:103E000010B543EA004010F0C1FA044640B9064B31
:103E1000187058801871D880FFF79CFF034B1C6006
:103E200010BD00BF500000008071000088710000CC
:103E3000032838B5014622D8124A157885421ED08B
:103E4000114C04EBC00304EBC5045B78D80963781C
:103E5000DB0911D028B10023538011701171D38078
:103E600004E053881571D38011705080FFF772FF02
:103E7000064B0120186001E00028EFD138BD00207A
:103E8000FCE700BF80710000D07822088871000034
:103E90002DE9F041494E3368002B75D0013B33606A
:103EA000002B71D1464F474D3B78798815F8332068
:103EB000914206D305EBC3035B78DB0921D00023D5
:103EC0007B803B787A8805EBC3035B6803EB820356
:103ED0009B78DB076FD5FFF71BFF002841D13A4BDA
:103EE00093F800805C78B8F1050F14D937484FF487
:103EF0009B7110F0C9FF35484FF49F7110F0C4FF5B
:103F000052E03B793B7005EBC303FA885B787A801B
:103F1000DB09D4D1D5E7B8F1030F0FD9B8F1040FFD
:103F200040D10B2C04D9294840F23B1110F0ACFFD2
:103F3000240104F1105404F5982410E0B8F1000FA6
:103F400024D14B2C04D921484FF49C7110F09CFFD4
:103F500004EB0814240104F18C4404F598140123A3
:103F600063603A787B8815F8321001290AD005EB96
:103F7000C2056A6802EB83025288012A8CBF52088C
:103F80000122326001337B80BDE8F081B8F1010F7E
:103F900001D13B2CD6E7B8F1020F01D12B2CD1E790
:103FA0001B2CCFE7052CA6D8094BA4001A5942F0C8
:103FB00020021A51D5E7FFF7CDFED2E78871000045
:103FC00080710000D0782208500000001C78220880
:103FD0001C860424034B0146187408B101210020FB
:103FE000FFF758BE8C71000038B5134C134B227884
:103FF000A07803EBC2052979884204D353F8323004
:104000001B794BB9A3700023E37003F021FFA0607C
:10401000BDE8384000F014B8022300206370FFF7B9
:10402000D9FF6B7933B1E98821B1A069BDE8384087
:1040300004F004B838BD00BF8C71000090792208EC
:10404000F8B51B4C1B4E2278A07856F83250E27817
:1040500000EB400305EB43014F79BA4206D32FB181
:10406000431CA370BDE8F840FFF7BEBF35F81350FE
:104070008DB9488848B9FFF7ADFF4FF47A7560698C
:104080002946BDE8F84003F0D9BF237C5BB9012085
:10409000FFF7A0FFD7E7237C2BB90120FFF79AFF9A
:1040A000002DD0D0EBE701324D88E2700020F5E71B
:1040B0008C71000090792208034B5B78012B01D1B1
:1040C000FFF7BEBF704700BF8C71000030B5374DA1
:1040D000374889B0082300242B60364B00932246D2
:1040E0006B462146CDE901442C712C74039403F0F6
:1040F0004DFF6861C0B90120FDF7B4FC90B12E48B6
:10410000FDF7D0FCFDF7DCFC2C48FDF7CBFC2C4880
:10411000FDF7C8FCFDF704FD2A48FDF7C3FC2A485B
:10412000FDF7C0FC01202BE0284B0493284807949E
:1041300004AB22462146CDE9054403F027FFA861E0
:10414000B0B90120FDF78EFC0028EBD01A48FDF72E
:10415000A9FCFDF7B5FC1948FDF7A4FC1848FDF7CC
:10416000A1FCFDF7DDFC1748FDF79CFC1948D7E7DB
:104170002046FFF72FFF0420FDF774FC10B9002044
:1041800009B030BD0C48FDF78DFCFDF799FC1248D5
:10419000FDF788FC1148FDF785FCFDF7C1FC0948D7
:1041A000FDF780FC0E48FDF77DFCE8E78C71000010
:1041B000B9502008087922080FA72208C56A2208EA
:1041C000D16A220835692208197922083D79220826
:1041D00095522008517922082A7422083674220840
:1041E000EB6B2208082838B5054635D81B4C6069AA
:1041F00003F040FFA06903F03DFF0123637000233B
:1042000025706380237103F023FEE0600420FDF736
:1042100029FC98B11248FDF745FCFDF751FC114807
:10422000FDF740FC1048FDF73DFCFDF779FC0F4819
:10423000FDF738FC0E482946FDF734FC082D01D067
:10424000062D06D10020FFF7C5FE02236370002073
:1042500038BDFFF7C9FEFAE72120F9E78C710000AD
:104260000FA722082A74220836742208356922080A
:104270007879220810B5064C606903F0FBFEA0694E
:1042800003F0F8FE0020FFF7A5FE0823238010BDF1
:104290008C710000FFF7EEBF0020FFF7A3BF0120E5
:1042A000FFF7A0BF0220FFF79DBF0420FFF79ABFD2
:1042B0000520FFF797BF0620FFF794BF0720FFF701
:1042C00091BF0000543054289ABF024B18566FF02B
:1042D00004007047417A220810B5094C23686BB975
:1042E000012004F024FD206040B94FF0140383F353
:1042F0001188BFF36F8FBFF34F8FFEE710BD00BF74
:10430000A8710000F8B50F461446064668B361B3BD
:10431000542005F09DFC054650B304F00103A207AC
:1043200048BF43F0020314F0030F18BF03236007D4
:1043300048BF43F48073210748BF43F40063E2069B
:104340000D4848BF43F480633A4629461CF0D6FB2B
:10435000044610B935602046F8BD284605F04EFDEC
:104360002046BDE8F840FFF7ADBF6FF01504F2E757
:104370006FF00B04EFE700BF0072000070B5044659
:1043800080B1066876B1314608481CF0D3FB05467B
:10439000304605F033FD002323602846BDE8704019
:1043A000FFF790BF6FF0080070BD00BF0072000003
:1043B00010B513460C4660B1016851B14CB10748C5
:1043C00022461CF0E7FB031E05DABDE81040FFF7AC
:1043D00079BF6FF01503184610BD00BF00720000D2
:1043E00010B513460C4660B1016851B14CB1074895
:1043F00022461CF003FC031E05DABDE81040FFF75F
:1044000061BF6FF01503184610BD00BF00720000B9
:1044100010B513460C4668B1016859B1022A0CD890
:10442000084822461CF002FC844209D0BDE8104036
:10443000FFF748BF6FF0080010BD6FF01500FBE7F5
:104440000020F9E70072000030B50D46C3B0014608
:10445000F8B1F5B110486A461CF02EFB044620B1B5
:1044600043B0BDE83040FFF72DBFFF2202A9284628
:104470001EF01CFD019BC5F800319DF8003085F849
:10448000FF40013B18BF012385F80431204643B0AB
:1044900030BD6FF01504F9E70072000008B5014661
:1044A00030B105481CF0DAFBBDE80840FFF70ABF51
:1044B0006FF0150008BD00BF0072000070B50C461B
:1044C0000646B8B1B1B1342005F0C2FB0546A0B133
:1044D000224601460A481CF071FC044638B12846C1
:1044E00005F08CFC2046BDE87040FFF7EBBE356060
:1044F000204670BD6FF01504FAE76FF00B04F7E784
:104500000072000010B50C46C2B020B3016811B3B0
:104510000CB312486A461CF0B3FC031E04DA42B026
:10452000BDE81040FFF7CEBE12D0FF2202A9204600
:104530001EF0BCFC002384F8FF30019BC4F800315E
:104540009DF80030013B18BF012384F8043101239A
:10455000184642B010BD6FF01503F9E70072000075
:1045600070B5044680B1066876B1314608481CF043
:1045700079FC0546304605F041FC002323602846BF
:10458000BDE87040FFF79EBE6FF0080070BD00BF31
:104590000072000038B50446002847D02549264B54
:1045A0004B60264B8B60264BCB60264B0B614FF448
:1045B00080721023C1E905324FF48052C1E907220D
:1045C0004FF48062C1E90A231F48C8234B621CF0E4
:1045D00051F9054630B30120FDF744FA98B11B4864
:1045E000FDF760FAFDF76CFA1948FDF75BFA194818
:1045F000FDF758FAFDF794FA1748FDF753FA1748F4
:104600002946FDF74FFA0B490F481CF0BDF818B1C9
:10461000BDE83840FFF756BE06490B481CF02AF9A2
:104620000028F5D1084B6360002038BD6FF01500FD
:10463000FBE700BFAC7100008DE22108A9E2210870
:10464000C5E22108DFE22108007200000FA722085E
:10465000C56A2208D16A2208356922081A7A220816
:1046600008B540B1016831B104481CF07BFABDE8DF
:104670000840FFF727BE6FF0080008BD0072000079
:1046800010B5044690B10B481CF044FC021E03DA3E
:10469000BDE81040FFF716BE074BD9691B6AA3603F
:1046A000C4E900119B1AE360002010BD6FF01500F3
:1046B000FBE700BF00720000AC710000F8B50C4FC2
:1046C000044638680D46164618B14FF0FF3104F025
:1046D000ABFC204632462946FFF782FE0446386886
:1046E00020B100231A46194604F031FA2046F8BDDD
:1046F000A87100007047704770B5C4B0054601A8A6
:10470000FFF7F8FF294601A8FFF7D8FE0446002866
:1047100036D1454D454E02A901A8FFF7F3FE041E10
:1047200064DD9DF80830002B79D0294602A81EF0E0
:10473000A0FC0028EFD0314602A81EF09AFC002809
:10474000E9D09DF80C31012B4FF0030034D1FDF777
:1047500089F90028DFD03648FDF7A4F9FDF7B0F954
:104760003448FDF79FF93448FDF79CF9FDF7D8F977
:104770003248FDF797F902A93148FDF793F9CAE7E6
:104780000120FDF76FF9A0B12948FDF78BF9FDF77E
:1047900097F92C48FDF786F92B48FDF783F9FDF7CB
:1047A000BFF92648FDF77EF9284822462946FDF73D
:1047B00079F9204644B070BDFDF754F90028AAD01D
:1047C0001B48FDF76FF9FDF77BF91A48FDF76AF909
:1047D0001948FDF767F9FDF7A3F91848FDF762F9E5
:1047E000429A1B4802A9FDF75DF994E717D0012012
:1047F000FDF738F998B10E48FDF754F9FDF760F967
:104800001048FDF74FF91048FDF74CF9FDF788F90E
:104810000A48FDF747F90F482146FDF743F901A87B
:10482000FFF79EFEC5E700BFB37A2208B27A2208DE
:104830000FA72208206922082C692208356922085E
:10484000B57A2208C56A2208D16A2208967A220817
:10485000C17A2208DA7A220808B50120FDF702F9A8
:10486000A0B10B48FDF71EF9FDF72AF90948FDF73D
:1048700019F90948FDF716F9FDF752F90748FDF750
:1048800011F9BDE808400648FDF70CB908BD00BFA6
:104890000FA72208C56A2208D16A220835692208B2
:1048A000F37A220830B5C3B069460546FFF7CCFD60
:1048B00000B32846FFF7F2FD0446D8B110F1110FFE
:1048C00018D00120FDF7CEF8A0B10B48FDF7EAF8AB
:1048D000FDF7F6F80948FDF7E5F80948FDF7E2F8B5
:1048E000FDF71EF90748FDF7DDF80748224629467F
:1048F000FDF7D8F843B030BD0FA72208C56A2208DB
:10490000D16A220835692208077B2208F0B58BB0EE
:10491000FFF7E2FC1F48FFF73DFED8B10120FDF78D
:10492000A1F890B11C48FDF7BDF8FDF7C9F81B4888
:10493000FDF7B8F81A48FDF7B5F8FDF7F1F8194892
:10494000FDF7B0F81848FDF7ADF84FF0FF342046FA
:104950000BB0F0BD06A8FFF793FE044640B301205C
:10496000FDF780F80028F2D00B48FDF79BF8FDF723
:10497000A7F80A48FDF796F80948FDF793F8FDF700
:10498000CFF80848FDF78EF821460848FDF78AF869
:10499000DDE700BF540000000FA72208C56A220807
:1049A000D16A2208356922082B7B2208487B22081D
:1049B0000320FDF757F8B0B1BA48FDF773F8FDF7DB
:1049C0007FF8B948FDF76EF8B848FDF76BF8FDF7CA
:1049D000A7F8B748FDF766F8DDE907315943B54850
:1049E000890AFDF75FF80320FDF73CF8B0B1AD4848
:1049F000FDF758F8FDF764F8AB48FDF753F8AB48FE
:104A0000FDF750F8FDF78CF8A948FDF74BF8099928
:104A1000079BA9485943890AFDF744F80320DDE9BB
:104A20000856FDF71FF830B39E48FDF73BF8FDF739
:104A300047F89D48FDF736F89C48FDF733F8FDF739
:104A40006FF89B48FDF72EF8A81B1CF0C3FB9B4B8F
:104A500000221CF039FC064628460F461CF0BAFB23
:104A600002460B46304639461CF058FD02460B46BE
:104A70009348FDF717F8934B1868FFF713FF00F002
:104A80006DFC9148FFF70EFF9048FFF70BFF904831
:104A9000FFF708FF8F48FFF705FF8F49062201A89F
:104AA000FFF730FC38B98D49192201A8FFF798FCAF
:104AB00001A8FFF763FC8A49062202A8FFF722FC3F
:104AC00038B98849152202A8FFF78AFC02A8FFF727
:104AD00055FC8549062203A8FFF714FC38B9834921
:104AE000232203A8FFF77CFC03A8FFF747FC8049BB
:104AF000062204A8FFF706FC48B97E4B0593042262
:104B000005A904A8FFF76CFC04A8FFF737FC0320F5
:104B1000FCF7A8FF90B16348FCF7C4FFFCF7D0FF97
:104B20006148FCF7BFFF6148FCF7BCFFFCF7F8FFEA
:104B30005F48FCF7B7FF7048FCF7B4FF6F48FFF71A
:104B4000DBFD051E18DA0120FCF78CFFA0B15548EB
:104B5000FCF7A8FFFCF7B4FF6948FCF7A3FF69481E
:104B6000FCF7A0FFFCF7DCFF5148FCF79BFF634913
:104B700065482A46FCF796FF0320FCF773FF90B1C7
:104B80004848FCF78FFFFCF79BFF4748FCF78AFF7C
:104B90004648FCF787FFFCF7C3FF4548FCF782FF58
:104BA0005548FCF77FFF0320FCF75CFF90B13D48C0
:104BB000FCF778FFFCF784FF3B48FCF773FF3B48AA
:104BC000FCF770FFFCF7ACFF3948FCF76BFF4F4870
:104BD000FCF768FF0320FCF745FF90B13148FCF774
:104BE00061FFFCF76DFF3048FCF75CFF2F48FCF7D6
:104BF00059FFFCF795FF2E48FCF754FF4448FCF79B
:104C000051FF3148FFF778FD051E17DA0120FCF748
:104C100029FF98B12348FCF745FFFCF751FF3848BE
:104C2000FCF740FF3748FCF73DFFFCF779FF2048D1
:104C3000FCF738FF37482946FCF734FF0320FCF720
:104C400011FF90B11748FCF72DFFFCF739FF16480C
:104C5000FCF728FF1548FCF725FFFCF761FF144817
:104C6000FCF720FF2948FCF71DFF0320FCF7FAFEA4
:104C700090B10C48FCF716FFFCF722FF0A48FCF73E
:104C800011FF0A48FCF70EFFFCF74AFF0848FCF743
:104C900009FF2148FCF706FF0E48FFF72DFD051E12
:104CA0003CE000BF0FA72208206922082C692208D7
:104CB00035692208727B2208887B2208000059404F
:104CC0009D7B220854000000BA7B2208C67B220884
:104CD000D07B2208DA7B2208EB7B2208FE7B2208AD
:104CE000187C2208317C2208477C22085C7C220840
:104CF000807C220889504E479B7C2208C67C220873
:104D0000C56A2208D16A2208CB7C2208E07C2208EE
:104D10000B7D2208277D2208407D220817DA01201A
:104D2000FCF7A0FE98B11748FCF7BCFEFCF7C8FEE4
:104D30001548FCF7B7FE1548FCF7B4FEFCF7F0FE8B
:104D40001348FCF7AFFE13482946FCF7ABFE0320DF
:104D5000FCF788FE00283FF4FAAD0A48FCF7A2FEF3
:104D6000FCF7AEFE0C48FCF79DFE0C48FCF79AFEE3
:104D7000FCF7D6FE0648FCF795FE0948FCF792FEC4
:104D8000E5E500BF0FA72208C56A2208D16A2208FC
:104D900035692208617D2208206922082C692208D1
:104DA000E07C2208F7B52E4E3468002C1BDD012074
:104DB000FCF758FE98B12B48FCF774FEFCF780FE18
:104DC0002948FCF76FFE2948FCF76CFEFCF7A8FEAB
:104DD0002748FCF767FE31682648FCF763FE00258C
:104DE000284603B0F0BD244F00904FF403735C439A
:104DF000224B234A1B68E51904F500744FF48071B7
:104E00003C4428461DF066FE00232046A5F80832E3
:104E1000FFF771FC204607222946FFF773FA041EAC
:104E20001ADA0120FCF71EFE0028D8D00D48FCF746
:104E300039FEFCF745FE0C48FCF734FE0B48FCF746
:104E400031FEFCF76DFE0A48FCF72CFE224629468F
:104E50000C48FCF727FEC2E7336801333360BFE735
:104E6000807200000FA72208C56A2208D16A2208B2
:104E7000356922087F7D22088472000054000000FA
:104E8000A27D2208AC7D220870B500F500760546AB
:104E90003046FFF7E5FB04460320FCF7E3FD98B13D
:104EA0001C48FCF7FFFDFCF70BFE1B48FCF7FAFD66
:104EB0001A48FCF7F7FDFCF733FE1948FCF7F2FD42
:104EC00018482146FCF7EEFD3046FFF757FA041E5E
:104ED0001ADA0120FCF7C6FDA0B10E48FCF7E2FD8E
:104EE000FCF7EEFD1048FCF7DDFD1048FCF7DAFD9D
:104EF000FCF716FE0A48FCF7D5FD0D482246294668
:104F0000FCF7D0FD204670BD0A4A1368013B1360D0
:104F10000024F7E70FA72208206922082C6922083D
:104F200035692208C07D2208C56A2208D16A220894
:104F3000DC7D22088072000084B038B5044605A8E4
:104F400080E80E000146BC2204F50070FFF748FA25
:104F5000051E20DA0120FCF785FDA0B10F48FCF703
:104F6000A1FDFCF7ADFD0E48FCF79CFD0D48FCF7DC
:104F700099FDFCF7D5FD0C48FCF794FD0B482A463B
:104F80002146FCF78FFDFFF767FC4FF0FF30BDE8CF
:104F9000384004B070470020F9E700BF0FA722088F
:104FA000C56A2208D16A220835692208F17D2208E3
:104FB00010B5ADF5047D324B00901B68314A4FF4BB
:104FC0008071044602A81DF085FD42A902A8FFF7E2
:104FD0003BFA002839DB0420FCF744FDA0B12A4845
:104FE000FCF760FDFCF76CFD2848FCF75BFD2848EA
:104FF000FCF758FDFCF794FD2648FCF753FD829A18
:10500000254842A9FCF74EFD0420829CBC23B4FB3A
:10501000F3F4FCF727FDA0B11B48FCF743FDFCF7B8
:105020004FFD1A48FCF73EFD1948FCF73BFDFCF725
:1050300077FD1848FCF736FD1848224602A9FCF710
:1050400031FD20460DF5047D10BD0120FCF70AFD61
:1050500098B10D48FCF726FDFCF732FD1048FCF72F
:1050600021FD1048FCF71EFDFCF75AFD0948FCF72E
:1050700019FD0D482146FCF715FD4FF0FF34E0E720
:1050800054000000A27D22080FA722082A742208DB
:105090003674220835692208067E2208297E2208F5
:1050A000C56A2208D16A2208187E220810B5ADF51B
:1050B000047D324B00901B68314A4FF480710446E6
:1050C00002A81DF007FD42A902A8FFF7BDF90028BC
:1050D00039DB0420FCF7C6FCA0B12A48FCF7E2FC4F
:1050E000FCF7EEFC2848FCF7DDFC2848FCF7DAFC6E
:1050F000FCF716FD2648FCF7D5FC829A254842A904
:10510000FCF7D0FC0420829C2623B4FBF3F4FCF7CC
:10511000A9FCA0B11B48FCF7C5FCFCF7D1FC1A4860
:10512000FCF7C0FC1948FCF7BDFCFCF7F9FC18487B
:10513000FCF7B8FC1848224602A9FCF7B3FC20464D
:105140000DF5047D10BD0120FCF78CFC98B10D48D5
:10515000FCF7A8FCFCF7B4FC1048FCF7A3FC1048D3
:10516000FCF7A0FCFCF7DCFC0948FCF79BFC0D48B5
:105170002146FCF797FC4FF0FF34E0E754000000B5
:105180008D7E22080FA722082A742208367422086E
:1051900035692208067E2208297E2208C56A22086F
:1051A000D16A2208187E22082DE9F041C4B05E4B76
:1051B00000901B6806460D4617464FF480715B4A07
:1051C00004A81DF087FC03A8FFF795FA032204A9A1
:1051D00003A8FFF797F8041E1CDA0120FCF742FC35
:1051E000A0B15348FCF75EFCFCF76AFC5148FCF7A1
:1051F00059FC5148FCF756FCFCF792FC4F48FCF771
:1052000051FC4F48224604A9FCF74CFC204644B010
:10521000BDE8F0814FF02608002208FB05F103A845
:10522000FFF7F6F8041E18DA0120FCF71BFC002833
:10523000ECD03F48FCF736FCFCF742FC3D48FCF75D
:1052400031FC3D48FCF72EFCFCF76AFC3B48FCF7C0
:1052500029FC3C48224604A9D6E74246394603A821
:10526000FFF7A6F80446E8B125281BDC0120FCF76F
:10527000F9FBA0B12E48FCF715FCFCF721FC2D48EA
:10528000FCF710FC2C48FCF70DFCFCF749FC2B4804
:10529000FCF708FC2C48224604A9FCF703FC4FF05D
:1052A000FF34B3E703A8FFF769F8041E18DA0120FA
:1052B000FCF7D8FB0028F2D01D48FCF7F3FBFCF705
:1052C000FFFB1C48FCF7EEFB1B48FCF7EBFBFCF775
:1052D00027FC1A48FCF7E6FB1C48224604A9DCE739
:1052E0003046FFF7E3FE0138A84201D000248DE7E5
:1052F0000320FCF7B7FB0028F8D00D48FCF7D2FBE1
:10530000FCF7DEFB1248FCF7CDFB1248FCF7CAFBAA
:10531000FCF706FC0948FCF7C5FB04AA29460E4821
:10532000FCF7C0FBE2E700BF540000008D7E2208BE
:105330000FA72208C56A2208D16A22083569220807
:10534000AC7D22083A7E22084E7E2208DC7D2208AF
:10535000206922082C692208677E220810B5C2B095
:1053600016486946FFF770F818B90024204642B085
:1053700010BD1248FFF792F804460028F5D010F14E
:10538000110FF2D00120FCF76DFB0028EED00C4885
:10539000FCF788FBFCF794FB0A48FCF783FB0A4800
:1053A000FCF780FBFCF7BCFB0848FCF77BFB0349E0
:1053B00007482246FCF776FBD8E700BFAC7E220800
:1053C0000FA72208C56A2208D16A22083569220877
:1053D000077B2208F0B5C3B0034605460E461746C4
:1053E0004FF480713A4A02A81DF074FB012202A911
:1053F00001A8FEF787FF831C04462BD1072202A9D0
:1054000001A8FEF77FFF0446C8B10120FCF72AFB84
:10541000E8B13048FCF746FBFCF752FB2E48FCF79E
:1054200041FB2E48FCF73EFBFCF77AFB2C48FCF7CF
:1054300039FB2C4822462946FCF734FB07E001A83B
:10544000FEF79CFF3A46214630461DF009FD2046F6
:1054500043B0F0BDC0B10120FCF704FB0028F6D03A
:105460001C48FCF71FFBFCF72BFB1B48FCF71AFB47
:105470001A48FCF717FBFCF753FB1948FCF712FB23
:10548000194822462946D7E73A46314601A8FEF791
:105490008FFF041E18DA0120FCF7E4FAA0B10D48D2
:1054A000FCF700FBFCF70CFB0B48FCF7FBFA0B4886
:1054B000FCF7F8FAFCF734FB0948FCF7F3FA0B4861
:1054C00022462946FCF7EEFA01A8FEF757FFBEE791
:1054D000B87E22080FA72208C56A2208D16A2208CE
:1054E00035692208D07E2208FF7E22082C7F220800
:1054F000F0B5C3B0034605460E4617464FF480711B
:10550000274A02A81DF0E6FA062202A901A8FEF722
:10551000F9FE0446D8B10120FCF7A4FAA0B1214855
:10552000FCF7C0FAFCF7CCFA1F48FCF7BBFA1F489F
:10553000FCF7B8FAFCF7F4FA1D48FCF7B3FA1D487B
:1055400022462946FCF7AEFA204643B0F0BD3A4663
:10555000314601A8FFF7B2F8041E1CDA0120FCF75F
:1055600081FAA0B10F48FCF79DFAFCF7A9FA0E48A2
:10557000FCF798FA0D48FCF795FAFCF7D1FA0C48BD
:10558000FCF790FA0C4822462946FCF78BFA01A852
:10559000FEF7F4FED8E701A8FFF762F8F7E700BFCF
:1055A000B87E22080FA72208C56A2208D16A2208FD
:1055B000356922084A7F22087A7F22081FB5102207
:1055C000002168461DF04CFC102269460320FFF7BD
:1055D00001FF184B009A9A420FD0002200937023CB
:1055E000CDE9022369460A23102203208DF80430F6
:1055F000FFF77EFF05B05DF804FB0320FCF732FAED
:105600000028F7D00C48FCF74DFAFCF759FA0B4884
:10561000FCF748FA0A48FCF745FAFCF781FA094812
:10562000FCF740FA9DF80430039A00990648FCF70D
:1056300039FADFE755434D410FA7220820692208B8
:105640002C69220835692208997F220884B070B538
:10565000ACB030AC84E80F000A223F4CB1FBF2F54D
:1056600002FB151539B93D4A116030980021FCF74D
:10567000CDF9606001E0002DF7D0122303FB054354
:10568000BDF8C8201A81BDF8CA205A81BDF8CC20C7
:105690009A81DDF8CE20C3F80E20DDF8D220C3F8C1
:1056A0001220DDF8D620C3F816202D4B2D4A05FB1D
:1056B0000333B2EB730F05D200202CB0BDE870406D
:1056C00004B07047254A1368236003200133136038
:1056D000FCF7C8F998B12448FCF7E4F9FCF7F0F9B5
:1056E0002248FCF7DFF92248FCF7DCF9FCF718FA4E
:1056F0002048FCF7D7F921681F48FCF7D3F91F4968
:1057000026686568A468B02268461DF019FD1C482B
:105710002346006831462A46FFF70EFC044600285F
:10572000CAD00120FCF79EF998B10F48FCF7BAF9EE
:10573000FCF7C6F91348FCF7B5F91348FCF7B2F9C2
:10574000FCF7EEF90B48FCF7ADF910482146FCF7E1
:10575000A9F94FF0FF30B0E7907400004C750000DD
:10576000CDCCCCCC999999190FA722082069220891
:105770002C69220835692208D67F22089C74000013
:1057800064750000C56A2208D16A2208EF7F2208EA
:1057900084B01FB50DF1180C8CE80F000AAA07CAD7
:1057A0006B4603C31A809CE80F00FFF74FFF05B05C
:1057B0005DF804EB04B07047012970B5044673D15D
:1057C000FFF7F0FA05460420FCF74CF998B15F4862
:1057D000FCF768F9FCF774F95D48FCF763F95D487C
:1057E000FCF760F9FCF79CF95B48FCF75BF95B4858
:1057F0002946FCF757F9CDB90120FCF733F9002809
:1058000035D05248FCF74EF9FCF75AF95448FCF7EA
:1058100049F95448FCF746F9FCF782F94E48FCF781
:1058200041F951482146FCF73DF920E04F4E5049DF
:1058300035600F2000F0C4FBE0B10120FCF712F945
:1058400090B14248FCF72EF9FCF73AF94448FCF7CE
:1058500029F94448FCF726F9FCF762F93E48FCF7C1
:1058600021F94448FCF71EF93068FFF70DFB4FF0B3
:10587000FF3018E00320FCF7F5F898B13348FCF747
:1058800011F9FCF71DF93C48FCF70CF93B48FCF713
:1058900009F9FCF745F93048FCF704F93848214686
:1058A000FCF700F9002070BD0320FCF7DBF890B195
:1058B0002648FCF7F7F8FCF703F92F48FCF7F2F855
:1058C0002E48FCF7EFF8FCF72BF92348FCF7EAF831
:1058D0002C48FCF7E7F80021084600F071FB032094
:1058E000FCF7C0F890B11948FCF7DCF8FCF7E8F8D1
:1058F0002148FCF7D7F82148FCF7D4F8FCF710F959
:105900001548FCF7CFF82048FCF7CCF8174D28686D
:10591000FFF7BAFAB8B10120FCF7A4F80028A6D026
:105920000A48FCF7BFF8FCF7CBF80D48FCF7BAF8CB
:105930000C48FCF7B7F8FCF7F3F80748FCF7B2F8A7
:10594000124821466FE72860ACE700BF0FA7220886
:105950002A74220836742208356922081480220825
:10596000C56A2208D16A22082180220864750000D5
:10597000916720083A802208206922082C692208B1
:10598000518022088280220894802208A280220866
:105990002DE9F341384EDFF810810446051D00F172
:1059A0000C0715F8012F304641461DF0C7F8BD42DF
:1059B00006F10206F5D12379002B54D02F4B1B683A
:1059C000BBB92F4B01221A7011232E4A0024062145
:1059D0006846CDE900248DF80430FCF71DF8082155
:1059E000ADF806006846FDF72DF9204602B0BDE887
:1059F000F0810220FCF736F890B12348FCF752F80A
:105A0000FCF75EF82148FCF74DF82148FCF74AF80E
:105A1000FCF786F81F48FCF745F81F48FCF742F8EA
:105A20001E4D1F480021FFF7C7FE2B78C3B102208F
:105A3000FCF718F890B11448FCF734F8FCF740F87C
:105A40001248FCF72FF81248FCF72CF8FCF768F81E
:105A50001048FCF727F81348FCF724F800232B70B4
:105A60002379002BADD104480021FFF7A5FE0028C3
:105A7000AAD01A23A9E700BF527500006475000080
:105A8000517500000208F2100FA722084E77220875
:105A90005A77220835692208BC8022085075000018
:105AA0007C692208F0802208E37022082DE9F04387
:105AB0008BB0044600210D2201A800911DF0D0F901
:105AC0006D46DFF8D490E61C04F10B082F4616F85B
:105AD000012F284649461DF031F8464505F10205DB
:105AE000F5D1254B1B68D3B10220FBF7BBFF90B16A
:105AF0002248FBF7D7FFFBF7E3FF2148FBF7D2FF74
:105B00002048FBF7CFFFFCF70BF81F48FBF7CAFF55
:105B10001E48FBF7C7FF1E480021FFF74DFE384621
:105B2000FFF746FA05B2002D4FF00D02194B059311
:105B30004FF0000106A8BABF0025122611261DF05D
:105B40008FF96368CDF81930A8B2A368CDF81D307D
:105B5000FBF756FF0F21ADF8210005A88DF818605E
:105B6000FBF75AFF1121ADF8230005A8FDF76AF8ED
:105B700000200BB0BDE8F083647500000FA7220879
:105B80004E7722085A772208356922080F812208A9
:105B90007C6922080211F211E37022082DE9F0431A
:105BA00004469BB0B0F80F00DFF81C91FBF72BFF09
:105BB000002105460D2201A800911DF051F96E4605
:105BC00004F1030837460B3418F8012F30464946D4
:105BD0001CF0B4FFA04506F10206F5D10420FBF746
:105BE00041FFA0B13048FBF75DFFFBF769FF2F488D
:105BF000FBF758FF2E48FBF755FFFBF791FF2D48A9
:105C0000FBF750FF2C483A462946FBF74BFF26226C
:105C1000002105A81DF024F905AA29463846FFF7FA
:105C2000C3FA00281DDA0120FBF71CFFA0B11E48B3
:105C3000FBF738FFFBF744FF2048FBF733FF204812
:105C4000FBF730FFFBF76CFF1A48FBF72BFF1D48F3
:105C50003A462946FBF726FF4FF0FF301BB0BDE860
:105C6000F0830023ADF8633002238DF83C300DF152
:105C70003D0205AB0DAD1C4603CCAC42106051603B
:105C8000234602F10802F6D120681060A3889380B1
:105C900027210FA8FBF7C0FE2921ADF863000FA84C
:105CA000FCF7D0FF0020D9E70FA722082A742208AA
:105CB00036742208356922082B812208C56A220819
:105CC000D16A22084B812208E37022082DE9F043B3
:105CD0008BB0044600210D2201A800911DF0C0F8F0
:105CE0006D46DFF8D490E61C04F10B082F4616F839
:105CF000012F284649461CF021FF464505F10205C3
:105D0000F5D1254B1B68D3B10220FBF7ABFE90B158
:105D10002248FBF7C7FEFBF7D3FE2148FBF7C2FE84
:105D20002048FBF7BFFEFBF7FBFE1F48FBF7BAFE60
:105D30001E48FBF7B7FE1E480021FFF73DFD384621
:105D4000FFF7B4F905B2002D4FF00D02194B059382
:105D50004FF0000106A8BABF0025122611261DF03B
:105D60007FF86368CDF81930A8B2A368CDF81D306C
:105D7000FBF746FE0F21ADF8210005A88DF818604D
:105D8000FBF74AFE1121ADF8230005A8FCF75AFFE6
:105D900000200BB0BDE8F083647500000FA7220857
:105DA0004E7722085A772208356922080F81220887
:105DB0007C6922080211F213E37022082DE9F043F6
:105DC00004469BB0B0F80F00DFF81C91FBF71BFEF8
:105DD000002105460D2201A800911DF041F86E46F4
:105DE00004F1030837460B3418F8012F30464946B2
:105DF0001CF0A4FEA04506F10206F5D10420FBF735
:105E000031FEA0B13048FBF74DFEFBF759FE2F489D
:105E1000FBF748FE2E48FBF745FEFBF781FE2D48B9
:105E2000FBF740FE2C483A462946FBF73BFE26226C
:105E3000002105A81DF014F805AA29463846FFF7E9
:105E4000B3F900281DDA0120FBF70CFEA0B11E48B3
:105E5000FBF728FEFBF734FE2048FBF723FE204823
:105E6000FBF720FEFBF75CFE1A48FBF71BFE1D4804
:105E70003A462946FBF716FE4FF0FF301BB0BDE84F
:105E8000F0830023ADF8633002238DF83C300DF130
:105E90003D0205AB0DAD1C4603CCAC421060516019
:105EA000234602F10802F6D120681060A38893808F
:105EB00027210FA8FBF7B0FD2921ADF863000FA83B
:105EC000FCF7C0FE0020D9E70FA722082A74220899
:105ED00036742208356922082B812208C56A2208F7
:105EE000D16A22084B812208E3702208F0B593B0F2
:105EF0001FF0FAFC284F294C294D05903B78FBB93F
:105F00000420FBF7AFFD90B12648FBF7CBFDFBF774
:105F1000D7FD2548FBF7C6FD2448FBF7C3FDFBF77B
:105F2000FFFD2348FBF7BEFD2248FBF7BBFD224BDC
:105F300000202060286018601FF09AFC13B0F0BDAC
:105F4000FBF726FD23680B9008A906A80C9300F028
:105F500015FABDF91C30ADF83830089BCDF83A3051
:105F60002E68099B069ACDF83E300A9B0D92CDF81B
:105F7000423046B112AA12E907006B4603C31A80E9
:105F80000BAB0FCBB0472368013323600B4B05A845
:105F900019681FF075FCB1E76C750000747500009E
:105FA000787500000FA722082A7422083674220888
:105FB0003569220878812208707500006875000034
:105FC0002DE9F341384CDFF8188123680F46054668
:105FD00078BB3BB3354B1870354B186840000A2826
:105FE00038BF0A2001F0C3FF2368DBB10420FBF7B0
:105FF00039FD90B12F48FBF755FDFBF761FD2E48A9
:10600000FBF750FD2D48FBF74DFDFBF789FD2C48B4
:10601000FBF748FD2B48FBF745FD20681FF028FCE7
:10602000002323600023C8F80030002002B0BDE840
:10603000F0811E4E23B100230A20337001F097FF38
:106040001B4AC8F800704FF47A73B3FBF5F3136082
:106050001D4A1E491E480023136001251A2235706F
:10606000009201944FF400721FF00EFCA842DCD0A5
:106070002846FBF7F7FC90B10E48FBF713FDFBF742
:106080001FFD1448FBF70EFD1348FBF70BFDFBF754
:1060900047FD0B48FBF706FD1048FBF703FD002307
:1060A00033704FF0FF30C1E7707500006C75000071
:1060B000687500000FA722082A7422083674220887
:1060C00035692208728122087475000094812208C3
:1060D000ED6E2008C56A2208D16A2208A081220834
:1060E0007875000073B504466B46002845D1334AE5
:1060F00092E8030083E80300E6B2194630460EF04A
:10610000F1FB0546002840D00120FBF7ABFC98B11D
:106110002B48FBF7C7FCFBF7D3FC2A48FBF7C2FC74
:106120002948FBF7BFFCFBF7FBFC2848FBF7BAFC50
:1061300027482946FBF7B6FC0022114630460EF0F0
:1061400071FC0446B8B10120FBF78CFC98B11C48E7
:10615000FBF7A8FCFBF7B4FC1A48FBF7A3FC1A48B2
:10616000FBF7A0FCFBF7DCFC1848FBF79BFC19488D
:106170002146FBF797FC02B070BD012801D1164AF9
:10618000B6E70228B8D1154AB2E70420FBF76AFC4B
:106190000028D1D00A48FBF785FCFBF791FC10489A
:1061A000FBF780FC0F48FBF77DFCFBF7B9FC0748C9
:1061B000FBF778FC0C482146BCE700BF4800000014
:1061C0000FA72208C56A2208D16A22083569220869
:1061D000C48122083D8222084000000038000000EF
:1061E0002A7422083674220800822208F8B500AF0B
:1061F0000D46BA8B02F108010446C9086846A0EBB7
:10620000C1018D466846561C00F8013BB9691CF077
:1062100097FF204633466A46A9B20EF01DFC04469D
:10622000C0B10120FBF71EFC98B10B48FBF73AFC0C
:10623000FBF746FC0948FBF735FC0948FBF732FC45
:10624000FBF76EFC0748FBF72DFC07482146FBF7E0
:1062500029FC0920BD46F8BD0FA72208C56A2208FF
:10626000D16A2208356922088D82220830B587B0AC
:106270008AB28DF8043001AB02930A9B0493012586
:10628000BDF82C30039502A905930EF0E5FC0446F9
:10629000C0B12846FBF7E6FB98B10B48FBF702FCC0
:1062A000FBF70EFC0948FBF7FDFB0948FBF7FAFB7F
:1062B000FBF736FC0748FBF7F5FB07482146FBF7E1
:1062C000F1FB092007B030BD0FA72208C56A2208DC
:1062D000D16A220835692208D782220880B201F0EB
:1062E00035BCFFF7FBBF000008B50120FBF7BAFB88
:1062F00098B10B48FBF7D6FBFBF7E2FB0948FBF72D
:10630000D1FB0948FBF7CEFBFBF70AFC0748FBF77C
:10631000C9FB07480121FBF7C5FB012008BD00BFF1
:106320000FA72208C56A2208D16A22083569220807
:10633000D782220807B5CDE900230B4602466A2121
:106340000120FFF793FF20B103B05DF804EBFFF7E6
:10635000CBBF03B05DF804FB07B5CDE900230B46C6
:1063600002466A210120FFF741FF20B103B05DF82A
:1063700004EBFFF7B9BF03B05DF804FB7FB505463A
:106380000C46454801A900F06CFA0646002876D173
:106390000146FBF709FA9DF80430DA072ED502A969
:1063A0003D480296ADF80C6000F08DFABDF908008A
:1063B0003A4E00F035F91FF0E3F907EE900AFDEED2
:1063C000E77ABDF90A0017EE903A338000F028F919
:1063D0001FF0D6F907EE900AFDEEE77ABDF90C0042
:1063E00017EE903A738000F01BF91FF0C9F907EE21
:1063F000900AFDEEE77A17EE903AB3809DF80430EC
:106400009B072CD5002302A923480293ADF80C303A
:1064100000F03AFABDF90800214E00F00FF91FF024
:10642000AFF907EE900AFDEEE77ABDF90A00C6ED76
:10643000007A00F003F91FF0A3F907EE900AFDEED1
:10644000E77ABDF90C00C6ED017A00F0F7F81FF00D
:1064500097F907EE900AFDEEE77AC6ED027A35B1BC
:106460000E4B1A882A805A889B886A80AB808CB130
:106470000B4B1A6822605A6862609B6809E0012130
:106480000020FBF791F900232B806B80AB80C4E9DF
:106490000033A36004B070BD947500008C750000DB
:1064A0008075000037B5444C444B2360444B636017
:1064B000444BA3600A200023E360FFF70FFF0DF1B8
:1064C0000601204600F024F90320FBF7CBFAA0B127
:1064D0003D48FBF7E7FAFBF7F3FA3C48FBF7E2FA33
:1064E0003B48FBF7DFFAFBF71BFB3A48FBF7DAFA0E
:1064F0009DF806103848FBF7D5FA9DF80630702B4A
:1065000018D00120FBF7AEFA90B12F48FBF7CAFA7A
:10651000FBF7D6FA3148FBF7C5FA3148FBF7C2FA68
:10652000FBF7FEFA2B48FBF7BDFA2E48FBF7BAFA49
:1065300003B030BD00210846FBF736F91E481E4D5A
:10654000042100F089F80DF10701284600F0B7F8A2
:106550009DF80740002CF6D10121174800F03CF9C6
:106560000321154800F0DBF80321134800F005F97A
:106570002146114800F05EF904210F4800F043F96C
:10658000194B0D48197821F00D0141F00D011970DA
:1065900000F0B8F90121084800F017FA2146064832
:1065A00000F0FCF90121044800F03DFA0421024802
:1065B00000F022FABCE700BF947500005973200870
:1065C00035732008E37220080FA7220820692208EB
:1065D0002C6922083569220824832208C56A22080A
:1065E000D16A22083E8322087C75000010B428B1CD
:1065F0004468C068A4465DF8044B60474FF0FF3024
:106600005DF8044B704710B428B10468C068A44614
:106610005DF8044B60474FF0FF305DF8044B704766
:1066200007EE900A9FED047AF8EEE77A67EE877A34
:1066300017EE900A704700BF23DB793D07EE900A02
:106640009FED047AF8EEE77A67EE877A17EE900A04
:10665000704700BF00008C4273B5012301AA0E46AB
:1066600012210546FFF7C2FF012304466A46194678
:106670002846FFF7BBFF20181FD1B208C6F340031E
:1066800043EAC2139DF8042002F07E0213438DF802
:1066900004309DF8003066F382038DF8003001AAC3
:1066A000012312212846FFF7AEFF012304466A4664
:1066B00019462846FFF7A7FF204402B070BD73B506
:1066C000012301AA0D4612210646FFF78FFF012381
:1066D00004466A4619463046FFF788FF201812D153
:1066E0009DF8043003F00102DB095B0003EB820339
:1066F0009DF80020C2F380021344022B06D0042B25
:1067000004D013B9287002B070BD01232B70FAE7D2
:1067100008B50A4601230F21FFF768FF08BD73B5CE
:1067200001230D466A4610210646FFF75FFF10BBA6
:106730009DF8003065F303038DF800306A460123AD
:1067400010213046FFF75FFFA8B92D0913D00123B0
:1067500001AA62213046FFF749FF9DF8043065F336
:10676000010304468DF8043001AA0123622130465A
:10677000FFF749FF204402B070BD73B501230D46F9
:106780006A4611210646FFF731FF9DF8003065F398
:10679000030304468DF800306A4601231121304678
:1067A000FFF731FF201815D12D0913D0012301AABD
:1067B00062213046FFF71AFF9DF8043065F30103AC
:1067C00004468DF8043001AA012362213046FFF708
:1067D0001AFF204402B070BD37B501230D4601AA4F
:1067E00012210446FFF702FF58B99DF8043065F303
:1067F00086138DF8043001AA012312212046FFF7E9
:1068000002FF03B030BD37B501230D4601AA1521A3
:106810000446FFF7EBFE58B99DF8043065F3030317
:106820008DF8043001AA012315212046FFF7EBFE65
:1068300003B030BD37B501230D4601AA1721044628
:10684000FFF7D4FE58B99DF8043065F301038DF8C5
:10685000043001AA012317212046FFF7D4FE03B01C
:1068600030BD13B501230C4601AA1E21FFF7BEFE61
:1068700040B923789DF8042023F0070302F00702B3
:106880001343237002B010BD13B506230C466A46AD
:106890002221FFF7ABFEA0B99DF801209DF8003042
:1068A00003EB022323809DF803209DF8023003EBC5
:1068B000022363809DF805209DF8043003EB02233A
:1068C000A38002B010BD13B506230C466A462821EA
:1068D000FFF78CFEA0B99DF801209DF8003003EB76
:1068E000022323809DF803209DF8023003EB02234E
:1068F00063809DF805209DF8043003EB0223A380FC
:1069000002B010BD7FB50D46012303AA1321064630
:10691000FFF76CFE9DF80C3065F3C30304468DF859
:106920000C3003AA012313213046FFF76CFE201818
:1069300032D1012301AA63213046FFF757FEC5F388
:106940008003C5F3C0021B0143EA42139DF80420F3
:1069500022F03002134304468DF8043001AA0123CB
:1069600063213046FFF74FFE201815D1012302AAFC
:106970006F213046FFF73AFE9DF80830C5F3400519
:1069800065F3861304468DF8083002AA01236F21AF
:106990003046FFF738FE204404B070BD37B5012300
:1069A0000D4601AA15210446FFF720FE58B99DF8AF
:1069B000043065F306138DF8043001AA0123152174
:1069C0002046FFF720FE03B030BD37B501230D464A
:1069D00001AA16210446FFF709FE58B99DF80430B4
:1069E00065F300038DF8043001AA01231621204627
:1069F000FFF709FE03B030BD37B501230D4601AAEC
:106A000017210446FFF7F2FD58B99DF8043065F3ED
:106A100047138DF8043001AA012317212046FFF700
:106A2000F2FD03B030BD37B501230D4601AA182190
:106A30000446FFF7DBFD58B99DF8043065F3C30346
:106A40008DF8043001AA012318212046FFF7DBFD51
